:100000000C945F050C9487050C9487050C94870568
:100010000C9487050C9487050C9487050C94870530
:100020000C9487050C94FC140C9487050C9487059C
:100030000C9487050C9487050C9487050C94870510
:100040000C946E0D0C9487050C94610C0C943B0C75
:100050000C9487050C9487050C9487050C948705F0
:100060000C945E150C948705EE05FE0598079D0718
:100070003D08AD0AAD0AAD0A0909AD0AEE094C0A00
:1000800044494D4D000054696D650000534156458B
:10009000000061637469763A200000546865204965
:1000A00044206D75737420626520756E6971756585
:1000B00000004241434B000080008000841008088B
:1000C000C001E003F007F777F007E003C00108087C
:1000D000841080008000000000000000F00FFC3F52
:1000E0001E7887E1F3CF381C1818C003E0072004FE
:1000F00080018001000000000000007C00440044FA
:10010000007C00100010FFFFFFFF080008003E0009
:10011000220022003E0000004D6F646275730000F3
:100120006669726D7761726520000049443A00008B
:100130006D6172656C6162200000496E666F00003F
:10014000574C414E00005345545550000021212189
:100150005550444154494E472121210000000000E0
:100160000000000000F800007C000000000000001B
:100170000000F800007C000000000000000000F813
:1001800000007C00DFE303FF87FF813FF8F83F7C3E
:100190001FFFFFC3FF8FFFE3FFF8FE7FFC7FFFFF22
:1001A00007009FFFF3F1F900F8FC7F9FCF07FF9F47
:1001B000CFFBE0FBF8FFFCFC9FCF87FF9FCFFBFF4F
:1001C000FBFCFF7CF89FCFC7079F0FF8FFFB3EF8B3
:1001D0007CF89FCFC7879F0FF800F83EFCFCFC9F80
:1001E000CFC7FF9F0FF0F1FBFEFFFC7F9FCF87FF84
:1001F0009F0FE0FFF9FCFFFC7F9FCF073F9F0F8021
:100200007FF8F8F97C1F00000000000000000000EB
:1002100000000000000000000000000000000000DE
:100220000000000000E0FBBEEFFBA2EFFB000000BF
:100230000000208A822888A22808000000000020F0
:10024000FA8EE88BA22F380000000000200A8208F6
:100250008AA224080000000000E00BBEE8FBBEE814
:10026000FB3E3F405B5C5D5E607B7C7D7E20204B87
:100270004559310021222324252628292A2B2C2DDB
:100280002E2F3A3B3C3D00737475767778797A204F
:1002900040232426254E45585400616263646566F8
:1002A0006768696A6B6C6D6E6F7079720053545534
:1002B000565758595A303132333435363738390079
:1002C0004142434445464748494A4B4C4D4E4F50A6
:1002D00051520000000000240027002A0000000006
:1002E00000250028002B000000000800020100008B
:1002F0000304070000000000000000FFE0FFD1AF92
:10030000FF32FFD0FFFEFFE0FFD1AEFFD0FFFEFFC8
:10031000E0FFD11000FFFEFFD0FFE0FFC1FFD1AE34
:10032000D580A83FD300408D142002A1C8DA1281E5
:10033000CFD9F1DB402EA4A6AFFFD0FFFE00000016
:100340000023002600290004040404040404040219
:100350000202020202030303030303010204081062
:10036000204080010204081020010204081020012E
:10037000060A00FE070136026820FFFE08FE07FE9F
:100380000A006022176780808080800080163363B7
:10039000A0A0A00257675050F850F850500257677D
:1003A0002070A07028702002576748A8502050A8DD
:1003B0009002576740A0A040A890682613638080F1
:1003C000801237672040808080402012376780404D
:1003D00020202040800355658850F85088035565DB
:1003E0002020F82020113363604080055161F8110E
:1003F000336340E0400257670808102040808002C5
:100400005767205088888850200257672060A020B6
:100410002020F8025767708808304080F80257673C
:10042000F808103008887002576710305090F810A4
:1004300010025767F880B0C80888700257673040CC
:1004400080B0C88870025767F8081010204040023A
:1004500057677088887088887002576770889868B6
:1004600008106011376740E0400040E040113767F6
:1004700040E04000604080124767102040804020EC
:1004800010045363F800F8124767804020102040A2
:1004900080025767708810202000200257677088FC
:1004A00098A8B0807002576720508888F888880222
:1004B0005767F04848704848F00257677088808056
:1004C000808870025767F04848484848F0025767EC
:1004D000F88080F08080F8025767F88080F0808094
:1004E0008002576770888080988870025767888874
:1004F00088F8888888123767E04040404040E00232
:100500005767381010101090600257678890A0C08D
:10051000A09088025767808080808080F8025767AB
:100520008888D8A88888880257678888C8A8988843
:100530008802576770888888888870025767F088B3
:1005400088F08080800158687088888888A8700842
:10055000025767F08888F0A09088025767708880FB
:1005600070088870025767F820202020202002574A
:10057000678888888888887002576788888850507C
:100580005020025767888888A8A8D88802576788AB
:100590008850205088880257678888502020202063
:1005A000025767F80810204080F8123767E0808013
:1005B000808080E002576780804020100808123752
:1005C00067E02020202020E006536320508801515E
:1005D00061F82822628040025565700878887802A8
:1005E00057678080B0C888C8B00255657088808819
:1005F000700257670808689888986802556570887F
:10060000F88070025767304840F04040400057671C
:10061000788888780888700257678080B0C8888892
:10062000881237674000C0404040E0104969100020
:100630003010101090906002576780808890E09092
:1006400088123767C04040404040E0025565D0A85E
:10065000A8A888025565B0C8888888025565708842
:10066000888870005767B0C888C8B0808000576716
:1006700068988898680808025565B0C8808080022C
:10068000556570807008F00257674040F040404860
:10069000300255658888889868025565888850506A
:1006A000200255658888A8A85002556588502050BA
:1006B0008800576788889868088870025565F81020
:1006C0002040F8124767304020C020403022176792
:1006D00080808080808080124767C020403040202A
:1006E000C006536348A890FFFFFFFFFFFFFFFFFF17
:1006F000FFFFFFFFFFFFFFFFFFFFFFFFFFFFFFFF0A
:10070000FFFFFFFFFFFFFFFF0A0060221767800067
:1007100080808080800157672078A0A0A078200288
:100720005767304840E04048B002556588705070C7
:100730008801586888885020F82020202217678078
:100740008080008080800158687080E09048380880
:1007500070193161A00257677088A8C8A888701303
:1007600046667090B05000F00265652448904824B9
:10077000144262F010154161F00257677088E8C8B2
:10078000C88870095161F816336340A0400256666C
:100790002020F82020F815456560902040F0154590
:1007A00065E0106010E0282262408001566688886B
:1007B00088C8B08002576778E8E86828282825119B
:1007C0006180202262408015356540C04040E013C2
:1007D00046666090906000F00265659048244890FD
:1007E00001696940C04040E40C143C04016969405F
:1007F000C04040E81404081C015969C0204020C8CA
:100800001828780802576720002020408870025876
:10081000684020708888F88888025868102070889E
:1008200088F888880258682050708888F88888027C
:10083000586848B0708888F88888025868500070F6
:100840008888F888880258682050708888F88888D6
:100850000267673C50909CF0909C005969708880BA
:1008600080808870204002586840F88080F0808046
:10087000F802586810F88080F08080F802586820EC
:10088000F88080F08080F802586850F88080F0800E
:1008900080F81238688040E040404040E0123868FC
:1008A0002040E040404040E012386840A0E0404036
:1008B0004040E0123868A000E040404040E002576D
:1008C00067F04848E84848F0025868285088C8A8A7
:1008D00098888802586840207088888888700258F4
:1008E0006810207088888888700258682050708846
:1008F00088888870025868285070888888887002B4
:100900005868500070888888887002556588502023
:100910005088025767709898A8C8C87002586840F5
:10092000208888888888700258681020888888887D
:10093000887002586820500088888888700258683B
:1009400050008888888888700258681020888850ED
:1009500020202002576780F088F08080800257674F
:10096000708890A09088B002586840200070087885
:1009700088780258681020007008788878025868D3
:100980002050007008788878025868285000700855
:10099000788878025767500070087888780258681D
:1009A000205020700878887802656578147C907CE7
:1009B0000057677088808870204002586840200087
:1009C0007088F880700258681020007088F8807075
:1009D0000258682050007088F880700257675000F5
:1009E0007088F88070123868804000C0404040E055
:1009F000123868408000C0404040E012386840A093
:100A000000C0404040E0123767A000C0404040E0D6
:100A1000025767C030708888887002586828500074
:100A2000B0C888888802586840200070888888701C
:100A3000025868102000708888887002586820501A
:100A400000708888887002586828500070888888EC
:100A500070025767500070888888700355652000C1
:100A6000F800200255657898A8C8F0025868402020
:100A700000888888986802586810200088888898BC
:100A80006802586820500088888898680257675024
:100A900000888888986800596910208888986808B4
:100AA000887000586880F0888888F08080005969D4
:100AB00050008888986808887000E220DC201124A3
:100AC0001FBECFEFD8E0DEBFCDBF12E0A0E0B1E0A7
:100AD000E8EDF9E402C005900D92A030B107D9F716
:100AE00025E0A0E0B2E001C01D92AD34B207E1F70D
:100AF00015E0CEE5D5E004C02197FE010E94F82163
:100B0000CD35D107C9F70E948D190C94DF240C94C0
:100B100000004F925F926F927F929F92AF92BF922E
:100B2000CF92DF92EF92FF920F931F93CF93DF93B9
:100B3000CDB7DEB72F970FB6F894DEBF0FBECDBF8F
:100B40000091BB041091BC04D801DD968C91DD9717
:100B5000F80134967F01811106C081E0DD968C9307
:100B6000CF010E948D0EF801C680D78005A8F6A996
:100B7000E02D82E00995D801D596ED91FC91D697AC
:100B800081E0099520E030E044E1B601C7010E9410
:100B9000EB0D9801295C3F4F47E1B601C7010E9468
:100BA000EB0DD801D596ED91FC91D69780E0099593
:100BB000FE0131966F0108EE402E03E0502E612CAD
:100BC000712CE0912E028E2F90E08C30910508F070
:100BD000C4C4FC01EC5CFF4F0C94F8218091BB0471
:100BE0009091BC041DE5E12E11E0F12E04E128E610
:100BF00044E16AE004960E946614AFC48091050245
:100C000081111BC08091BB049091BC04A8EFEA2E17
:100C1000A0E0FA2E00E120E140E060E704960E94A7
:100C200066148091BB049091BC04B8EDEB2EB0E04B
:100C3000FB2E20E140E06FE524C0813049F4809133
:100C4000BB049091BC04F8EBEF2EF0E0FF2E15C032
:100C5000823049F48091BB049091BC04E8EFEE2E01
:100C6000E0E0FE2E0AC0833079F48091BB049091BD
:100C7000BC0478EDE72E70E0F72E00E120E140E0C3
:100C800060E704960E946614809136024AE0B6013D
:100C900090E00E940A24960148E26CE38091BB0434
:100CA0009091BC040E94521924E631E048E261E0D0
:100CB0008091BB049091BC040E9452198091010262
:100CC000813051F42AE631E045E061E08091BB04D7
:100CD0009091BC040E945219309156028091BB043D
:100CE0009091BC0420915702332329F0222341F034
:100CF0002FE631E007C0222319F023E731E002C0DC
:100D000027E731E048E361E00E94521930914B023D
:100D10008091BB049091BC0420914C02332329F0B4
:100D2000222341F02BE731E007C0222319F02FE7FF
:100D300031E002C023E831E048E36EE10E9452193D
:100D4000309140028091BB049091BC0420914102FB
:100D5000332329F0222341F027E831E007C0222382
:100D600019F02BE831E002C02FE831E048E36CE3F2
:100D70000E94521990910102913009F040C0809177
:100D80003602811104C081E08093340212C08130A8
:100D900029F480933402809300022DC0823061F4E4
:100DA00080913502823039F18650823060F710929E
:100DB0003402109200021FC0833029F48091350262
:100DC000833091F718C02CEF280F223058F423E914
:100DD00031E042E161E08091BB049091BC040E944B
:100DE0005219E5CF863029F4109234029093000214
:100DF00002C08730E1F28091360280933502209163
:100E000034028091BB049091BC04222319F020EAA3
:100E100031E002C02AEA31E042E161E00E94521969
:100E2000209100028091BB049091BC04222319F010
:100E300025EB31E002C02DEB31E042E161E40E949C
:100E4000521960912F02709130028091310290917D
:100E50003202A30192010E948624CA01B9018827A7
:100E600099272AE0A6010E94152426EC31E04BE1E7
:100E700061E08091BB049091BC040E9452199601DC
:100E80004BE164E18091BB049091BC040E94521933
:100E9000309133028091BB049091BC0420913402C4
:100EA000332329F0222341F029EC31E007C022232B
:100EB00019F02FEC31E002C026ED31E04BE16CE39C
:100EC0000E9452198091BB049091BC0400E120E87B
:100ED00040E160E004960E94F70E8091BB0490917F
:100EE000BC0406E320E846E360E004960E94F70EA7
:100EF0000E94620DA30192010E948624CA01B901D9
:100F00002AE0A6010E94152427EC31E048E266E4BD
:100F10008091BB049091BC040E945219960148E252
:100F20006BE48091BB049091BC040E94521915C3DC
:100F30002DE431E04EE163E24AC226E431E045E0CF
:100F400060E08091BB049091BC040E9424198091C0
:100F5000BB049091BC040EE020E84EE060E00496F3
:100F60000E94F70E80912D024AE0B60190E00E94A7
:100F70000A24960145E065E58091BB049091BC048C
:100F80000E94521980912D02813041F421E048E104
:100F900051E064E188E00E94CC170AC028E131E00A
:100FA00044E168E08091BB049091BC040E94241944
:100FB00080912D02823041F421E046E850E06EE15C
:100FC00088E00E94CC170AC026E830E04EE168E0D5
:100FD0008091BB049091BC040E94241980912D0241
:100FE000833041F421E040E451E068E288E00E946F
:100FF000CC170AC020E431E048E268E08091BB04ED
:101000009091BC040E94241980912D02843041F4F7
:1010100021E040E850E064E18CE30E94CC170AC074
:1010200020E830E044E16CE38091BB049091BC0483
:101030000E94241980912D02853041F421E04AE379
:1010400051E06EE18CE30E94CC170AC02AE331E044
:101050004EE16CE38091BB049091BC040E94241982
:1010600080912D02863029F421E042EB50E062E3CA
:10107000A8C122EB30E042E3A9C126E431E045E01B
:1010800060E08091BB049091BC040E94241928E187
:1010900031E045E062E38091BB049091BC040E9482
:1010A00024198091BB049091BC040EE020E84EE02E
:1010B00060E004960E94F70E2BE930E044E160E026
:1010C0008091BB049091BC040E9424192BE231E072
:1010D00043E268E08091BB049091BC040E94241913
:1010E000809104024AE0B60190E00E940A24109127
:1010F0002D028091BB049091BC04113021F5F601C2
:1011000001900020E9F73197EC19FD092E2F220FED
:101110002E0F220F2F5F0BE042E26BE104960E943C
:10112000700E8091BB049091BC04DC0194961C92DB
:10113000960143E26CE10E945219E091BB04F091E8
:10114000BC0414A305C0960143E26EE10E9452194B
:10115000909105029D7F2091BB043091BC049111B8
:1011600010C0C90104960E9420188091BB04909180
:10117000BC0406E026E045E266E604960E94700E96
:1011800004C0C90104960E94201880912D0282306B
:1011900041F421E042E950E063E284E30E94CC178D
:1011A00011C022E930E043E264E38091BB049091F6
:1011B000BC040E9424198091BB049091BC04049645
:1011C0000E94201880912D02833041F421E042EBEF
:1011D00050E062E388E00E94CC170AC022EB30E0C6
:1011E00042E368E08091BB049091BC040E94241902
:1011F00080912D02843041F421E04CE850E062E31C
:1012000084E60E94CC17A9C12CE830E042E364E6F2
:10121000DEC026E431E045E060E08091BB049091BF
:10122000BC040E9424192AE331E045E062E3809186
:10123000BB049091BC040E9424198091BB0490913E
:10124000BC040EE020E84EE060E004960E94F70E39
:1012500020E331E044E168E08091BB049091BC045C
:101260000E9424192BE231E044E162E38091BB0447
:101270009091BC040E9424194AE0B6018091590261
:1012800090915A020E940A24960144E160E58091FF
:10129000BB049091BC040E94521920E231E04EE15F
:1012A00068E08091BB049091BC040E9424192BE259
:1012B00031E04EE16AE38091BB049091BC040E944E
:1012C00024194AE0B60180E090E00E940A249601C9
:1012D0004EE160E58091BB049091BC040E945219DC
:1012E00028E131E048E268E08091BB049091BC04C1
:1012F0000E9424192BE231E048E260E38091BB04B4
:101300009091BC040E942419809106024AE0B60123
:1013100090E00E940A24960148E260E58091BB04B7
:101320009091BC040E9452198091050281111AC04B
:101330008091BB049091BC0458EFE52E50E0F52E4F
:1013400000E120E144E16CE604960E94661480917D
:10135000BB049091BC0468EDE62E60E0F62E20E11F
:1013600048E223C0813049F48091BB049091BC04D1
:1013700048EBE42E40E0F42E15C0823049F4809111
:10138000BB049091BC0438EFE32E30E0F32E0AC08A
:10139000833079F48091BB049091BC0428EDE22E57
:1013A00020E0F22E00E120E144E16CE604960E9488
:1013B000661480912D02813031F421E042EB50E03F
:1013C00065E388E01ECF22EB30E045E368E08091E2
:1013D000BB049091BC040E942419BFC026E431E0F4
:1013E00045E060E08091BB049091BC040E94241908
:1013F00020E431E045E062E38091BB049091BC04BD
:101400000E9424198091BB049091BC040EE020E856
:101410004EE060E004960E94F70E20EC32E044E1DA
:1014200060E08091BB049091BC040E9424192DEAD5
:1014300032E04EE160E08091BB049091BC040E94D8
:1014400024192AE932E048E260E08091BB049091DF
:10145000BC040E94241927E832E042E360E0809156
:10146000BB049091BC040E94241910910302812FA7
:10147000880F180F110FE0900202EE0C4E2D440F52
:10148000440FE40EF12CA7014C5E5F4FA12EB12C4E
:10149000B6E0AB0EB11C4AC026E431E045E060E0A6
:1014A0008091BB049091BC040E94241920E431E097
:1014B00045E062E38091BB049091BC040E94241932
:1014C0008091BB049091BC040EE020E84EE060E007
:1014D00004960E94F70E24E732E044E160E0809138
:1014E000BB049091BC040E94241921E632E04EE135
:1014F00060E08091BB049091BC040E94241980910B
:101500000302982F990F890F182F110FE0900202F4
:10151000EE0C4E2D440F440FE40EF12CA7014C5E4F
:101520005F4FA12EB12CE6E0AE0EB11C8091BB0442
:101530009091BC04042F2A2D612F04960E94F70E6F
:10154000A701435E5F4F8091BB049091BC04042FC0
:101550002A2D612F04960E94F70E0091BB04109172
:10156000BC047801F4E0EF0EF11CD8015296ED9125
:10157000FC915397309711F0C7010995F801A680A7
:10158000B78005A8F6A9E02D82E00995D801D59687
:10159000ED91FC91D69781E0099520E030E045E19E
:1015A000B501C7010E94EB0D982E882341F09801E8
:1015B000295C3F4F47E1B501C7010E94EB0DD801FF
:1015C000D596ED91FC91D69780E009959110F9CAD6
:1015D0002F960FB6F894DEBF0FBECDBFDF91CF912F
:1015E0001F910F91FF90EF90DF90CF90BF90AF9041
:1015F0009F907F906F905F904F900895FC01918D28
:10160000828D981761F0828DDF01A80FB11D5D9664
:101610008C91928D9F5F9F73928F90E008958FEFD2
:101620009FEF0895FC01918D828D981731F0828D86
:10163000E80FF11D858D90E008958FEF9FEF0895DD
:10164000FC01918D228D892F90E0805C9F4F821B41
:1016500091098F739927089588E094E00E94200BE8
:1016600021E0892B09F420E0822F0895FC01848D6C
:10167000DF01A80FB11DA35ABF4F2C91848D90E0BC
:1016800001968F739927848FA689B7892C93A08997
:10169000B1898C9180648C93938D848D981306C04E
:1016A0000288F389E02D80818F7D80830895EF92F9
:1016B000FF920F931F93CF93DF93EC0181E0888F0C
:1016C0009B8D8C8D981305C0E889F989808185FDF3
:1016D00024C0F62E0B8D10E00F5F1F4F0F731127E4
:1016E000E02E8C8DE8120CC00FB607FCFACFE8890B
:1016F000F989808185FFF5CFCE010E94360BF1CFAD
:101700008B8DFE01E80FF11DE35AFF4FF0820B8F26
:10171000EA89FB898081806207C0EE89FF89608346
:10172000E889F98980818064808381E090E0DF919D
:10173000CF911F910F91FF90EF900895CF93DF937A
:10174000EC01888D8823C9F0EA89FB89808185FDB9
:1017500005C0A889B9898C9186FD0FC00FB607FC1A
:10176000F5CF808185FFF2CFA889B9898C9185FF5B
:10177000EDCFCE010E94360BE7CFDF91CF910895D8
:1017800080E090E0892B29F00E942C0B81110C94B1
:1017900000000895833081F028F4813099F0823080
:1017A000A1F008958730A9F08830B9F08430D1F4E1
:1017B000809180008F7D03C0809180008F7780931F
:1017C0008000089584B58F7702C084B58F7D84BD75
:1017D00008958091B0008F7703C08091B0008F7D15
:1017E0008093B00008953FB7F89480918903909159
:1017F0008A03A0918B03B0918C0326B5A89B05C0EA
:101800002F3F19F00196A11DB11D3FBFBA2FA92F7F
:10181000982F8827820F911DA11DB11DBC01CD01FC
:1018200042E0660F771F881F991F4A95D1F70895E8
:101830000895DC011696ED91FC91179712968C9104
:10184000481B477081E090E001C0880F4A95EAF795
:10185000E60FF11D3081222311F0832B02C0809509
:10186000832380830895FC01808D8F5F089580E03D
:1018700008950E94F5231F920F920FB60F92112424
:101880002F933F934F935F936F937F938F939F9388
:10189000AF93BF93EF93FF9388E094E00E94360BE1
:1018A000FF91EF91BF91AF919F918F917F916F9138
:1018B0005F914F913F912F910F900FBE0F901F900E
:1018C00018951F920F920FB60F9211242F938F939A
:1018D0009F93EF93FF93E0911804F0911904808196
:1018E000E0911E04F0911F0482FD12C0908180914E
:1018F00021048F5F8F7320912204821751F0E091B1
:101900002104F0E0E85FFB4F958F8093210401C034
:101910008081FF91EF919F918F912F910F900FBE3A
:101920000F901F901895CF93DF93282F30E0F90187
:10193000E951FD4F8491F901E55AFC4FD491F90129
:10194000E95BFC4FC491CC2391F081110E94CA0B3A
:10195000EC2FF0E0EE0FFF1FE35CFC4FA591B4917C
:10196000EC91ED2381E090E021F480E002C080E082
:1019700090E0DF91CF9108951F93CF93DF93282FAD
:1019800030E0F901E951FD4F8491F901E55AFC4F2E
:10199000D491F901E95BFC4FC491CC23C9F0162F17
:1019A00081110E94CA0BEC2FF0E0EE0FFF1FE352F3
:1019B000FD4FA591B4918FB7F894111105C09C917A
:1019C000ED2FE095E92302C0EC91ED2BEC938FBF56
:1019D000DF91CF911F910895CF93DF9390E0FC01A9
:1019E000E55AFC4F2491FC01E95BFC4F849188236C
:1019F00061F190E0880F991FFC01ED52FD4FC591F8
:101A0000D491FC01E352FD4FA591B491611109C03D
:101A10009FB7F8948881209582238883EC912E23A8
:101A20000BC0623061F49FB7F8943881822F8095A3
:101A300083238883EC912E2B2C939FBF06C08FB7F6
:101A4000F894E8812E2B28838FBFDF91CF910895E2
:101A50008F929F92AF92BF92CF92DF92EF92FF92BE
:101A60006B017C010E94F30B4B015C01C114D1049A
:101A7000E104F104F1F00E94F30BDC01CB018819C1
:101A80009909AA09BB09883E9340A105B10570F3E5
:101A900021E0C21AD108E108F10888EE880E83E03F
:101AA000981EA11CB11CC114D104E104F10419F762
:101AB000DDCFFF90EF90DF90CF90BF90AF909F90E1
:101AC0008F9008952FB7F8946091850370918603E5
:101AD00080918703909188032FBF08951F920F92E2
:101AE0000FB60F9211242F933F938F939F93AF9331
:101AF000BF938091850390918603A0918703B09155
:101B000088033091840323E0230F2D3720F40196BE
:101B1000A11DB11D05C026E8230F0296A11DB11D10
:101B2000209384038093850390938603A093870377
:101B3000B09388038091890390918A03A0918B03CD
:101B4000B0918C030196A11DB11D809389039093E0
:101B50008A03A0938B03B0938C03BF91AF919F91A5
:101B60008F913F912F910F900FBE0F901F9018955E
:101B7000FB014181DC0112962C911297421768F00B
:101B800013962C911397241740F0608115962C9191
:101B9000621718F424810C94190C0895FC018081BB
:101BA0009281980F92832181921760F494819F5FB4
:101BB00094839381890F821710F08FEF820F8383B4
:101BC00081E0089580E00895FC01128280818150B7
:101BD000838314820895DB01ED91FC9109948F9227
:101BE0009F92BF92CF92DF92EF92FF920F931F933B
:101BF000CF93DF931F92CDB7DEB74C01062FF42EA3
:101C0000122F522FE62EE20EBB24BA946C018CE107
:101C1000C80ED11C8E2D851B583080F0F4016281D6
:101C20007381848FF58E178EB68E96014BE3C401B7
:101C300059830E94EB0D59815850ECCF812F887F3A
:101C4000080F212F277021F187E02827F4016281F6
:101C50007381048FF58E178E2F5F27708FEF90E0C2
:101C600001C0880F2A95EAF7868F9401245E3F4FC2
:101C70004BE3C4010F90DF91CF911F910F91FF9023
:101C8000EF90DF90CF90BF909F908F900C94EB0DD2
:101C90000F90DF91CF911F910F91FF90EF90DF9008
:101CA000CF90BF909F908F900895EF92FF920F93E7
:101CB0001F93CF93DF937C01D62F122FC42F040FD5
:101CC000212F4C2F6D2FC7010E94EF0DCF5F0C13FA
:101CD000F7CFDF91CF911F910F91FF90EF90089573
:101CE000DF92EF92FF920F931F93CF93DF93EC015C
:101CF000162FF42EE22E0E94DD13882331F02E2DB4
:101D00004F2D612FCE010E94550EDF91CF911F9173
:101D10000F91FF90EF90DF900895EF92FF920F9355
:101D20001F93CF93DF931F92CDB7DEB78C01DC01F9
:101D30001296ED90FC901397D196ED91FC91D2976D
:101D400082E0099520E030E04AE0B701C8010E9436
:101D5000EB0DF82ED801D196ED91FC91D29783E04E
:101D60000995D801D196ED91FC91D29780E0099523
:101D7000FF20A1F1F801628173819E012F5F3F4F27
:101D800046E4C8010E94EB0D8981D8018C9312961C
:101D90006D917C9113979E012F5F3F4F47E4C801DF
:101DA0000E94EB0D8981F80181836281738120E0BB
:101DB00030E048E4C8010E94EB0DD8011B968C93DB
:101DC0001B9798012D5C3F4F12966D917C91139754
:101DD00047E1C8010E94EB0D81E001C080E00F9057
:101DE000DF91CF911F910F91FF90EF9008958F9207
:101DF0009F92AF92BF92CF92DF92EF92FF920F939A
:101E00001F93CF93DF936C01C62F142FD22F261769
:101E100018F4F62EF21A02C0F22EF61A011770F418
:101E2000E12EE01AFE14F0F48F2DFE2CE82E812F07
:101E30001D2FD82F8C2FC02F082F0DC0E02EE11A98
:101E4000FE14C8F58F2DFE2CE82E8D2FD02F082FD5
:101E50008C2FC12F182FAA24A394BF2CB69410172F
:101E600050F032C0DC1790F5BF2CB694102F8C2F99
:101E7000CD2FD82FA12C01E0DF3F09F4DEEFC60102
:101E80004C964C01DC1720F1F60162817381A110A0
:101E900003C0C48F158F03C0F601148FC58F940142
:101EA00042E3C6010E94EB0DBE18B7FE02C0100F40
:101EB000BF0CCF5FE7CFDC1748F4BF2CB694102FD0
:101EC0008C2FCD2FD82FA12C0FEFD6CFA12CC5CF83
:101ED000DF91CF911F910F91FF90EF90DF90CF9006
:101EE000BF90AF909F908F900895DC0114962D9134
:101EF0003C9115972115310509F43FC057968C91F7
:101F00005797F901811108C03596E4915896EC93E2
:101F10005897F9013C9611C0813041F43F96E49105
:101F20005896EC935897F901709607C03D96E49146
:101F30005896EC935897F9013E96E4915996EC9394
:101F4000599758968C915897082E000C990B5996D2
:101F50002C915997821B910927FD93955A962C91A4
:101F60005A97203441F0829FC001112426E09695B3
:101F700087952A95E1F75B968C9308952F923F926F
:101F80005F926F927F928F929F92AF92BF92CF9209
:101F9000DF92EF92FF920F931F93CF93DF931F92E5
:101FA000CDB7DEB71C01C62E142FD22EDC0114963D
:101FB000ED90FC901597C7010E940313082FF101C3
:101FC000848195810E940613982E013019F48FE0C8
:101FD000A82E02C0AA24AA94D10114968D919C9196
:101FE00015970E94F912082FF101848195810E94B2
:101FF000F512B82ED10114968D919C9115970E94DF
:10200000FD12B0E6BD1530F4009721F0E80EF91E80
:1020100001E611C0F101848195810E940013F0E472
:10202000FD1530F4009721F0E80EF91E01E403C01D
:1020300021E1E20EF11CBD1480F4D10150961C92F6
:10204000509753961C92539754961C9254975196BE
:102050001C92519752961C92C7C0B01670F3892DEE
:1020600090E0F70124912F3F21F4FFEFEF1AFF0AD0
:102070005AC00D114FC0D10114968D919C911597A6
:102080000E94031397012F5F3F4FF701882311F040
:102090008230E1F48491D10153968C935397F901E6
:1020A000249154962C935497F7013396E4915096CB
:1020B000EC935097F7013496E4915196EC93519735
:1020C000F7013596E4915296EC9320C08491982FB5
:1020D0009F709250D10152969C93529782958F7027
:1020E00051968C935197F9012491822F8F705496B9
:1020F0008C93549722952F7053962C935397F701F6
:102100003296E491E295EF705096EC93E114F1046D
:1021100079F46AC0F7013296E491EA219C012E0F0E
:10212000311DE20EF31E0B1509F487CF0F5F99CF17
:10213000F101848195810E940613B82ED101539636
:102140009C9053975496DC90549751968C9151974C
:10215000C80E52969C919D0D512E591A0D2D292D68
:10216000452D6C2DC1010E94DD138823D1F1C701DB
:102170008B0D911D5C0187E0890DF82EF694F69485
:10218000F694D50C41019CE1890E911C6F2C712CA9
:102190005D1439F15C2D8501802F8A198F15E8F4C3
:1021A000F8018491D10112966D917C9113975C9600
:1021B0005C935C975D965C925D975F961C925F97CF
:1021C0005E968C9394014BE3C10159830E94EB0D01
:1021D0000F5F1F4F5981585FDFCFA60CB71C539478
:1021E000D7CFF101808901C080E00F90DF91CF91BE
:1021F0001F910F91FF90EF90DF90CF90BF90AF9025
:102200009F908F907F906F905F903F902F90089558
:10221000FC01E60FF11D849190E0982F88273196FC
:10222000E4918E0F911D08952EE93FE0009729F06B
:10223000F9013197F1F70197F9CF089510928E03C4
:1022400010928D030895809307041092B90084FFC3
:1022500002C08CE001C088E48093B8000C941E1189
:10226000DB011496ED91FC91159720E030E065E0DC
:102270000994CF92DF92EF92FF920F931F93CF9327
:10228000DF938C017B016A0180E0F601C49181112A
:102290000BC0CF3F09F457C04C2FB701C8010E94B3
:1022A000301181114EC054C0CF3F11F44FEFF5CF24
:1022B000CE3F09F44FC0C03F08F043C0C03E58F0C5
:1022C0004C2F4F70D7011496ED91FC91159720E09B
:1022D00030E062E00CC0C03D68F04C2F4F70D70179
:1022E0001496ED91FC91159720E030E063E0C80171
:1022F000099527C0C03CF8F0D7011496ED91FC91E8
:10230000159720E030E040E064E0C8010995C295EF
:10231000C07FCE5FD0E0CE010E941411D701149689
:10232000ED91FC91159720E030E041E064E0C801B8
:102330000995CE0104C0C7FD04C08C2F90E00E9417
:10234000141180E001C081E0BFEFCB1ADB0A9DCF02
:1023500080E001C081E0DF91CF911F910F91FF904C
:10236000EF90DF90CF9008958F929F92AF92BF929F
:10237000CF92DF92FF920F931F93CF93DF9300D002
:10238000CDB7DEB76C018B01F42E490120E1421775
:1023900009F456C02417A0F03AE043135BC0DB01F8
:1023A0001496ED91FC91159720E030E042E061E059
:1023B000099547E153E0B801C6010E9439114AC0AE
:1023C00081E1481709F43FC0A5E14A1343C0FB016E
:1023D000A280B3804FE053E0C6010E943911D501BD
:1023E00014964C91406BB801C6010E943011D8017F
:1023F0001496ED91FC91159720E030E041E062E009
:10240000C6010995F50126813781D8011496ED9111
:10241000FC911597D50115964C9166E0C60109957A
:10242000811102C080E0D3C0D8011496ED91FC91D7
:10243000159720E030E040E063E0C60109950AC04E
:1024400046E053E002C04BEF52E0B801C6010E94E3
:102450003911BCC0F80102811381F2E3FF1609F4BF
:1024600079C0FF15B8F025E1F21609F480C037E114
:10247000F31609F492C084E1F812A8C0D8011696A8
:10248000ED91FC91179715968C919F01280F311DA6
:10249000C90165C0A6E4FA1609F48FC0B7E4FB16BB
:1024A00009F48FC0EBE3FE1291C0D40111968C9118
:1024B000119713969C91913029F0933031F4482F65
:1024C000885004C048E0480F01C0482F21E0F801BF
:1024D0003381381708F420E031E0D80112965C917E
:1024E000451708F430E051E0481708F050E0822F1B
:1024F000852B382319F4252309F468C0F401F280F0
:10250000913051F030F0923049F0933051F42FEF88
:1025100009C020E031E007C021E004C020E03FEF27
:1025200002C020E030E0F7FE08C0B401C8012A83F1
:1025300039830E94B80D39812A81D4018C91830F8F
:102540008C9311968C911197820F11968C93FF0C9E
:1025500051F73CC0B401C8010E94B80D37C01192B8
:10256000E817F907E1F7C8010E94E40D2FC0C80180
:102570000E94CE0D882309F455CFD8011696ED910F
:10258000FC91179715968C919F01280F311DC90159
:102590001192E817F907E1F719C0D4011C92F8016C
:1025A000828111968C9311978581815012968C931C
:1025B0001297838113968C9309C0D80115968C913C
:1025C00003C0D80111968C91F401808381E00F90B3
:1025D0000F90DF91CF911F910F91FF90DF90CF90DF
:1025E000BF90AF909F908F9008950B96FC018491BF
:1025F00008950A96FC018491089568E00C940811EE
:1026000066E00C940811FC01849108950E94031364
:10261000882321F0823011F083E0089586E0089548
:1026200090918E03911104C080938E0360938D036B
:1026300008951F93CF93DF9300D0CDB7DEB720ED81
:1026400037E03A8329839091BC00982399F429813B
:102650003A81232B51F480910704182F127081FDC9
:1026600009C081E00E94101306C029813A812150DF
:102670003109E7CF11E0812F0F900F90DF91CF91BB
:102680001F91089584E98093BC0064E080E10C947C
:102690001913CF938093BB0084E88093BC0063E060
:1026A00080E80E941913C82F882389F080910704BD
:1026B000C82FC27081FD0AC08091B900887F88321E
:1026C00029F063E082E00E94101301C0C1E08C2F6A
:1026D000CF910895CF93DF93FC0123A5222379F0B6
:1026E000EC010E944718811102C080E009C08EA150
:1026F000811180E40E9449138823B9F31BA681E06D
:10270000DF91CF9108950F931F93CF93C42F890129
:102710006330C1F050F4613081F0623009F048C09C
:10272000FC0146A321E023A743C0663011F16730C6
:1027300079F1653009F03CC00EC0FC0186A50E940D
:10274000231136C0FC0116A221E023A7411130C09D
:102750000E9442132DC00E946A13811104C00E947E
:10276000421380E026C08C2F0E944913811120C0A3
:10277000F6CF0E946A13882391F3CC23C9F0F801A5
:1027800081918F010E944913882349F3C150F5CFED
:102790000E946A13882319F3CC2351F0F801849125
:1027A0000E944913882329F00F5F1F4FC150F4CFB7
:1027B00081E0CF911F910F9108950F93FC0101507B
:1027C000040F84A996A9941718F0081728F402C0DA
:1027D000081750F0041740F42150260F83A995A93B
:1027E000961720F4281720F480E007C0281720F45B
:1027F00081E0261710F0F8CF81E00F91089585ED64
:102800008093BC008091BC0084FDFCCF1092D80363
:1028100008954091B203262F30E0240F311D21325C
:102820003105DCF42091D8032430C9F4FC0180E0A8
:1028300090E0861758F43091B2032191DC01A05743
:10284000BC4FA30FB11D2C930196F3CF8091B2031F
:10285000680F6093B20380E0089581E0089582E0FC
:10286000089508958FEF9FEF08958FEF9FEF0895DC
:1028700080918F0390E09195819591090895CF9370
:10288000DF9300D0CDB7DEB7CB01642F49835A83E5
:102890000E9409144981842F5A81952F0F900F901F
:1028A000DF91CF910895CF93DF931F92CDB7DEB71D
:1028B000698361E0CE0101960E94091481E090E0F5
:1028C0000F90DF91CF9108950C9493222F923F9215
:1028D0004F925F926F927F928F929F92AF92BF9230
:1028E000CF92DF92EF92FF920F931F93CF93DF93DC
:1028F00000D01F92CDB7DEB79B838A83B62E542EAD
:10290000122FA02E0E94DD13882309F45FC087E0F8
:10291000810FC82EC694C694C694D12C252C2A0C9F
:1029200087E0482E4B0C812F869586958695682EDC
:10293000712C0B2D98E0899F000D1124342C310E41
:102940008A809B80ECE18E0E911C1770521409F462
:102950003DC05701542D832D851B8830B8F0F501FB
:102960008491EA81FB8162817381548F558E92E05C
:10297000978F868F94014BE3CF0159830E94EB0D13
:10298000EFEFAE1ABE0A5981585FE5CFF701E60DA9
:10299000F71DA12E1123B1F0B490502FB0FE0DC041
:1029A000EA81FB8162817381548F558E940142E3E9
:1029B000CF0159830E94EB0D59815F5FAA94B694B1
:1029C000A110ECCFEC0CFD1C5394C0CF0F900F90D6
:1029D0000F90DF91CF911F910F91FF90EF90DF90BB
:1029E000CF90BF90AF909F908F907F906F905F90AF
:1029F0004F903F902F9008951F920F920FB60F9215
:102A000011242F933F934F935F936F937F938F93F3
:102A10009F93AF93BF93EF93FF93809105049091A1
:102A200006048093B2008091010490910204A09169
:102A30000304B09104040196A11DB11D809301040B
:102A400090930204A0930304B093040480910104C2
:102A500090910204A0910304B091040480910004B9
:102A600081111AC081E0809300048091010490914B
:102A70000204A0910304B091040480930104909394
:102A80000204A0930304B0930404E091FE03F091C8
:102A9000FF03099510920004FF91EF91BF91AF9150
:102AA0009F918F917F916F915F914F913F912F9166
:102AB0000F900FBE0F901F90189508951F920F92C0
:102AC0000FB60F9211242F933F934F935F936F9301
:102AD0007F938F939F93AF93BF93EF93FF938091D7
:102AE000B900887F803609F49CC068F5883209F403
:102AF0005BC090F4803109F454C038F4882309F4A1
:102B0000F6C0883009F44DC0F6C0883109F44CC0D5
:102B1000803209F45DC0EFC0803409F468C048F425
:102B2000803309F455C0883309F0E5C08093D7039A
:102B3000D8C0803509F44FC0883509F45DC08834A9
:102B400009F0D9C0D6C0883909F4C7C0A8F48837BD
:102B500009F467C038F4883609F463C0803709F493
:102B600060C0C9C0883809F4B8C0803909F45FC0B2
:102B7000803809F0C0C05BC0803B09F486C038F4DF
:102B8000803A09F466C0883A09F47FC0B4C0803C3A
:102B900009F4A7C0883C09F4A4C0883B09F48AC0A2
:102BA000AAC08091FD0310C09091FC038091FB03AB
:102BB000981770F5E091FC0381E08E0F8093FC0381
:102BC000F0E0E552FC4F80818093BB0085EC86C02D
:102BD0008093D7038EC0E091FC0381E08E0F809339
:102BE000FC038091BB00F0E0E552FC4F80839091A4
:102BF000FC038091FB036EC0E091FC0381E08E0F2B
:102C00008093FC038091BB00F0E0E552FC4F808391
:102C10008091DA0381116DC081E08093D90384EA49
:102C200061C083E08093D8031092D603CFCF809108
:102C3000D603803208F051C0E091D60381E08E0FB8
:102C40008093D6038091BB00F0E0EA54FC4F808370
:102C5000BDCF85EC8093BC001092D8038091D60341
:102C6000803230F4E091D603F0E0EA54FC4F108259
:102C70006091D60370E0E091B403F091B50386EB68
:102C800093E009951092D60336C084E08093D80370
:102C90001092B3031092B203E091B003F091B1032C
:102CA00009958091B203811105C081E08093B20340
:102CB00010929003E091B30381E08E0F8093B303F1
:102CC000F0E0E057FC4F80818093BB009091B3030C
:102CD0008091B203981708F479CF85E88093BC00FF
:102CE0000AC085EC8093BC001092D80304C01092F7
:102CF000D7030E94FF13FF91EF91BF91AF919F9176
:102D00008F917F916F915F914F913F912F910F9094
:102D10000FBE0F901F901895EF92FF920F931F9385
:102D2000CF93DF938B01045F1F4FEB017C01E61A09
:102D3000F70AC7018C0F9D1F0E9470248993C0174A
:102D4000D107B9F78CE090E0DF91CF911F910F91FF
:102D5000FF90EF9008950F931F93CF93DF93EC01B3
:102D600088810E94930C298530E08217930779F0BF
:102D70000E94620D6D837E838F83988788810E9475
:102D8000930C21E0892B09F420E029871A860E9400
:102D9000620D0D811E812F813885DC01CB01801BE6
:102DA000910BA20BB30B09811A812B813C818017F7
:102DB0009107A207B30710F081E08A87DF91CF91D6
:102DC0001F910F9108959C0180915802853069F4FC
:102DD00090912D02492F50E04217530714F49F5F42
:102DE0000BC081E080932D020895843051F49091BE
:102DF0002D02923020F0915090932D02089520934F
:102E00002D020895CF92DF92EF92FF920F931F93BE
:102E1000CF93DF936C017A018B01C0E0D0E0CE1537
:102E2000DF0589F0D8016D918D01D601ED91FC91FE
:102E30000190F081E02DC6010995892B11F47E01E6
:102E400002C02196ECCFC701DF91CF911F910F9166
:102E5000FF90EF90DF90CF900895EF92FF920F9345
:102E60001F93CF93DF93EC01E62E6A817B818C0167
:102E7000045E1F4FEC8E83E28D8FFF24F394FF8E50
:102E80008FEF8E8F98014BE3CE010E94EB0D6A818C
:102E90007B81EC8E8BE28D8FFF8E80EC8E8F980184
:102EA0004BE3CE01DF91CF911F910F91FF90EF90F7
:102EB0000C94EB0DCF92DF92EF92FF926B017C01AD
:102EC000E0911804F091190482E08083C11481EE2E
:102ED000D806E104F104B1F060E079E08DE390E020
:102EE000A70196010E948624DA01C9010197A10970
:102EF000B109B695A795979587959C01211580E115
:102F00003807B8F0E0911804F0911904108260E8D5
:102F100074E88EE190E0A70196010E948624DA0110
:102F2000C9010197A109B109B695A795979587950C
:102F30009C01E0911404F09115043083E091160493
:102F4000F0911704208310922004E0911C04F0916A
:102F50001D0486E08083E0911A04F0911B048081B7
:102F600080618083E0911A04F0911B048081886065
:102F70008083E0911A04F0911B0480818068808333
:102F8000E0911A04F0911B0480818F7D8083FF9073
:102F9000EF90DF90CF900895EF92FF920F93CF9331
:102FA000DF93352F222309F43DC0E42FF52F9E2F08
:102FB000941B2491222311F03196F9CF7F01E91A55
:102FC000F108823018F0CEEFC80F01C0C0E0D62F54
:102FD000292F220F920F990F21E0290F4FEF460F53
:102FE0006FEF6C0FE091BB04F091BC040BE0CF01DC
:102FF00004960E94700E8091BB049091BC04FC0169
:1030000014A297014D2F6C2F0E942419E091BB044C
:10301000F091BC0481E084A3DF91CF910F91FF90E8
:10302000EF900895242F462F682F8091BB04909134
:10303000BC04DF91CF910F91FF90EF900C94241975
:103040000F93CF93DF93EC010AE02AE043E264E6BA
:103050000E94DD138823B9F02AE043E264E6CE0142
:103060000E94EF0D64E6CE010E942D176DE6CE01A1
:103070000E942D172AE04CE264E6CE01DF91CF9149
:103080000F910C94EF0DDF91CF910F910895CF9395
:1030900084EA8093BC0061E080E80E9419138823D1
:1030A00059F08091B900887F883041F0803131F04B
:1030B00061E082E00E941013C0E01DC088E78093A9
:1030C000BB0084E88093BC0062E080E80E94191392
:1030D000882391F380910704C82FC27081FD0AC034
:1030E0008091B900887F883129F062E082E00E94F7
:1030F000101301C0C1E08C2FCF910895EF92FF9281
:103100000F931F93CF93DF93EC017B018A0188819A
:103110009981009729F02A813B8124173507F8F41B
:10312000B8016F5F7F4F0E942B23009759F099835E
:1031300088831B830A832C813D81232B81F4FC012E
:1031400010820DC088819981009711F00E9493220E
:10315000198218821D821C821B821A8207C01D835D
:103160000C83B701888199810E940324CE01DF91ED
:10317000CF911F910F91FF90EF9008956115710508
:1031800079F0FB0101900020E9F73197AF01461B70
:10319000570BDC01ED91FC910280F381E02D099445
:1031A00080E090E00895CF92DF92EF92FF920F932C
:1031B0001F93CF93DF931F92CDB7DEB76C01DC0175
:1031C000DC961C91DC97DB960C917C01B4E0EB0E55
:1031D000F11CDC015996ED91FC915A97C701698366
:1031E0000995482F410F2981602FC7010E94BE0F0A
:1031F000F60123AD082E000C990B820F911D83AFB1
:1032000081E090E00F90DF91CF911F910F91FF909F
:10321000EF90DF90CF9008950F931F93CF93DF939C
:1032200005E012E0C0E0D2E0F80161918F01CE012B
:103230000E9478242196C832F2E0DF07A9F7DF91D7
:10324000CF911F910F910895CF92DF92FF920F932C
:103250001F93CF93DF93D62FF42E89016C0124E0C6
:10326000C20ED11CDC015996ED91FC915A97C60112
:103270000995F80EC0E0F8012491222351F04F2D5A
:103280006D2FC6010E94BE0FD80FC80F0F5F1F4FD2
:10329000F2CF8C2FDF91CF911F910F91FF90DF9094
:1032A000CF900895AF92BF92CF92DF92FF920F938B
:1032B0001F93CF93DF9300D0CDB7DEB7F62E042F48
:1032C0006C0144E0C40ED11CDC015996ED91FC91D7
:1032D0005A97C60129833A830995080F2981A22E9E
:1032E0003A81B32E10E0F50121915F01222341F0D4
:1032F000402F6F2DC6010E94BE0FF80E180FF3CF9E
:10330000812F0F900F90DF91CF911F910F91FF9020
:10331000DF90CF90BF90AF900895CF93DF93CDB75C
:10332000DEB7A1970FB6F894DEBF0FBECDBF78947D
:1033300084B5826084BD84B5816084BD85B58260BA
:1033400085BD85B5816085BD80916E00816080936B
:103350006E001092810080918100826080938100D4
:1033600080918100816080938100809180008160E4
:10337000809380008091B10084608093B10080913F
:10338000B00081608093B00080917A008460809367
:103390007A0080917A00826080937A0080917A002E
:1033A000816080937A0080917A00806880937A00AF
:1033B0001092C100109278031092790310927A0350
:1033C00010927B0310924603109247031092480319
:1033D0001092490360ED77E080E090E00E94280DB4
:1033E00088E094E0909377038093760360E07BE439
:1033F00080E090E00E945A170E94620D00914603FF
:10340000109147032091480330914903DC01CB011F
:10341000801B910BA20BB30BC297A105B10538F429
:1034200063E070E080E090E00E94280DE5CF0E940C
:10343000620D609346037093470380934803909313
:1034400049036BED71E080917603909177030E94C0
:10345000BE186AE070E080E090E00E94280D61E014
:1034600083E00E94EC0C60E088E00E94EC0C88E0B5
:1034700080934D0280EA9FE0A0E0B0E080934E028E
:1034800090934F02A0935002B093510210925202B7
:1034900010925302109254021092550288E00E943A
:1034A000930C21E0892B09F420E02093560210921E
:1034B000570260E086E00E94EC0C86E080933702C1
:1034C00080EA9FE0A0E0B0E0809338029093390258
:1034D000A0933A02B0933B0210923C0210923D023C
:1034E00010923E0210923F0286E00E94930C21E06F
:1034F000892B09F420E0209340021092410260E001
:1035000087E00E94EC0C87E08093420280EA9FE013
:10351000A0E0B0E08093430290934402A093450260
:10352000B09346021092470210924802109249024C
:1035300010924A0287E00E94930C21E0892B09F443
:1035400020E020934B0210924C0280E69AEEA0E01D
:10355000B0E080933C0390933D03A0933E03B0936F
:103560003F0380EC94EDA1E0B0E0809338039093AA
:103570003903A0933A03B0933B0381E080930102A7
:10358000109234028093440310924003109241033E
:10359000109242031092430310922F0210923002B5
:1035A0001092310210923202109200021092970291
:1035B000109298021092990210929A0261E082E0B1
:1035C0000E94BC0C64E670E080E090E00E94280D50
:1035D00061E082E00E94EC0C65E0E62E62E0F62EEF
:1035E00000E012E0C8010E947024F70181937F017E
:1035F0000F5F1F4F0832F2E01F07A1F7809105020D
:1036000090E090939602809395021092B40268EA3B
:1036100072E080E090E00E948C1610922E026AE028
:1036200070E080E090E00E94280D0E94890568EE1D
:1036300073E080E090E00E94280D81E080932E02EC
:1036400080932D0281E090E090935A02809359027A
:1036500082E090E090935C0280935B028FE190E0C7
:1036600090935E0280935D0284E690E09093600206
:1036700080935F0288EC90E09093620280936102F5
:103680008CE291E0909364028093630280E991E080
:10369000909366028093650224EF31E030936802D4
:1036A0002093670248E552E050936A024093690212
:1036B0006CEB72E070936C0260936B02E0E2F3E0FB
:1036C000F0936E02E0936D02A4E8B3E0B093700251
:1036D000A0936F0208EE13E0109372020093710240
:1036E000B0937402A0937302F0937602E093750294
:1036F000709378026093770250937A024093790234
:1037000030937C0220937B0290937E0280937D0213
:1037100080E390E09093800280937F021092820277
:1037200010928102109284021092830210928602FB
:1037300010928502BE016F5F7F4F80E090E00E9493
:103740008C1689819A8190938802809387028B815D
:103750009C8190938A02809389028D819E819093AF
:103760008C0280938B028F81988590938E02809338
:103770008D0289859A859093900280938F028B8524
:103780009C859093920280939102109294021092E1
:10379000930260E07BE480E090E00E945A1761E0D1
:1037A00084E00E94EC0C60E084E00E94BC0C61E0CC
:1037B00083E00E94EC0C60E080E00E94EC0C8091C1
:1037C000B8008CE08093B8003AE0832E912CA12CB5
:1037D000B12C44E6E42EF12C5FE1252E312C0E9421
:1037E000620D672B682B692B09F0B9C30E94620D2B
:1037F000623071058105910508F0B1C347C00E9490
:10380000620D60934603709347038093480390933F
:1038100049036DEE71E080917603909177030E94E9
:10382000BE1865EF71E080917603909177030E9456
:10383000BE180E94620D9B01AC01C0907603D0902F
:10384000770319A28E010F5D1F4FCA01B901A501AF
:1038500094010E948624605DF80162938F01211516
:1038600031054105510589F7BF01C6010E94BE1807
:1038700067EF71E080917603909177030E94BE1804
:1038800065E070E080E090E00E94280D10928602D2
:1038900010928502F0E4F0937C0080917A008064BD
:1038A00080937A0080917A0086FDFCCF8091780029
:1038B0002091790090E0922B90939D0280939C023E
:1038C000A0E2B1E0E4E1F1E040E02D913D9182170A
:1038D000930728F0208131812817390728F44F5F9A
:1038E0003296463091F740E080919B02882319F090
:1038F00048138093580240939B0210915802112361
:1039000009F4D9C280912E02893021F481E080939C
:103910002E023AC0813061F4113009F0CCC280919E
:103920002D02813009F0C7C281E080932D0299C039
:10393000833069F586E090E00E94E316113009F0CB
:10394000BAC280912D02813041F484E080932E022E
:10395000809106028093040216C0823011F485E043
:1039600010C0833011F486E00CC0863019F4109337
:103970002E0209C0843011F487E003C0853019F4A9
:1039800088E080932E0281E080932D0294C28430DF
:1039900009F0A8C084E090E00E94E316113009F01D
:1039A00062C000912D02033009F4BECF043009F04B
:1039B00082C280910402809306020E940C198091B9
:1039C00006028093A70288E094E00E949E0BE0919B
:1039D0001A04F0911B0480818F7E8083E0911A0489
:1039E000F0911B048081877F8083E0911A04F0911D
:1039F0001B0480818F778083E0911A04F0911B046F
:103A000080818F7D8083809122048093210460E0F7
:103A100072EC81E090E00E945A170093A60261E0E8
:103A200084E00E94EC0C60E084E00E94BC0C9EEEFE
:103A3000492E92E0592E5092A5024092A40226ED02
:103A4000622E26E0722E7092A3026092A202309241
:103A5000A1022092A00210929F0210929E02109347
:103A60002D0283E0F2C0133091F480912D02823058
:103A7000F1F480910502833019F4109205021BC203
:103A8000813011F482E010C08430E0F714C21230AB
:103A900009F011C280912D028230B1F480910502AB
:103AA000823009F06CC381E08093050204C281304A
:103AB00009F001C2809104029FEF980F9D3F10F41E
:103AC0008F5F0DC081E00BC0813009F0F4C180919F
:103AD00004029EEF980F9D3F08F054C381508093DD
:103AE0000402E9C1853071F485E090E00E94E3169C
:103AF000113009F0E0C180912D028450823008F02D
:103B0000DAC112CF863009F052C0153039F48091F5
:103B10002D02882309F4CFC18F5F36CF143041F4D2
:103B200080912D02823010F485E02ECF81502CCF71
:103B3000133071F480912D02813051F5809105028E
:103B4000813011F483E0B0CF823009F0B4C195CF59
:103B5000123009F0ADC180912D02813029F08250E0
:103B6000823008F0A8C10CC080910502833009F4AE
:103B70009ACF882309F486CF843008F094CF9BC174
:103B80008091B502811102C082E10BC0815009C051
:103B90008250823008F08FC18091B502823120F4CA
:103BA0008F5F8093B50287C11092B50284C18A30BD
:103BB00009F079C0153009F47BC0143009F483C0D2
:103BC000123009F48CC0133009F493C0113009F09D
:103BD00072C180910202833061F4909103029E30A1
:103BE00040F08BE080932E021092020210920302AA
:103BF00062C190912D02923059F5811106C0E09179
:103C00000302F0E0E054FD4F17C0813031F4E09141
:103C10000302F0E0E355FD4F0FC0823031F4E09134
:103C20000302F0E0E656FD4F07C0833069F4E091EF
:103C30000302F0E0E957FD4FE491A091B502B0E036
:103C4000AB5FBD4F1296EC9386E080932E0233C19A
:103C5000933009F030C1811106C0E0910302F0E019
:103C6000E054FD4F17C0813031F4E0910302F0E0E1
:103C7000E355FD4F0FC0823031F4E0910302F0E0D4
:103C8000E656FD4F07C08330F9F6E0910302F0E0FD
:103C9000E957FD4FE491A091B502B0E0AB5FBD4F95
:103CA0005596EC93D1CF8B3009F053C0153049F4C1
:103CB00080910202833018F010920202FCC08F5FE4
:103CC00009C0143051F480910202811102C083E0D6
:103CD00001C0815080930202EEC0123041F4809105
:103CE0000302811102C081E10AC0815008C0133073
:103CF00049F480910302803108F078CF8F5F809380
:103D00000302D9C0113009F0D6C08091020281307F
:103D100009F04AC2E0910302EE3030F08AE080936D
:103D20002E0210920302C8CFF0E0EF59FD4FE4914C
:103D3000A091B502B0E0AB5FBD4F1296EC938091BD
:103D40002D028250823108F47FCF82E080932D02D1
:103D50007BCF873009F0A5C08DE090E00E94E3168C
:103D600080912D02813061F5123091F48091B4027E
:103D7000882311F0815001C08FE08093B4028091BC
:103D8000B40268EA72E02CE0829FC001112415C0E1
:103D9000133009F090C08091B4028F3020F48F5F0F
:103DA0008093B40202C01092B4028091B40268EA17
:103DB00072E03CE0839FC00111240E948C167BC0FE
:103DC000863021F5123069F48091AC029091AD02F9
:103DD000009711F0019710C0F092AD02E092AC0292
:103DE0006AC0133009F067C08091AC029091AD02B7
:103DF0008436910530F401969093AD028093AC0225
:103E00005AC01092AD021092AC0255C08B3021F511
:103E1000123069F48091B0029091B102009711F0D4
:103E2000019710C0F092B102E092B00244C013308A
:103E300009F041C08091B0029091B10284369105A1
:103E400030F401969093B1028093B00234C0109286
:103E5000B1021092B0022FC0113069F58C3009F414
:103E600063CD8D3041F510932D020091B4028CE0AA
:103E7000089F8001112488EAC82E82E0D82E412CA8
:103E8000512CF60161916F01C201800F911F0E94B8
:103E90007824FFEF4F1A5F0A2CE04216510489F78D
:103EA0000AC0883041F481E090E00E94E31634CDEE
:103EB000113009F469C10E948905109258028DE4FD
:103EC00092E00E94AB1682E492E00E94AB1687E378
:103ED00092E00E94AB16109236028091570288231E
:103EE00029F06091560283E00E94BC0C8091570239
:103EF0008823B9F080914C02882399F08091410287
:103F0000882379F080914B02282F220F9091400254
:103F100034E0939FC0011124822B90915602892B8B
:103F200002C0809135028093360210913402112331
:103F300009F46EC080914403882309F4F7C00E94FD
:103F4000620D60934003709341038093420390930A
:103F5000430381E08093330210924403E7C00E9440
:103F6000620D60938003709381038093820390932A
:103F7000830300917C0310917D0320917E03309197
:103F80007F03601771078207930740F460937C03F7
:103F900070937D0380937E0390937F0300917C0355
:103FA00010917D0320917E0330917F032B013C0112
:103FB000401A510A620A730A930182010A3F1105ED
:103FC0002105310508F462CC60937C0370937D0376
:103FD00080937E0390937F030E94620D00914603BD
:103FE000109147032091480330914903DC01CB0134
:103FF000801B910BA20BB30BC297A105B10508F072
:10400000FECB63E070E080E090E00E94280DE4CFFA
:104010000E94620D609340037093410380934203BA
:10402000909343031092330281E080934403809184
:104030003302811135C0112399F140912F02509123
:104040003002609131027091320280913803909178
:104050003903A0913A03B0913B03481759076A0707
:104060007B07F0F081E0809333028093440318C013
:1040700088E094E00E94FE0A80933703E0913603C3
:10408000AE2FB0E0AA54BD4F8C93EF5FE0933603A0
:10409000F0E0EA54FD4F10828D3049F08A3039F05B
:1040A00088E094E00E94200B892B11F73CC01A8213
:1040B00019821C821B821E821D82E6EBF2E00190B7
:1040C0000020E9F73197AF01465B524066EB72E0A2
:1040D000CE0101960E947E1861E084E00E94BC0C33
:1040E0006AE070E080E090E00E94280D66EB72E0EC
:1040F00088E094E00E94BE186DEF71E088E094E0E3
:104100000E94BE186AE070E080E090E00E94280DF6
:1041100060E084E00E94BC0C1092360389819A8191
:104120000E949322BDCF0E94C00B59CB0E94620D0A
:104130002091400330914103409142035091430349
:10414000DC01CB01821B930BA40BB50B80932F02D8
:1041500090933002A0933102B093320220913C033D
:1041600030913D0340913E0350913F0382179307E6
:10417000A407B50708F45BCF1092330258CF811122
:10418000FBCCE0CC8EEFABCC80912D029EEF980F54
:10419000923008F4C3CD843009F4C6CB853009F0E1
:1041A0008ACE0E940C195BCC8111C9CDE09103022B
:1041B000F0E0EC58FD4FBBCD8091A5049091A60492
:1041C0000C949322EF92FF920F931F93CF93DF9360
:1041D00010920B0410920A0488EE93E0A0E0B0E085
:1041E00080930C0490930D04A0930E04B0930F04DD
:1041F00020E331E0309309042093080425EC30E0FB
:10420000309315042093140424EC30E03093170409
:104210002093160420EC30E0309319042093180406
:1042200021EC30E030931B0420931A0422EC30E0A0
:1042300030931D0420931C0426EC30E030931F04BF
:1042400020931E0410922104109222041092230441
:10425000109224041092400510923F05809341056E
:1042600090934205A0934305B093440580E491E008
:1042700090933E0580933D0580E691E09093BA04CB
:104280008093B9048EE390E00E94FE21EC011B8232
:104290001A8280E591E0998388831BAE1CAE1DAE27
:1042A0007E0124E0E20EF11C198618861B861A8610
:1042B0001D8681E08C8782E28E871B8A1A8AFE0126
:1042C000B796CE01C5962FEF2193E817F907E1F7CE
:1042D00081E08CA307E31CE01A8F098F8B8F1C8E63
:1042E0001D8E80E48E8F1F8E88E19CE09EAB8DAB8F
:1042F00088E091E09F838E8382E18AABC7010E94B0
:104300008D0E88E591E099838883D093BC04C09397
:10431000BB04888599858F56934049F08FE693E0DA
:1043200099878887C7010E94750F1A8F098F80911E
:10433000BB049091BC0421E0FC01238F04960E94F1
:10434000750FE091BB04F091BC048785803321F4A4
:104350008FEF84A385A30AC0883221F0823021F038
:1043600081E003C08FEF01C083E084A383E39CE07E
:10437000928F818F60E08AE00E94EC0CE5E6F3E02A
:10438000E491E093AB04E1E5F3E0E491F0E0EE0FBB
:10439000FF1FE35CFC4F859194919093AD04809353
:1043A000AC041092B6041092B8041092B704E6EB75
:1043B000F4E0129224E0EE3AF207D9F71092A60444
:1043C0001092A5041092A8041092A7041092AA04B7
:1043D0001092A90440E050E06FEF71E085EA94E0AC
:1043E000DF91CF911F910F91FF90EF900C947E1869
:1043F000EE0FFF1F0590F491E02D0994CF93DF930A
:104400008230910510F482E090E0E0914B05F0914C
:104410004C0520E030E0C0E0D0E0309711F1408161
:10442000518148175907C0F04817590761F4828134
:104430009381209719F09B838A832BC090934C051E
:1044400080934B0526C02115310519F042175307FB
:1044500018F49A01BE01DF01EF010280F381E02D23
:10446000DCCF2115310509F1281B390B243031052A
:1044700090F412968D919C9113976115710521F01E
:10448000FB019383828304C090934C0580934B057A
:10449000FD01329644C0FD01E20FF31F8193919319
:1044A000225031092D933C933AC020914905309117
:1044B0004A05232B41F420911001309111013093D2
:1044C0004A052093490520910E0130910F012115D5
:1044D000310541F42DB73EB74091120150911301BF
:1044E000241B350BE0914905F0914A05E217F307CB
:1044F000A0F42E1B3F0B2817390778F0AC014E5F54
:104500005F4F2417350748F04E0F5F1F50934A0541
:10451000409349058193919302C0E0E0F0E0CF0120
:10452000DF91CF9108950F931F93CF93DF9300975F
:1045300009F48CC0FC0132971382128200914B0562
:1045400010914C050115110581F420813181820FF4
:10455000931F2091490530914A052817390779F5AD
:10456000F0934A05E093490571C0D80140E050E05E
:10457000AE17BF0750F412962D913C911397AD01E1
:104580002115310509F1D901F3CF9D01DA013383FA
:10459000228360817181860F971F8217930769F4C8
:1045A000EC0128813981260F371F2E5F3F4F318361
:1045B00020838A819B8193838283452B29F4F09306
:1045C0004C05E0934B0542C01396FC93EE93129773
:1045D000ED01499159919E01240F351FE217F30710
:1045E00071F480819181840F951F029611969C939E
:1045F0008E938281938113969C938E931297E0E021
:10460000F0E0D80112968D919C911397009719F0C4
:10461000F8018C01F6CF8D919C9198012E5F3F4F50
:10462000820F931F2091490530914A0528173907B9
:1046300069F4309729F410924C0510924B0502C092
:104640001382128210934A0500934905DF91CF919E
:104650001F910F910895A0E0B0E0E1E3F3E20C9424
:10466000AC24EC01009721F4CB010E94FE21B8C0DC
:10467000FC01E60FF71F9C0122503109E217F307F6
:1046800008F4ACC0D9010D911C91119706171707BA
:10469000B0F00530110508F49FC0C80104978617D3
:1046A000970708F499C002501109061B170B0193D4
:1046B00011936D937C93CF010E9493228DC05B0177
:1046C000A01AB10A4C01800E911EA0914B05B09129
:1046D0004C0540E050E0E12CF12C109709F44AC061
:1046E000A815B905D1F56D907C901197630182E012
:1046F000C80ED11CCA14DB0480F1A3014A195B095E
:104700006A0182E0C80ED11C1296BC9012971396D3
:10471000AC91B5E0CB16D10440F0B282A3835183B3
:104720004083D9016D937C930AC00E5F1F4FC30174
:10473000800F911FF90191838083EB2DFA2FE114F3
:10474000F10431F0D7011396FC93EE93129744C015
:10475000F0934C05E0934B053FC08D919C911197D0
:104760004817590708F4AC017D0112960D90BC91D1
:10477000A02DB3CF8091490590914A0588159905E0
:10478000E1F446175707C8F480910E0190910F018C
:10479000009741F48DB79EB74091120150911301DB
:1047A000841B950BE817F907C8F4F0934A05E093CA
:1047B0004905F901718360830FC0CB010E94FE217E
:1047C0007C01009759F0A801BE010E94FA23CE0196
:1047D0000E949322C70104C0CE0102C080E090E095
:1047E000CDB7DEB7EEE00C94C82481E090E0F894F9
:1047F0000C94DF24FB01DC0102C001900D924150BA
:104800005040D8F70895FB01DC0101900D92002083
:10481000E1F70895BB274A3031F4992322F4BDE231
:10482000909581959F4F0C944724BB272A3051F4D3
:10483000992342F4BDE290958095709561957F4FE4
:104840008F4F9F4F0C942524BB27FA01A62F621788
:10485000710581059105330B30FB66F0AA27660FC1
:10486000771F881F991FAA1FA21710F0A21B63951C
:104870003850A9F7A05DAA3308F0A95DA19336F7D7
:10488000B111B1931082CA010C946024BB27FB01C3
:104890005527AA27880F991FAA1FA41710F0A41B39
:1048A00083955051B9F7A05DAA3308F0A95DA19393
:1048B000009779F7B111B1931192CB010C94602458
:1048C000DC01FC01672F71917723E1F7329704C077
:1048D0007C916D9370836291AE17BF07C8F3089502
:1048E000F999FECF92BD81BDF89A992780B50895B8
:1048F000262FF999FECF1FBA92BD81BD20BD0FB6FC
:10490000F894FA9AF99A0FBE01960895A1E21A2E28
:10491000AA1BBB1BFD010DC0AA1FBB1FEE1FFF1F63
:10492000A217B307E407F50720F0A21BB30BE40BB3
:10493000F50B661F771F881F991F1A9469F76095FA
:104940007095809590959B01AC01BD01CF010895B4
:104950002F923F924F925F926F927F928F929F928F
:10496000AF92BF92CF92DF92EF92FF920F931F937D
:10497000CF93DF93CDB7DEB7CA1BDB0B0FB6F8942E
:10498000DEBF0FBECDBF09942A88398848885F846E
:104990006E847D848C849B84AA84B984C884DF80DF
:1049A000EE80FD800C811B81AA81B981CE0FD11DC3
:1049B0000FB6F894DEBF0FBECDBFED01089515E030
:1049C000CEE5D5E004C0FE010E94F8212196CF3546
:0849D000D107C9F7F894FFCFED
:1049D800084000000080BD04B411000183130000EA
:1049E8004D05800064000004B6036603D002760219
:1049F8000000E803840320038A023A020000000052
:104A0800570B0217200BFE0A120B9E0B000000002A
:104A180053143F14381435143214311400000000B4
:104A2800D318021700000000D31802170000000076
:104A38005D1564145374617465004155544F004109
:104A48002D3100412D3000412D3F00422D310042D3
:104A58002D3000422D3F00542D3100542D3000548C
:104A68002D3F004552524F522053656E736F7200AE
:104A78004F736D6F73652D4F6E004F736D6F736558
:104A88002D4F66660050756D702D4F6E0050756D18
:104A9800702D4F6666004F5300434C45414E004F02
:104AA800534D4F53450049444C4500564D445056CC
:104AB8005F317C305F564D4450560D0A00564D44C8
:104AC80050455F31007C005F564D4450450D0A004B
:00000001FF
