:100000000C94EF0A0C94170B0C94170B0C94170B11
:100010000C94170B0C94170B0C94170B0C94170BD8
:100020000C94170B0C9438200C94170B0C94170B92
:100030000C94170B0C94170B0C94170B0C94170BB8
:100040000C948C150C94170B0C9474140C944E1483
:100050000C94170B0C94170B0C94170B0C94170B98
:100060000C949A200C94170B890B990B0E0E130EFF
:10007000950F80111711CB0EF6115F10001F1AFE9D
:10008000FB0E0374075F207FFC10FB0EFC000000DA
:10009000060000030E0E080300E0E0E0E0E0E0E010
:1000A000E0E0E00000E0E00806060A0108E7676714
:1000B0006767670C0E1C0E0100066006600C603F4F
:1000C000F03FF018C019801980FFE0FFE0330033E3
:1000D00000630066000A11220C01FE04001F007F6D
:1000E000807780E5C0E400FC007E001F8007C0052B
:1000F000C0E5C0E5C07F803F0004000400120E2A66
:100100001401003C04007E0C00C31800C31000C39F
:100110003000E760007E670018CD800098C001982D
:10012000C00318C00318C0060F800C07000E0E1C79
:100130001001001F007F8071C071C073803F001EDE
:10014000007E38F730E3B0E1F0E0E07FF01FBC0361
:100150000606080308E0C0C0C0C0C00411110802B0
:10016000FD30707060E0E0E0E0E0E0E0E0E0607072
:1001700070300411110802FDC0C0E0E060607070D2
:100180007070706060E0E0C0C00807070C0207668E
:100190003C18FF183C660C0C181404000200020006
:1001A000020002000200FFF0FFF002000200020065
:1001B000020002000405050601FE707060E0C00543
:1001C0000303070104F8F8F8030303060200E0E064
:1001D000E0060F0F0901FF0C0C0C0C18181830303A
:1001E0003060606060C00A0E1C0B01001E007F00C2
:1001F0006180E1C0E1C0E1C0E1C0E1C0E1C0E1C0B7
:10020000E1C061807F801E00060E0E0B02001C7C88
:10021000FCDC1C1C1C1C1C1C1C1C1C1C0A0E1C0BAF
:1002200001001F007F8061C0E1C001C001C00380E8
:1002300007800F001E0038007000FFC0FFC00A0ECC
:100240001C0B01003E007F00E380038003801F0041
:100250001F00038001C001C0E1C0F3807F003E00A9
:100260000B0E1C0B010007800F800F801B803B8052
:10027000338073806380E380FFE0FFE003800380CE
:1002800003800A0E1C0B0100FF80FF80E000E000ED
:10029000E000FF00FF80E18001C001C0E1C0E38019
:1002A0007F003E000A0E1C0B01001E003F80618093
:1002B0006000E000DF00FF80E180E1C0E1C0E1C05C
:1002C00061807F801E000A0E1C0B0100FFC0FFC072
:1002D00001C0038003800780070007000E000E00A6
:1002E0001C001C003C0038000A0E1C0B01003F00E3
:1002F0007F80E1C0E1C0E1807F003F007380E1C00A
:10030000E1C0E1C0E1C07F803F000A0E1C0B01008C
:100310001E007F00E180E180E1C0E1C0F3C07FC04A
:1003200019C00180E18063807F003E00030A0A0754
:100330000300E0E0E000000000E0E0E0040C0C0658
:1003400001FE707070000000007060E0C0C00C0A18
:1003500014140401001000E003801C00E000C00041
:100360003800070001C000300C050A140403FFF038
:10037000FFF00000FFF0FFF00C0A141404018000ED
:1003800070001C0003800070003001C00E003800B7
:10039000C000090E1C0B01003E007F00C38043809B
:1003A0000380070006000C00180018001800000069
:1003B000180018001312361501FC01F8000FFE009A
:1003C0001E07803803C071FDC073FCE0E71CE0E746
:1003D0001CE0E71CE0E71CE0E71CE0E73CC073FF23
:1003E000C071E7803800001E04000FFC0003FC0011
:1003F0000E0E1C0E00000780078007C00FC00EC045
:100400001CE01CE01C6038703FF03FF8703870381A
:10041000E01C0B0E1C0D0100FF00FF80E1C0E1C0DD
:10042000E1C0E380FF00FF80E0C0E0E0E0E0E0E06A
:10043000FFC0FF000D0E1C0F01000F803FE0707029
:100440006070E000E000E000E000E000E078607054
:1004500070F03FE00F800C0E1C0E0100FF00FFC08B
:10046000E1E0E0E0E070E070E070E070E070E0702B
:10047000E0E0E1E0FFC0FF000A0E1C0C0100FFC03D
:10048000FFC0E000E000E000E000FF80FF80E0004F
:10049000E000E000E000FFC0FFC0090E1C0B0100FF
:1004A000FF80FF80E000E000E000E000FF80FF80D0
:1004B000E000E000E000E000E000E0000D0E1C0FB6
:1004C00001000FC01FF038387038E000E000E1F89C
:1004D000E1F8E038E038703878383FF80FF00C0E6B
:1004E0001C0E0100E070E070E070E070E070E07001
:1004F000FFF0FFF0E070E070E070E070E070E0703E
:10050000030E0E050100E0E0E0E0E0E0E0E0E0E006
:10051000E0E0E0E00A0E1C0C010001C001C001C0D7
:1005200001C001C001C001C001C001C0E1C0E1C003
:10053000F3C07F803E000B0E1C0D0100E1E0E3C024
:10054000E380E700EE00FC00FC00FE00EE00E700A8
:10055000E780E3C0E1C0E0E00A0E1C0B0100E00010
:10056000E000E000E000E000E000E000E000E0008B
:10057000E000E000E000FFC0FFC0100E1C12010010
:10058000F81FF81FFC3FFC3FFC37EC77EE77EE6777
:10059000E6E7E7E7E7C7E3C7E3C7E3870D0E1C0F0E
:1005A0000100F038F838F838FC38EE38EE38E73823
:1005B000E738E3B8E3B8E1F8E1F8E0F8E0F80E0E68
:1005C0001C1001000FC03FF070706038E018E01C94
:1005D000E01CE01CE01CE018603870703FF00FC0B9
:1005E0000B0E1C0D0100FF00FFC0E1C0E0E0E0E0E9
:1005F000E0E0E1C0FFC0FF00E000E000E000E0005C
:10060000E0000F0E1C1101000FC03FE07070603859
:10061000E018E01CE01CE01CE01CE018603870787A
:100620003FFE0FFE0B0E1C0D0100FF80FFC0E0E03F
:10063000E0E0E0E0E0E0FF80FFC0E1C0E0E0E0E01B
:10064000E0E0E0E0E0600C0E1C0E01001F803FC007
:1006500060E0E0E0E000FC007F801FE003E000706D
:10066000E070E0607FC01F800C0E1C0E0100FFF0E8
:10067000FFF00E000E000E000E000E000E000E0029
:100680000E000E000E000E000E000C0E1C0E0100DF
:10069000E070E070E070E070E070E070E070E070DA
:1006A000E070E070E07070E03FC01F800E0E1C0F25
:1006B0000000F01C701C703C3838383838701C70E2
:1006C0001C701EE00EE00FC007C007C00780140EAC
:1006D0002A140000F0F0F070F0E070F0E071F8E043
:1006E00071F8E03999C03999C03B9DC03B9DC01B52
:1006F0000D801F0F801F0F801F0F800E07000C0E34
:100700001C0E0100E07070E078E039C01F801F000F
:100710000F000F001F803BC039C070E0E0F0E070B8
:100720000C0E1C0D0000F07070F038E038E01DC0B9
:100730001DC00F800F00070007000700070007001B
:1007400007000B0E1C0D01007FE07FE001E003C0FD
:10075000038007800F001E001E003C007800F80098
:10076000FFE0FFE00512120802FCF8F8E0E0E0E02C
:10077000E0E0E0E0E0E0E0E0E0E0F8F8060F0F099C
:1007800001FFC0C0606060303030101818180C0CC9
:100790000C0512120802FCF8F838383838383838A6
:1007A00038383838383838F8F80A0C181405000C7E
:1007B000000C000C00120012003300210021004048
:1007C000804080C0C080400A02040A00FDFFC0FFD4
:1007D000C005040405FF0CE0703018090A140B0171
:1007E000003E007F80E3801F807F80E380E380E322
:1007F00080FF8039800A0E1C0C0100E000E000E060
:1008000000E000EF00FF80E1C0E1C0E1C0E1C0E135
:10081000C0E180FF80EF00090A140B01003E007F59
:1008200000E380E380E000E000E380E3807F003EBF
:10083000000A0E1C0C010001C001C001C001C03D36
:10084000C07FC0E1C0E1C0E1C0E1C0E1C0E1C07F64
:10085000C03DC0090A140B01001E007F00E380E3C5
:1008600080FF80FF80E000E3807F803E00070E0E67
:100870000801001E3E3838FEFE383838383838381F
:10088000380A0E1C0C01FC3DC07FC071C0E1C0E104
:10089000C0E1C0E1C0E1C07FC03DC001C061C07F18
:1008A000803F00090E1C0B0100E000E000E000E0CA
:1008B00000EF00FF80E380E380E380E380E380E3F8
:1008C00080E380E380030E0E050100E0E0E000E03D
:1008D000E0E0E0E0E0E0E0E0E00412120702FC709B
:1008E000707000707070707070707070707070F0F8
:1008F000E0090E1C0B0100E000E000E000E000E772
:1009000080E700EE00FC00FC00FC00EE00E700E7E2
:1009100000E380030E0E050100E0E0E0E0E0E0E02F
:10092000E0E0E0E0E0E0E00F0A14120100EF3CFF3D
:10093000FEE3CEE386E386E386E386E386E386E3AF
:1009400086090A140B0100EF00FF80E380E380E3D7
:1009500080E380E380E380E380E3800A0A140C01F3
:10096000001E007F806180E1C0E1C0E1C0E1C061A4
:10097000807F801E000A0E1C0C01FCEF00FF80E14E
:1009800080E1C0E1C0E1C0E1C0E1C0FF80EF00E074
:1009900000E000E000E0000A0E1C0C01FC3DC07FFE
:1009A000C0E1C0E1C0E1C0E1C0E1C0E1C07FC03D45
:1009B000C001C001C001C001C0060A0A080100EC64
:1009C000FCF0E0E0E0E0E0E0E0090A140B01003EAA
:1009D00000FF00E380E0007E001F000380E380FF53
:1009E000003E00070D0D090100083838FEFE3838BA
:1009F000383838383E1E090A140B0100E380E380C2
:100A0000E380E380E380E380E380E380FF807B801A
:100A10000B0A140B0000E0E071C071C031803B8014
:100A20003B801B001F001F000E00110A1E1100005A
:100A3000E1C38061E30073E7007367003377003F31
:100A400076003F3E003E3E001E3C001E1C00090A90
:100A5000140B0100E380730077003E001C003E0091
:100A60003E007700E380E3800B0E1C0B00FCE0E00F
:100A700071C071C039803B803B801F001F000F0098
:100A80000E000E000E001C001C00080A0A0A0100DD
:100A9000FFFF070E1C3870E0FFFF0713130A02FB6D
:100AA0000E3E383838383830F0C0F07038383838C2
:100AB000383E0E0115150703FB8080808080808002
:100AC000808080808080808080808080808007130C
:100AD000130A02FBE0F03838383838381C061C3866
:100AE0003838383838F0E00B03060B000430607FEC
:100AF000C0C780FF20202049444C45200052654655
:100B0000696C6C28736563293A0020524546494C4C
:100B10004C20008001C00340026006300C10081811
:100B20001808100C36042404260C36081318187004
:100B30000EC00352756E28736563293A0020204366
:100B40004C45414E200080008001E01BF03BBC3151
:100B50009C600E6006600E601C603C72383BB01FEB
:100B6000B00F0003000252756E286D696E293A00BD
:100B70000000F80160006300FF03FF07FF0FFF0F95
:100B8000830F000F00000015000080240000404487
:100B9000204F534D4F534520004552524F52205441
:100BA000494D45004552524F522053454E534F52E6
:100BB0000061637469763A200000546865204944F6
:100BC000206D75737420626520756E69717565009E
:100BD00000532E426F74202028736563293A005316
:100BE0002E546F70202028736563293A00532E41DC
:100BF0007175612028736563293A200044626F751E
:100C00006E636500000000007C00440044007C002E
:100C1000100010FFFFFFFF080008003E0022002226
:100C2000003E0000008000800084100808C001E041
:100C300003F007F777F007E003C00108088410808D
:100C400000800000004D6F64627573000066697279
:100C50006D7761726520000049443A00006D617251
:100C6000656C6162200000496E666F000052656627
:100C70006954696D6528736563293A004F736D6F18
:100C800054696D65286D696E293A00536166657413
:100C900079005265706561742020286D696E293A6B
:100CA000004475726174696F6E28736563293A0038
:100CB000436C65616E005341564500004241434B11
:100CC00000004155544F202000004D414E55454CE9
:100CD00000004D6F646500005345545550000021DD
:100CE00021215550444154494E4721212100000003
:100CF00000000000000000F800007C000000000080
:100D000000000000F800007C00000000000000006F
:100D100000F800007C00DFE303FF87FF813FF8F865
:100D20003F7C1FFFFFC3FF8FFFE3FFF8FE7FFC7FC9
:100D3000FFFF07009FFFF3F1F900F8FC7F9FCF074B
:100D4000FF9FCFFBE0FBF8FFFCFC9FCF87FF9FCF0F
:100D5000FBFFFBFCFF7CF89FCFC7079F0FF8FFFB53
:100D60003EF87CF89FCFC7879F0FF800F83EFCFC49
:100D7000FC9FCFC7FF9F0FF0F1FBFEFFFC7F9FCFD3
:100D800087FF9F0FE0FFF9FCFFFC7F9FCF073F9F8E
:100D90000F807FF8F8F97C1F0000000000000000C1
:100DA0000000000000000000000000000000000043
:100DB00000000000000000E0FBBEEFFBA2EFFB0024
:100DC00000000000208A822888A228080000000075
:100DD0000020FA8EE88BA22F380000000000200AC5
:100DE00082088AA224080000000000E00BBEE8FB95
:100DF000BEE8FB00000000240027002A00000000DD
:100E000000250028002B00000000002300260029F8
:100E100000040404040404040402020202020203A3
:100E200003030303030102040810204080010204AD
:100E30000810200102040810200000000800020130
:100E400000000304070000000000000000FFE0FFB6
:100E5000D1AFFF32FFD0FFFEFFE0FFD1AEFFD0FFEA
:100E6000FEFFE0FFD11000FFFEFFD0FFE0FFC1FF5B
:100E7000D1AED580A83FD300408D142002A1C8DA9E
:100E80001281CFD9F1DB402EA4A6AFFFD0FFFE0127
:100E9000060A00FE070136026820FFFE08FE07FE74
:100EA0000A0060221767808080808000801633638C
:100EB000A0A0A00257675050F850F8505002576752
:100EC0002070A07028702002576748A8502050A8B2
:100ED0009002576740A0A040A890682613638080C6
:100EE0008012376720408080804020123767804022
:100EF00020202040800355658850F85088035565B0
:100F00002020F82020113363604080055161F811E2
:100F1000336340E040025767080810204080800299
:100F20005767205088888850200257672060A0208B
:100F30002020F8025767708808304080F802576711
:100F4000F808103008887002576710305090F81079
:100F500010025767F880B0C80888700257673040A1
:100F600080B0C88870025767F8081010204040020F
:100F7000576770888870888870025767708898688B
:100F800008106011376740E0400040E040113767CB
:100F900040E04000604080124767102040804020C1
:100FA00010045363F800F812476780402010204077
:100FB00080025767708810202000200257677088D1
:100FC00098A8B0807002576720508888F8888802F7
:100FD0005767F04848704848F0025767708880802B
:100FE000808870025767F04848484848F0025767C1
:100FF000F88080F08080F8025767F88080F0808069
:101000008002576770888080988870025767888848
:1010100088F8888888123767E04040404040E00206
:101020005767381010101090600257678890A0C062
:10103000A09088025767808080808080F802576780
:101040008888D8A88888880257678888C8A8988818
:101050008802576770888888888870025767F08888
:1010600088F08080800158687088888888A8700817
:10107000025767F08888F0A09088025767708880D0
:1010800070088870025767F820202020202002571F
:101090006788888888888870025767888888505051
:1010A0005020025767888888A8A8D8880257678880
:1010B0008850205088880257678888502020202038
:1010C000025767F80810204080F8123767E08080E8
:1010D000808080E002576780804020100808123727
:1010E00067E02020202020E0065363205088015133
:1010F00061F828226280400255657008788878027D
:1011000057678080B0C888C8B002556570888088ED
:101110007002576708086898889868025565708853
:10112000F88070025767304840F0404040005767F1
:10113000788888780888700257678080B0C8888867
:10114000881237674000C0404040E01049691000F5
:101150003010101090906002576780808890E09067
:1011600088123767C04040404040E0025565D0A833
:10117000A8A888025565B0C8888888025565708817
:10118000888870005767B0C888C8B08080005767EB
:1011900068988898680808025565B0C88080800201
:1011A000556570807008F00257674040F040404835
:1011B000300255658888889868025565888850503F
:1011C000200255658888A8A850025565885020508F
:1011D0008800576788889868088870025565F810F5
:1011E0002040F8124767304020C020403022176767
:1011F00080808080808080124767C02040304020FF
:10120000C006536348A890FFFFFFFFFFFFFFFFFFEB
:10121000FFFFFFFFFFFFFFFFFFFFFFFFFFFFFFFFDE
:10122000FFFFFFFFFFFFFFFF0A006022176780003C
:1012300080808080800157672078A0A0A07820025D
:101240005767304840E04048B0025565887050709C
:101250008801586888885020F8202020221767804D
:101260008080008080800158687080E09048380855
:1012700070193161A00257677088A8C8A8887013D8
:1012800046667090B05000F002656524489048248E
:10129000144262F010154161F00257677088E8C887
:1012A000C88870095161F816336340A04002566641
:1012B0002020F82020F815456560902040F0154565
:1012C00065E0106010E02822624080015666888840
:1012D00088C8B08002576778E8E868282828251170
:1012E0006180202262408015356540C04040E01397
:1012F00046666090906000F00265659048244890D2
:1013000001696940C04040E40C143C040169694033
:10131000C04040E81404081C015969C0204020C89E
:10132000182878080257672000202040887002584B
:10133000684020708888F888880258681020708873
:1013400088F888880258682050708888F888880251
:10135000586848B0708888F88888025868500070CB
:101360008888F888880258682050708888F88888AB
:101370000267673C50909CF0909C0059697088808F
:1013800080808870204002586840F88080F080801B
:10139000F802586810F88080F08080F802586820C1
:1013A000F88080F08080F802586850F88080F080E3
:1013B00080F81238688040E040404040E0123868D1
:1013C0002040E040404040E012386840A0E040400B
:1013D0004040E0123868A000E040404040E0025742
:1013E00067F04848E84848F0025868285088C8A87C
:1013F00098888802586840207088888888700258C9
:10140000681020708888888870025868205070881A
:101410008888887002586828507088888888700288
:1014200058685000708888888870025565885020F8
:101430005088025767709898A8C8C87002586840CA
:101440002088888888887002586810208888888852
:101450008870025868205000888888887002586810
:1014600050008888888888700258681020888850C2
:1014700020202002576780F088F080808002576724
:10148000708890A09088B00258684020007008785A
:1014900088780258681020007008788878025868A8
:1014A000205000700878887802586828500070082A
:1014B00078887802576750007008788878025868F2
:1014C000205020700878887802656578147C907CBC
:1014D000005767708880887020400258684020005C
:1014E0007088F880700258681020007088F880704A
:1014F0000258682050007088F880700257675000CA
:101500007088F88070123868804000C0404040E029
:10151000123868408000C0404040E012386840A067
:1015200000C0404040E0123767A000C0404040E0AB
:10153000025767C030708888887002586828500049
:10154000B0C88888880258684020007088888870F1
:1015500002586810200070888888700258682050EF
:1015600000708888887002586828500070888888C1
:101570007002576750007088888870035565200096
:10158000F800200255657898A8C8F00258684020F5
:101590000088888898680258681020008888889891
:1015A00068025868205000888888986802576750F9
:1015B0000088888898680059691020888898680889
:1015C000887000586880F0888888F08080005969A9
:1015D00050008888986808887000462C1B2D1124BC
:1015E0001FBECFEFD8E0DEBFCDBF11E0A0E0B1E07D
:1015F000ECE6F2E602C005900D92AC39B107D9F7DE
:1016000025E0ACE9B1E001C01D92A530B207E1F7D9
:101610001AE0CEEEDAE004C02197FE010E94302DE0
:10162000CD3ED107C9F70E945F230C9429310C9459
:1016300000002F923F924F925F926F927F928F9213
:101640009F92AF92BF92CF92DF92EF92FF920F9351
:101650001F93CF93DF93CDB7DEB760970FB6F894A3
:10166000DEBF0FBECDBF00912C0410912D04D80118
:10167000DD968C91DD97F80134967F01811106C0CB
:1016800081E0DD968C93CF010E94BE16F801C680E2
:10169000D78005A8F6A9E02D82E00995D801D59656
:1016A000ED91FC91D69781E0099520E030E044E18E
:1016B000B601C7010E941C169801295C3F4F47E103
:1016C000B601C7010E941C16D801D596ED91FC9178
:1016D000D69780E00995FE0131966F01B8EE2B2E6A
:1016E000B3E03B2E1BE2A12E14E1B12E08EE402EFA
:1016F00003E0502E612C712CE09170028E2F90E04F
:101700008A30910508F01DC7FC01EC5CFF4F0C947A
:10171000302D80912C0490912D04AFEEEA2EACE098
:10172000FA2E04E128E644E16AE004960E94151CC2
:1017300008C780913202813049F480912C04909145
:101740002D04F5E2EF2EFCE0FF2E0AC0823079F482
:1017500080912C0490912D04E5E0EE2EECE0FE2E1D
:1017600000E120E140E060E704960E94151C8091B2
:10177000530290E090937A02809379028091340230
:10178000811104C021E04AEC5CE005C0813039F4ED
:1017900021E042EC5CE068E38EE50E94181D209198
:1017A0006E0280912C0490912D04222319F02CE6D6
:1017B00031E002C020E731E048E361E00E942423E9
:1017C0002091650280912C0490912D04222319F020
:1017D00024E731E002C028E731E048E36EE10E94EF
:1017E000242320915C0280912C0490912D042223CB
:1017F00019F02CE731E002C020E831E048E36CE367
:101800000E94242300912C0410912D04C8010496F9
:10181000D80118962D913C9119972C57304071F0B2
:101820002CE730E0F801318720870E94A617EFE20D
:10183000F4E1D8015A96FC93EE93599780912C04C9
:1018400090912D0421E0DC015B962C9304960E947C
:10185000A61780912C0490912D0404960E940916DD
:10186000E0912C04F0912D04B28EA18E80911E0285
:1018700090911F024997803D9D4F20F010921F02CA
:1018800010921E0260911E0270911F0280E090E093
:101890002AE0A6010E94812F960142E16CE380912B
:1018A0002C0490912D040E94242300912C0410916B
:1018B0002D04C8010496F801208531852F583E403B
:1018C00081F0EFE8FEE0D8011996FC93EE931897AB
:1018D0000E94A617EFE2F4E1D8015A96FC93EE932A
:1018E000599780912C0490912D0421E0DC015B96A6
:1018F0002C9304960E94A61780912C0490912D049D
:1019000004960E94091680912C0490912D04FC01EC
:10191000B28EA18E24E831E048E160E70E942423E2
:1019200080912C0490912D0403E22AE340E16AE3C4
:1019300004960E94281780912C0490912D0420E891
:1019400043E26AE304960E94281780912F028823BD
:1019500089F0813031F421E044EA5BE062E00E94EA
:10196000181D80912F02823009F041C121E049E920
:101970005BE039C180913102882309F4C4C08091B1
:101980002A02811152C021E040E95BE062E081E07F
:101990000E94181D80912C0490912D0470E7E72E71
:1019A0007BE0F72E00E120E140E06EE504960E9426
:1019B000151C609122027091230280912402909163
:1019C000250220E63AEE40E050E00E94ED30CA01E8
:1019D000B901882799272AE0A6010E94812F26E6CF
:1019E0003BE042E161E080912C0490912D040E9443
:1019F000F62296014CE161E080912C0490912D0437
:101A00000E94242327E831E04CE168E180912C0416
:101A100090912D040E94242360914302709144020E
:101A2000809145029091460261C080912C04909172
:101A30002D0456E4E52E5BE0F52E00E120E140E0C8
:101A40006CE404960E94151C80912C0490912D0446
:101A500060E7E62E6BE0F62E20E140E06EE50496AE
:101A60000E94151C21E04DE35BE062E081E00E94F2
:101A7000181D0E94801500912602109127022091C6
:101A8000280230912902601B710B820B930BA3017A
:101A900092010E94ED30CA01B9012AE0A6010E941C
:101AA000812F23E33BE042E161E080912C0490919F
:101AB0002D040E94F62296014CE161E080912C04F5
:101AC00090912D040E94242327E831E04CE168E145
:101AD00080912C0490912D040E94242360913B025C
:101AE00070913C0280913D0290913E022AE0A60155
:101AF0000E94812F96014CE160E280912C0490912C
:101B00002D040E94242380913002882309F45CC0B4
:101B100080912C0490912D0443E1E42E4BE0F42EAF
:101B200000E120E140E06AE304960E94151C21E0F8
:101B30004AE05BE062E081E00E94181D60912B02A8
:101B400070912C0280912D0290912E02A30192019E
:101B50000E94ED30CA01B901882799272AE0A60121
:101B60000E94812F2DEF3AE048E261E080912C0441
:101B700090912D040E94F622960148E26AE4809139
:101B80002C0490912D040E94242327E831E048E2A0
:101B90006EE580912C0490912D040E942423609185
:101BA0004702709148028091490290914A022AE0CE
:101BB000A6010E94812F960148E266E680912C04DE
:101BC00090912D040E9424238091300281110FC036
:101BD00080912A0281110BC080913102811107C0CE
:101BE00021E044EF5AE062E081E00E94181D8091FC
:101BF0002C0490912D0400E120E840E160E004967F
:101C00000E94281780912C0490912D0406E320E86F
:101C100046E360E004960E94281793C42FED3CE051
:101C20004EE163E288C428ED3CE045E060E080914D
:101C30002C0490912D040E94F62280912C04909106
:101C40002D040EE020E84EE060E004960E94281784
:101C5000809121024AE0B60190E00E94762F960121
:101C600045E065E580912C0490912D040E94242389
:101C700080912102813041F421E040EB5CE064E19D
:101C800088E00E94181D0AC020EB3CE044E168E0B7
:101C900080912C0490912D040E94F62280912102C3
:101CA000823041F421E04BE85CE064E18CE30E9487
:101CB000181D0AC02BE83CE044E16CE380912C0441
:101CC00090912D040E94F62280912102833041F4EC
:101CD00021E04CEF5BE06EE188E00E94181D0AC035
:101CE0002CEF3BE04EE168E080912C0490912D04B4
:101CF0000E94F62280912102843041F421E045E4E3
:101D00005CE06EE18CE30E94181D0AC025E43CE013
:101D10004EE16CE380912C0490912D040E94F622F8
:101D200080912102853041F421E042ED5CE068E2DF
:101D300088E00E94181D0AC022ED3CE048E268E0FD
:101D400080912C0490912D040E94F6228091210212
:101D5000863041F421E047E65CE068E28CE30E94D3
:101D6000181D0AC027E63CE048E26CE380912C0491
:101D700090912D040E94F62280912102873031F447
:101D800021E04CEB5CE067E381E0CEC32CEB3CE070
:101D900047E361E0D0C328ED3CE045E060E080919E
:101DA0002C0490912D040E94F62225E43CE045E0AD
:101DB00062E380912C0490912D040E94F622809180
:101DC0002C0490912D040EE020E84EE060E0049693
:101DD0000E9428172AEB3BE044E160E080912C044C
:101DE00090912D040E94F62228E53CE043E268E051
:101DF00080912C0490912D040E94F6228091200263
:101E00004AE0B60190E00E94762F10912102809165
:101E10002C0490912D04113021F5F6010190002041
:101E2000E9F73197EC19FD092E2F220F2E0F220F03
:101E30002F5F0BE042E26BE104960E94A1168091B5
:101E40002C0490912D04DC0194961C92960143E29F
:101E50006CE10E942423E0912C04F0912D0414A342
:101E600005C0960143E26EE10E9424239091320264
:101E70009D7F20912C0430912D0463E2911110C0BC
:101E8000C90104960E946C1D80912C0490912D0430
:101E900006E026E045E266E604960E94A11604C02C
:101EA000C90104960E946C1D80912102823041F488
:101EB00021E041EB5BE063E284E30E94181D12C065
:101EC00021EB3BE043E264E380912C0490912D04EC
:101ED0000E94F62280912C0490912D0463E20496D6
:101EE0000E946C1D80912102833041F421E04CEB73
:101EF0005CE062E388E00E94181D0AC02CEB3CE025
:101F000042E368E080912C0490912D040E94F62217
:101F100080912102843029F421E046EB5CE062E309
:101F200002C326EB3CE042E305C328ED3CE045E07C
:101F300060E080912C0490912D040E94F6222CEFF9
:101F40003BE045E062E380912C0490912D040E94D7
:101F5000F62280912C0490912D040EE020E84EE0B2
:101F600060E004960E94281780912102813041F49C
:101F700021E04DEE5BE062E180E00E94181D0AC0A6
:101F80002DEE3BE042E160E080912C0490912D0425
:101F90000E94F6228091670290916802B1010E942E
:101FA0001C2D80E090E02AE0A6010E94812F96017E
:101FB00042E16AE580912C0490912D040E94242333
:101FC00080912102823041F421E04FED5BE06EE12F
:101FD00080E00E94181D0AC02FED3BE04EE160E05A
:101FE00080912C0490912D040E94F622809155023C
:101FF00090915602B1010E941C2D80E090E02AE0F1
:10200000A6010E94812F96014EE16AE580912C0481
:1020100090912D040E94242380912102833041F469
:1020200021E041ED5BE06AE280E00E94181D0AC0F9
:1020300021ED3BE04AE260E080912C0490912D0478
:102040000E94F62280915E0290915F02B1010E948F
:102050001C2D80E090E02AE0A6010E94812F9601CD
:102060004AE26AE580912C0490912D040E94242379
:1020700080912C0490912D0406E320E846E360E073
:1020800004960E94281780912102843041F421E0B7
:102090004CEB5CE068E381E00E94181D0AC02CEB69
:1020A0003CE048E361E080912C0490912D040E9473
:1020B000F62280912102853009F039C230C228ED24
:1020C0003CE045E060E080912C0490912D040E945A
:1020D000F62227E63CE045E062E380912C049091F3
:1020E0002D040E94F62280912C0490912D040EE084
:1020F00020E84EE060E004960E9428172DE53CE0C1
:1021000044E168E080912C0490912D040E94F62215
:1021100028E53CE044E162E380912C0490912D0499
:102120000E94F6224AE0B6018091710290917202FB
:102130000E94762F960144E160E580912C049091F5
:102140002D040E9424232DE43CE04EE168E08091C0
:102150002C0490912D040E94F62228E53CE04EE1EB
:102160006AE380912C0490912D040E94F6224AE0AB
:10217000B60180E090E00E94762F96014EE160E586
:1021800080912C0490912D040E94242325E43CE0AE
:1021900048E268E080912C0490912D040E94F62280
:1021A00028E53CE048E260E380912C0490912D0406
:1021B0000E94F622809133024AE0B60190E00E942C
:1021C000762F960148E260E580912C0490912D04D1
:1021D0000E94242380913202813049F480912C04A2
:1021E00090912D0435E2E32E3CE0F32E0AC08230BC
:1021F00079F480912C0490912D0425E0E22E2CE0BE
:10220000F22E00E120E144E16CE604960E94151CE8
:1022100080912102813031F421E04CEB5CE065E3F8
:1022200088E082C12CEB3CE045E368E084C128ED06
:102230003CE045E060E080912C0490912D040E94E8
:10224000F6222BE83CE045E062E380912C0490917B
:102250002D040E94F62280912C0490912D040EE012
:1022600020E84EE060E004960E9428178091210249
:10227000813041F421E04CE75CE062E180E00E94C3
:10228000181D0AC02CE73CE042E160E080912C047C
:1022900090912D040E94F6226091430270914402B5
:1022A00080914502909146022AE0A6010E94812F6A
:1022B000960142E16AE580912C0490912D040E94E0
:1022C000242380912102823041F421E04DE65CE03C
:1022D0006EE180E00E94181D0AC02DE63CE04EE150
:1022E00060E080912C0490912D040E94F622609170
:1022F0004702709148028091490290914A0268C059
:1023000028ED3CE045E060E080912C0490912D04A4
:102310000E94F62220EB3CE045E062E380912C0431
:1023200090912D040E94F62280912C0490912D040E
:102330000EE020E84EE060E004960E9428178091AD
:102340002102813041F421E041EA5CE062E180E079
:102350000E94181D0AC021EA3CE042E160E0809141
:102360002C0490912D040E94F62260913B02709102
:102370003C0280913D0290913E022AE0A6010E941B
:10238000812F960142E16AE580912C0490912D0401
:102390000E94242380912102823041F421E042E90D
:1023A0005CE06EE180E00E94181D0AC022E93CE07A
:1023B0004EE160E080912C0490912D040E94F62261
:1023C00060913F02709140028091410290914202DF
:1023D0002AE0A6010E94812F96014EE16AE58091D4
:1023E0002C0490912D040E9424237FC028ED3CE012
:1023F00045E060E080912C0490912D040E94F6222B
:1024000022ED3CE045E062E380912C0490912D04A4
:102410000E94F62280912C0490912D040EE020E879
:102420004EE060E004960E942817809121028130DE
:1024300041F421E04AEC5CE062E180E00E94181D7A
:102440000AC02AEC3CE042E160E080912C049091CB
:102450002D040E94F6222091340280912C04909148
:102460002D0462E1049621110EC00E946C1D809122
:102470002C0490912D0406E026E044E166E60496E3
:102480000E94A11602C00E946C1D80912102823020
:1024900041F421E042EC5CE06EE180E00E94181D16
:1024A0000AC022EC3CE04EE160E080912C04909167
:1024B0002D040E94F6222091340280912C049091E8
:1024C0002D046EE10496213071F40E946C1D809100
:1024D0002C0490912D0406E026E040E266E6049686
:1024E0000E94A11602C00E946C1D809121028330BF
:1024F00041F421E04CEB5CE068E381E00E94181DB0
:102500000AC02CEB3CE048E361E080912C04909100
:102510002D040E94F62280912102843041F421E0B2
:1025200046EB5CE068E384E60E94181D0AC026EBD7
:102530003CE048E364E680912C0490912D040E94D5
:10254000F62200912C0410912D047801B4E0EB0EDA
:10255000F11CD8015296ED91FC915397309711F0F0
:10256000C7010995F8018680978005A8F6A9E02D96
:1025700082E00995D801D596ED91FC91D69781E03E
:10258000099520E030E045E1B401C7010E941C1626
:10259000888B882341F09801295C3F4F47E1B401C3
:1025A000C7010E941C16D801D596ED91FC91D697D3
:1025B00080E00995B889B1119FC860960FB6F8946C
:1025C000DEBF0FBECDBFDF91CF911F910F91FF9066
:1025D000EF90DF90CF90BF90AF909F908F907F90C3
:1025E0006F905F904F903F902F900895FC01918DD8
:1025F000828D981761F0828DDF01A80FB11D5D9665
:102600008C91928D9F5F9F73928F90E008958FEFD2
:102610009FEF0895FC01918D828D981731F0828D86
:10262000E80FF11D858D90E008958FEF9FEF0895DD
:10263000FC01918D228D892F90E0805C9F4F821B41
:1026400091098F739927089581E893E00E941813E8
:1026500021E0892B09F420E0822F0895FC01848D6C
:10266000DF01A80FB11DA35ABF4F2C91848D90E0BC
:1026700001968F739927848FA689B7892C93A08997
:10268000B1898C9180648C93938D848D981306C04E
:102690000288F389E02D80818F7D80830895EF92F9
:1026A000FF920F931F93CF93DF93EC0181E0888F0C
:1026B0009B8D8C8D981305C0E889F989808185FDF3
:1026C00024C0F62E0B8D10E00F5F1F4F0F731127E4
:1026D000E02E8C8DE8120CC00FB607FCFACFE8890B
:1026E000F989808185FFF5CFCE010E942E13F1CFAD
:1026F0008B8DFE01E80FF11DE35AFF4FF0820B8F27
:10270000EA89FB898081806207C0EE89FF89608346
:10271000E889F98980818064808381E090E0DF919D
:10272000CF911F910F91FF90EF900895CF93DF937A
:10273000EC01888D8823C9F0EA89FB89808185FDB9
:1027400005C0A889B9898C9186FD0FC00FB607FC1A
:10275000F5CF808185FFF2CFA889B9898C9185FF5B
:10276000EDCFCE010E942E13E7CFDF91CF910895D8
:1027700080E090E0892B29F00E94241381110C94B1
:1027800000000895833081F028F4813099F0823080
:10279000A1F008958730A9F08830B9F08430D1F4E1
:1027A000809180008F7D03C0809180008F7780931F
:1027B0008000089584B58F7702C084B58F7D84BD75
:1027C00008958091B0008F7703C08091B0008F7D15
:1027D0008093B00008953FB7F894809102039091E0
:1027E0000303A0910403B091050326B5A89B05C07F
:1027F0002F3F19F00196A11DB11D3FBFBA2FA92F80
:10280000982F8827820F911DA11DB11DBC01CD01FC
:1028100042E0660F771F881F991F4A95D1F70895E8
:102820000895DC011696ED91FC91179712968C9104
:10283000481B477081E090E001C0880F4A95EAF795
:10284000E60FF11D3081222311F0832B02C0809509
:10285000832380830895FC01808D8F5F089580E03D
:1028600008950B96FC01849108950A96FC018491C9
:102870000895FC01849108950E943914882321F061
:10288000823011F083E0089586E008950E94712F50
:1028900068E00C941A1B66E00C941A1B1F920F92AE
:1028A0000FB60F9211242F933F934F935F936F9323
:1028B0007F938F939F93AF93BF93EF93FF9381E8A1
:1028C00093E00E942E13FF91EF91BF91AF919F91E2
:1028D0008F917F916F915F914F913F912F910F90C9
:1028E0000FBE0F901F9018951F920F920FB60F9268
:1028F00011242F938F939F93EF93FF93E091910374
:10290000F09192038081E0919703F091980382FD0A
:1029100012C0908180919A038F5F8F7320919B03E7
:10292000821751F0E0919A03F0E0EF57FC4F958F3A
:1029300080939A0301C08081FF91EF919F918F91C5
:102940002F910F900FBE0F901F901895CF93DF938C
:10295000282F30E0F901E75CF14F8491F901EB5D3C
:10296000F14FD491F901EF5EF14FC491CC2391F076
:1029700081110E94C213EC2FF0E0EE0FFF1FE95F00
:10298000F14FA591B491EC91ED2381E090E021F419
:1029900080E002C080E090E0DF91CF9108951F9326
:1029A000CF93DF93282F30E0F901E75CF14F84915A
:1029B000F901EB5DF14FD491F901EF5EF14FC49154
:1029C000CC23C9F0162F81110E94C213EC2FF0E026
:1029D000EE0FFF1FE350F24FA591B4918FB7F8941B
:1029E000111105C09C91ED2FE095E92302C0EC91F7
:1029F000ED2BEC938FBFDF91CF911F910895CF9373
:102A0000DF9390E0FC01EB5DF14F2491FC01EF5E60
:102A1000F14F8491882361F190E0880F991FFC01A8
:102A2000ED50F24FC591D491FC01E350F24FA591C6
:102A3000B491611109C09FB7F894888120958223D1
:102A40008883EC912E230BC0623061F49FB7F89419
:102A50003881822F809583238883EC912E2B2C93B1
:102A60009FBF06C08FB7F894E8812E2B28838FBFB5
:102A7000DF91CF9108958230910538F0880F991F2A
:102A8000880F991F05970197F1F708958F929F92EC
:102A9000AF92BF92CF92DF92EF92FF926B017C01D7
:102AA0000E94EB134B015C01C114D104E104F10459
:102AB000F1F00E94EB13DC01CB0188199909AA09F6
:102AC000BB09883E9340A105B10570F321E0C21A0D
:102AD000D108E108F10888EE880E83E0981EA11C59
:102AE000B11CC114D104E104F10419F7DDCFFF904A
:102AF000EF90DF90CF90BF90AF909F908F90089510
:102B00002FB7F8946091FE027091FF02809100034C
:102B1000909101032FBF08951F920F920FB60F924D
:102B200011242F933F938F939F93AF93BF938091E3
:102B3000FE029091FF02A0910003B0910103309139
:102B4000FD0223E0230F2D3720F40196A11DB11DB6
:102B500005C026E8230F0296A11DB11D2093FD029A
:102B60008093FE029093FF02A0930003B0930103B1
:102B70008091020390910303A0910403B091050397
:102B80000196A11DB11D8093020390930303A093AE
:102B90000403B0930503BF91AF919F918F913F9133
:102BA0002F910F900FBE0F901F901895FB01418140
:102BB000DC0112962C911297421768F013962C9113
:102BC0001397241740F0608115962C91621718F422
:102BD00024810C9411140895FC0180819281980F36
:102BE00092832181921760F494819F5F94839381F3
:102BF000890F821710F08FEF820F838381E0089591
:102C000080E00895FC0112828081815083831482C8
:102C10000895FC018385803321F48FEF80A381A385
:102C20000895883221F0823021F081E003C08FEFD7
:102C300001C083E080A30895DB01ED91FC9109942C
:102C40008F929F92BF92CF92DF92EF92FF920F935B
:102C50001F93CF93DF931F92CDB7DEB74C01062FA2
:102C6000F42E122F522FE62EE20EBB24BA946C01E2
:102C70008CE1C80ED11C8E2D851B583080F0F401DC
:102C800062817381848FF58E178EB68E96014BE329
:102C9000C40159830E941C1659815850ECCF812FD2
:102CA000887F080F212F277021F187E02827F40162
:102CB00062817381048FF58E178E2F5F27708FEFDF
:102CC00090E001C0880F2A95EAF7868F9401245E70
:102CD0003F4F4BE3C4010F90DF91CF911F910F91B4
:102CE000FF90EF90DF90CF90BF909F908F900C94CB
:102CF0001C160F90DF91CF911F910F91FF90EF90D5
:102D0000DF90CF90BF909F908F900895EF92FF92A9
:102D10000F931F93CF93DF937C01D62F122FC42FD5
:102D2000040F212F4C2F6D2FC7010E942016CF5F5B
:102D30000C13F7CFDF91CF911F910F91FF90EF9080
:102D40000895DF92EF92FF920F931F93CF93DF933B
:102D5000EC01162FF42EE22E0E94F31B882331F093
:102D60002E2D4F2D612FCE010E948616DF91CF911F
:102D70001F910F91FF90EF90DF900895EF92FF92D7
:102D80000F931F93CF93DF931F92CDB7DEB78C01C4
:102D9000DC011296ED90FC901397D196ED91FC9189
:102DA000D29782E0099520E030E04AE0B701C801FF
:102DB0000E941C16F82ED801D196ED91FC91D29765
:102DC00083E00995D801D196ED91FC91D29780E0EE
:102DD0000995FF20A1F1F801628173819E012F5FA7
:102DE0003F4F46E4C8010E941C168981D8018C938C
:102DF00012966D917C9113979E012F5F3F4F47E490
:102E0000C8010E941C168981F80181836281738147
:102E100020E030E048E4C8010E941C16D8011B964F
:102E20008C931B9798012D5C3F4F12966D917C916E
:102E3000139747E1C8010E941C1681E001C080E0A1
:102E40000F90DF91CF911F910F91FF90EF90089518
:102E50008F929F92AF92BF92CF92DF92EF92FF92AA
:102E60000F931F93CF93DF936C01C62F142FD22F94
:102E7000261718F4F62EF21A02C0F22EF61A0117CF
:102E800070F4E12EE01AFE14F0F48F2DFE2CE82EE3
:102E9000812F1D2FD82F8C2FC02F082F0DC0E02E73
:102EA000E11AFE14C8F58F2DFE2CE82E8D2FD02FA1
:102EB000082F8C2FC12F182FAA24A394BF2CB694AF
:102EC000101750F032C0DC1790F5BF2CB694102FBD
:102ED0008C2FCD2FD82FA12C01E0DF3F09F4DEEF9E
:102EE000C6014C964C01DC1720F1F601628173811A
:102EF000A11003C0C48F158F03C0F601148FC58FB6
:102F0000940142E3C6010E941C16BE18B7FE02C01F
:102F1000100FBF0CCF5FE7CFDC1748F4BF2CB6947F
:102F2000102F8C2FCD2FD82FA12C0FEFD6CFA12C67
:102F3000C5CFDF91CF911F910F91FF90EF90DF9060
:102F4000CF90BF90AF909F908F900895DC01149622
:102F50002D913C9115972115310509F43FC05796E5
:102F60008C915797F901811108C03596E4915896D4
:102F7000EC935897F9013C9611C0813041F43F968B
:102F8000E4915896EC935897F901709607C03D96D6
:102F9000E4915896EC935897F9013E96E49159962E
:102FA000EC93599758968C915897082E000C990BD2
:102FB00059962C915997821B910927FD93955A9602
:102FC0002C915A97203441F0829FC001112426E0B1
:102FD000969587952A95E1F75B968C9308952F92A5
:102FE0003F925F926F927F928F929F92AF92BF9229
:102FF000CF92DF92EF92FF920F931F93CF93DF93C5
:103000001F92CDB7DEB71C01C62E142FD22EDC01C5
:103010001496ED90FC901597C7010E943914082F63
:10302000F101848195810E943C14982E013019F49D
:103030008FE0A82E02C0AA24AA94D10114968D91E3
:103040009C9115970E943514082FF1018481958178
:103050000E943114B82ED10114968D919C91159730
:103060000E944814B0E6BD1530F4009721F0E80E38
:10307000F91E01E611C0F101848195810E944B1473
:10308000F0E4FD1530F4009721F0E80EF91E01E49C
:1030900003C021E1E20EF11CBD1480F4D101509671
:1030A0001C92509753961C92539754961C92549787
:1030B00051961C92519752961C92C7C0B01670F34D
:1030C000892D90E0F70124912F3F21F4FFEFEF1AB3
:1030D000FF0A5AC00D114FC0D10114968D919C91D9
:1030E00015970E94391497012F5F3F4FF7018823EE
:1030F00011F08230E1F48491D10153968C9353976F
:10310000F901249154962C935497F7013396E49146
:103110005096EC935097F7013496E4915196EC93C6
:103120005197F7013596E4915296EC9320C0849123
:10313000982F9F709250D10152969C9352978295EE
:103140008F7051968C935197F9012491822F8F7033
:1031500054968C93549722952F7053962C93539793
:10316000F7013296E491E295EF705096EC93E114FA
:10317000F10479F46AC0F7013296E491EA219C01E6
:103180002E0F311DE20EF31E0B1509F487CF0F5FD2
:1031900099CFF101848195810E943C14B82ED10110
:1031A00053969C9053975496DC90549751968C91DB
:1031B0005197C80E52969C919D0D512E591A0D2D66
:1031C000292D452D6C2DC1010E94F31B8823D1F1BF
:1031D000C7018B0D911D5C0187E0890DF82EF694D7
:1031E000F694F694D50C41019CE1890E911C6F2C4C
:1031F000712C5D1439F15C2D8501802F8A198F1592
:10320000E8F4F8018491D10112966D917C911397A5
:103210005C965C935C975D965C925D975F961C9262
:103220005F975E968C9394014BE3C10159830E9492
:103230001C160F5F1F4F5981585FDFCFA60CB71CBC
:103240005394D7CFF101808901C080E00F90DF91C6
:10325000CF911F910F91FF90EF90DF90CF90BF9093
:10326000AF909F908F907F906F905F903F902F9046
:1032700008952EE93FE0009729F0F9013197F1F721
:103280000197F9CF0895109207031092060308954D
:103290008093FE041092B90084FF02C08CE001C04C
:1032A00088E48093B8000C944319DB011496ED91E7
:1032B000FC91159720E030E065E00994CF92DF9211
:1032C000EF92FF920F931F93CF93DF938C017B01BB
:1032D0006A0180E0F601C49181110BC0CF3F09F46F
:1032E00057C04C2FB701C8010E94551981114EC01B
:1032F00054C0CF3F11F44FEFF5CFCE3F09F44FC08C
:10330000C03F08F043C0C03E58F04C2F4F70D7016B
:103310001496ED91FC91159720E030E062E00CC02E
:10332000C03D68F04C2F4F70D7011496ED91FC9181
:10333000159720E030E063E0C801099527C0C03C44
:10334000F8F0D7011496ED91FC91159720E030E04C
:1033500040E064E0C8010995C295C07FCE5FD0E02F
:10336000CE010E943919D7011496ED91FC91159761
:1033700020E030E041E064E0C8010995CE0104C0DE
:10338000C7FD04C08C2F90E00E94391980E001C075
:1033900081E0BFEFCB1ADB0A9DCF80E001C081E066
:1033A000DF91CF911F910F91FF90EF90DF90CF9021
:1033B00008958F929F92AF92BF92CF92DF92FF9229
:1033C0000F931F93CF93DF9300D0CDB7DEB76C017F
:1033D0008B01F42E490120E1421709F456C024174D
:1033E000A0F03AE043135BC0DB011496ED91FC9131
:1033F000159720E030E042E061E0099549E65EE0A3
:10340000B801C6010E945E194AC081E1481709F45B
:103410003FC0A5E14A1343C0FB01A280B38041E64F
:103420005EE0C6010E945E19D50114964C91406B76
:10343000B801C6010E945519D8011496ED91FC916E
:10344000159720E030E041E062E0C6010995F50102
:1034500026813781D8011496ED91FC911597D501FD
:1034600015964C9166E0C6010995811102C080E075
:10347000D3C0D8011496ED91FC91159720E030E06F
:1034800040E063E0C60109950AC048E55EE002C07D
:103490004DE45EE0B801C6010E945E19BCC0F801AF
:1034A00002811381F2E3FF1609F479C0FF15B8F029
:1034B00025E1F21609F480C037E1F31609F492C051
:1034C00084E1F812A8C0D8011696ED91FC911797E7
:1034D00015968C919F01280F311DC90165C0A6E486
:1034E000FA1609F48FC0B7E4FB1609F48FC0EBE3BA
:1034F000FE1291C0D40111968C91119713969C9154
:10350000913029F0933031F4482F885004C048E0BE
:10351000480F01C0482F21E0F8013381381708F423
:1035200020E031E0D80112965C91451708F430E0B4
:1035300051E0481708F050E0822F852B382319F40A
:10354000252309F468C0F401F280913051F030F085
:10355000923049F0933051F42FEF09C020E031E070
:1035600007C021E004C020E03FEF02C020E030E0CF
:10357000F7FE08C0B401C8012A8339830E94D6151A
:1035800039812A81D4018C91830F8C9311968C916F
:103590001197820F11968C93FF0C51F73CC0B40128
:1035A000C8010E94D61537C01192E817F907E1F754
:1035B000C8010E9402162FC0C8010E94EC15882382
:1035C00009F455CFD8011696ED91FC9117971596F1
:1035D0008C919F01280F311DC9011192E817F9073D
:1035E000E1F719C0D4011C92F801828111968C93E5
:1035F00011978581815012968C931297838113962F
:103600008C9309C0D80115968C9103C0D8011196EE
:103610008C91F401808381E00F900F90DF91CF9126
:103620001F910F91FF90DF90CF90BF90AF909F9030
:103630008F900895FC01E60FF11D849190E0982F82
:1036400088273196E4918E0F911D0895909107037C
:10365000911104C0809307036093060308951F939C
:10366000CF93DF9300D0CDB7DEB720ED37E03A83BC
:1036700029839091BC00982399F429813A81232BC6
:1036800051F48091FE04182F127081FD09C081E071
:103690000E94261B06C029813A8121503109E7CFBB
:1036A00011E0812F0F900F90DF91CF911F9108951E
:1036B00084E98093BC0064E080E10C942F1BCF93DD
:1036C0008093BB0084E88093BC0063E080E80E94A4
:1036D0002F1BC82F882389F08091FE04C82FC27049
:1036E00081FD0AC08091B900887F883229F063E0AB
:1036F00082E00E94261B01C0C1E08C2FCF9108956B
:10370000CF93DF93FC0123A5222379F0EC010E94E3
:103710006E22811102C080E009C08EA1811180E477
:103720000E945F1B8823B9F31BA681E0DF91CF9134
:1037300008950F931F93CF93C42F89016330C1F075
:1037400050F4613081F0623009F048C0FC0146A3BA
:1037500021E023A743C0663011F1673079F165306D
:1037600009F03CC00EC0FC0186A50E94481936C075
:10377000FC0116A221E023A7411130C00E94581B72
:103780002DC00E94801B811104C00E94581B80E044
:1037900026C08C2F0E945F1B811120C0F6CF0E9493
:1037A000801B882391F3CC23C9F0F80181918F010C
:1037B0000E945F1B882349F3C150F5CF0E94801BF4
:1037C000882319F3CC2351F0F80184910E945F1BE8
:1037D000882329F00F5F1F4FC150F4CF81E0CF91B4
:1037E0001F910F9108950F93FC010150040F84A9BC
:1037F00096A9941718F0081728F402C0081750F07B
:10380000041740F42150260F83A995A9961720F498
:10381000281720F480E007C0281720F481E026173D
:1038200010F0F8CF81E00F9108952F923F924F92C0
:103830005F926F927F928F929F92AF92BF92CF9240
:10384000DF92EF92FF920F931F93CF93DF9300D0FD
:103850001F92CDB7DEB79B838A83B62E542E122FCC
:10386000A02E0E94F31B882309F45FC087E0810F1C
:10387000C82EC694C694C694D12C252C2A0C87E059
:10388000482E4B0C812F869586958695682E712C37
:103890000B2D98E0899F000D1124342C310E8A8065
:1038A0009B80ECE18E0E911C1770521409F43DC000
:1038B0005701542D832D851B8830B8F0F501849174
:1038C000EA81FB8162817381548F558E92E0978FDC
:1038D000868F94014BE3CF0159830E941C16EFEFB2
:1038E000AE1ABE0A5981585FE5CFF701E60DF71D04
:1038F000A12E1123B1F0B490502FB0FE0DC0EA817B
:10390000FB8162817381548F558E940142E3CF0114
:1039100059830E941C1659815F5FAA94B694A11026
:10392000ECCFEC0CFD1C5394C0CF0F900F900F9078
:10393000DF91CF911F910F91FF90EF90DF90CF908B
:10394000BF90AF909F908F907F906F905F904F90BF
:103950003F902F900895EF92FF921F93CF93DF93A4
:10396000182F80917F03823018F061E00E94CF14FD
:1039700080917D0390917E030E943B158EE9E82E95
:1039800081E0F82EE7018C2F8E19811730F46991B0
:1039900081E893E00E944F13F6CF81E893E00E9404
:1039A000961380917B0390917C030E943B1580913C
:1039B0007F03823040F060E0DF91CF911F91FF9054
:1039C000EF900C94CF14DF91CF911F91FF90EF9067
:1039D0000895DF92EF92FF920F931F93CF93DF939F
:1039E000EC01D62E142F6A817B817C018CE1E80EDC
:1039F000F11CDC8E4D8F01E00F8F8FEF8E8F9701C2
:103A00004BE3CE010E941C166A817B81DC8E185F1D
:103A10001D8F0F8F80EC8E8F97014BE3CE01DF91CE
:103A2000CF911F910F91FF90EF90DF900C941C1697
:103A3000EF92FF920F93CF93DF93352F222309F458
:103A40003DC0E42FF52F9E2F941B2491222311F0CB
:103A50003196F9CF7F01E91AF108823018F0CEEFE4
:103A6000C80F01C0C0E0D62F292F220F920F990F47
:103A700021E0290F4FEF460F6FEF6C0FE0912C0400
:103A8000F0912D040BE0CF0104960E94A1168091C5
:103A90002C0490912D04FC0114A297014D2F6C2F42
:103AA0000E94F622E0912C04F0912D0481E084A381
:103AB000DF91CF910F91FF90EF900895242F462F23
:103AC000682F80912C0490912D04DF91CF910F915C
:103AD000FF90EF900C94F622EF92FF920F93CF930A
:103AE0007C01C62F0AE02AE0462F64E60E94F31B01
:103AF0008823D9F02AE04C2F64E6C7010E942016E3
:103B00004C2F64E6C7010E94E91C4C2F6DE6C701EB
:103B10000E94E91C49E04C0F2AE064E6C701CF91FE
:103B20000F91FF90EF900C942016CF910F91FF9082
:103B3000EF900895CF92DF92EF92FF926B017C019C
:103B4000E0919103F091920382E08083C11481EEB1
:103B5000D806E104F104B1F060E079E08DE390E093
:103B6000A70196010E94ED30DA01C9010197A10970
:103B7000B109B695A795979587959C01211580E188
:103B80003807B8F0E0919103F0919203108260E859
:103B900074E88EE190E0A70196010E94ED30DA0111
:103BA000C9010197A109B109B695A7959795879580
:103BB0009C01E0918D03F0918E033083E0918F039F
:103BC000F0919003208310929903E0919503F09176
:103BD000960386E08083E0919303F09194038081C3
:103BE00080618083E0919303F091940380818860E9
:103BF0008083E0919303F0919403808180688083B7
:103C0000E0919303F091940380818F7D8083FF90F6
:103C1000EF90DF90CF9008958093800381E893E048
:103C20000E949613E1E8F3E0A289B3898C918F7E1C
:103C30008C93A289B3898C91877F8C93A289B38955
:103C40008C918F778C93A289B3898C918F7D8C9383
:103C5000828D818F60E07BE480E090E00E949A1D7D
:103C600084E080937F0361E00E94FF1460E084E0C1
:103C70000E94CF148DE093E090937E0380937D03A8
:103C80008EE197E090937C0380937B038FE190E03B
:103C900090937A03809379031092780310927703BC
:103CA0000895909176039111FCCF91E09093760363
:103CB000909375032FEF2093740310927303260FD4
:103CC000209372039093710390917103880F892B55
:103CD0008093710380917003813061F410927003BE
:103CE000809171038093BB008091BC0083FDF8CF6D
:103CF00085EC01C085EE8093BC0080917603813015
:103D0000E1F380917303861710F460917303A0E5CB
:103D1000B3E020E333E0F9018E2F821B861718F4FD
:103D20008D918193F9CF862F0895382F20912F03FD
:103D300090912E03213208F049C0809176038111C1
:103D4000FCCF42E040937603309375033FEF30930E
:103D500074031092730320937203AEE0B3E040E566
:103D600053E0FA013E2F341B321718F43D91319382
:103D7000F9CF1092710320917103990F922B9093B8
:103D8000710390917003913061F4109270039091DF
:103D900071039093BB009091BC0093FDF8CF95EC1C
:103DA00001C095EE9093BC00909176039230E1F3C0
:103DB000909174039F3F79F080917403803241F0B9
:103DC00080917403803331F084E005C081E003C04A
:103DD00082E001C083E010920D0310922F03109235
:103DE0000C030895CF93C62F91E090930C0390E2BB
:103DF00090932E0310920D0310922F03682F8EE1E3
:103E000094E00E94C61F6C2F8EE194E00E94C61FB2
:103E100081E0CF910C94951E8830A0F490E0209121
:103E20000903FC01E45DFE4F8081662311F0282B1D
:103E300002C080952823209309036091090381E043
:103E40000E94F21E80E00895883080F4E82FF0E0B0
:103E5000E45DFE4F6081609580910B036823609361
:103E60000B0383E00E94F21E81E0089580E0089534
:103E700085ED8093BC008091BC0084FDFCCF109246
:103E8000760308954091D004262F30E0240F311D91
:103E900021323105DCF4209176032430C9F4FC0191
:103EA00080E090E0861758F43091D0042191DC0135
:103EB000A255BB4FA30FB11D2C930196F3CF809158
:103EC000D004680F6093D00480E0089581E00895E5
:103ED00082E008950895E09100058091FF04E817BD
:103EE00030F4F0E0E05DFC4F808190E008958FEFCA
:103EF0009FEF0895909100058091FF04981750F46A
:103F0000E92FF0E0E05DFC4F208130E09F5F90936F
:103F1000000502C02FEF3FEFC90108958091FF0413
:103F200090E020910005821B91090895CF92DF92C5
:103F3000EF92FF920F931F93CF93DF937C01262F75
:103F4000972F8A0180910C03882391F0C62FD72FD9
:103F50006E01C40ED51ECC15DD0571F06991D70137
:103F6000ED91FC910190F081E02DC7010995F3CF0F
:103F7000642F822F0E94421FC801DF91CF911F91B1
:103F80000F91FF90EF90DF90CF900895CF93DF9344
:103F90001F92CDB7DEB7698320910C032223D1F0A5
:103FA00020912F03203240F021E030E0FC013383E8
:103FB000228380E090E015C080910D03E82FF0E0AF
:103FC000E25FFC4F998190838F5F80930D03809314
:103FD0002F0305C061E0CE0101960E94421F81E0DF
:103FE00090E00F90DF91CF9108950C94D92E4EE977
:103FF00051E0FA012FEF3FEF9E2F941B981788F4A2
:104000009191292798E0B901617077273695279516
:10401000672B21F061E0262760EA3627915099F757
:10402000EBCF922F832F089520917703309178035F
:104030002F5F3F4F309378032093770390919D013A
:10404000911115C09091800390939E0190919C01D5
:10405000906890939F018093A00183E00E94F71FD6
:104060009093A1018093A20185E00C94AB1C08956C
:104070001F920F920FB60F9211242F933F934F93DD
:104080005F936F937F938F939F93AF93BF93EF93C0
:10409000FF938091FC049091FD048093B200809185
:1040A000F8049091F904A091FA04B091FB040196F0
:1040B000A11DB11D8093F8049093F904A093FA0414
:1040C000B093FB048091F8049091F904A091FA0454
:1040D000B091FB048091F70481111AC081E08093B4
:1040E000F7048091F8049091F904A091FA04B0913A
:1040F000FB048093F8049093F904A093FA04B0931E
:10410000FB04E091F504F091F60409951092F70490
:10411000FF91EF91BF91AF919F918F917F916F919F
:104120005F914F913F912F910F900FBE0F901F9075
:10413000189508951F920F920FB60F9211242F9386
:104140003F934F935F936F937F938F939F93AF931F
:10415000BF93EF93FF938091B900887F803609F475
:104160009CC068F5883209F45BC090F4803109F492
:1041700054C038F4882309F4F6C0883009F44DC0DF
:10418000F6C0883109F44CC0803209F45DC0EFC03C
:10419000803409F468C048F4803309F455C088338A
:1041A00009F0E5C080937403D8C0803509F44FC08E
:1041B000883509F45DC0883409F0D9C0D6C0883983
:1041C00009F4C7C0A8F4883709F467C038F4883602
:1041D00009F463C0803709F460C0C9C0883809F4A5
:1041E000B8C0803909F45FC0803809F0C0C05BC036
:1041F000803B09F486C038F4803A09F466C0883AF6
:1042000009F47FC0B4C0803C09F4A7C0883C09F41D
:10421000A4C0883B09F48AC0AAC08091710310C071
:104220009091730380917203981770F5E091730376
:1042300081E08E0F80937303F0E0E05BFC4F8081A0
:104240008093BB0085EC86C0809374038EC0E091A0
:10425000730381E08E0F809373038091BB00F0E0C5
:10426000E05BFC4F808390917303809172036EC07A
:10427000E091730381E08E0F809373038091BB0004
:10428000F0E0E05BFC4F80838091750381116DC08D
:1042900081E08093700384EA61C083E080937603B9
:1042A0001092F404CFCF8091F404803208F051C012
:1042B000E091F40481E08E0F8093F4048091BB00C0
:1042C000F0E0EC52FB4F8083BDCF85EC8093BC00C7
:1042D000109276038091F404803230F4E091F4047B
:1042E000F0E0EC52FB4F10826091F40470E0E0913A
:1042F000D204F091D30484ED94E009951092F40473
:1043000036C084E0809376031092D1041092D004DA
:10431000E091CE04F091CF0409958091D0048111F1
:1043200005C081E08093D0041092AE04E091D104E6
:1043300081E08E0F8093D104F0E0E255FB4F808145
:104340008093BB009091D1048091D004981708F419
:1043500079CF85E88093BC000AC085EC8093BC00CF
:104360001092760304C0109274030E94381FFF91CC
:10437000EF91BF91AF919F918F917F916F915F91DD
:104380004F913F912F910F900FBE0F901F90189556
:104390000F931F93CF93DF93EC0188810E94A614A3
:1043A0002F8130E08217930779F00E9480156B838C
:1043B0007C838D839E8388810E94A61421E0892BB3
:1043C00009F420E02F831DC00E9480150B811C8101
:1043D0002D813E81AB01BC01401B510B620B730B65
:1043E00089819A81A0E0B0E0481759076A077B07E6
:1043F00040F08F8188870E9480156B837C838D833A
:104400009E83DF91CF911F910F9108959C01809120
:104410006F02853069F490912102492F50E04217D4
:10442000530714F49F5F0BC081E08093210208952D
:10443000843051F490912102923020F09150909369
:1044400021020895209321020895CF92DF92EF92E6
:10445000FF920F931F93CF93DF936C017A018B012F
:10446000C0E0D0E0CE15DF0589F0D8016D918D0157
:10447000D601ED91FC910190F081E02DC6010995E6
:10448000892B11F47E0102C02196ECCFC701DF9188
:10449000CF911F910F91FF90EF90DF90CF900895F3
:1044A00091E090930C0390E290932E0310920D03F1
:1044B00010922F03682F8EE194E00E94C61F81E0C6
:1044C0000E94951E61E080E20E94511E109200053C
:1044D0008093FF048EE194E00C947A1FCF9384EADA
:1044E0008093BC0061E080E80E942F1B882359F074
:1044F0008091B900887F883041F0803131F061E0EF
:1045000082E00E94261BC0E01DC088E78093BB00AC
:1045100084E88093BC0062E080E80E942F1B88231F
:1045200091F38091FE04C82FC27081FD0AC0809172
:10453000B900887F883129F062E082E00E94261B62
:1045400001C0C1E08C2FCF910895CF92DF92EF92FE
:10455000FF920F931F93CF93DF931F92CDB7DEB7D8
:104560006C01DC01DC961C91DC97DB960C917C01E4
:10457000B4E0EB0EF11CDC015996ED91FC915A97D9
:10458000C70169830995482F410F2981602FC70111
:104590000E94EF17F60123AD082E000C990B820F35
:1045A000911D83AF81E090E00F90DF91CF911F913B
:1045B0000F91FF90EF90DF90CF9008950F931F938E
:1045C000CF93DF9302E312E0C0E0D2E0F801619103
:1045D0008F01CE010E94DF302196C132F2E0DF0769
:1045E000A9F7DF91CF911F910F910895CF92DF929C
:1045F000FF920F931F93CF93DF93D62FF42E890151
:104600006C0124E0C20ED11CDC015996ED91FC91A5
:104610005A97C6010995F80EC0E0F80124912223AB
:1046200051F04F2D6D2FC6010E94EF17D80FC80F04
:104630000F5F1F4FF2CF8C2FDF91CF911F910F9102
:10464000FF90DF90CF900895AF92BF92CF92DF920C
:10465000FF920F931F93CF93DF9300D0CDB7DEB7B8
:10466000F62E042F6C0144E0C40ED11CDC015996D7
:10467000ED91FC915A97C60129833A830995080F59
:104680002981A22E3A81B32E10E0F50121915F011C
:10469000222341F0402F6F2DC6010E94EF17F80E24
:1046A000180FF3CF812F0F900F90DF91CF911F91B3
:1046B0000F91FF90DF90CF90BF90AF9008957894C6
:1046C00084B5826084BD84B5816084BD85B5826017
:1046D00085BD85B5816085BD80916E0081608093C8
:1046E0006E00109281008091810082608093810031
:1046F0008091810081608093810080918000816041
:10470000809380008091B10084608093B10080919B
:10471000B00081608093B00080917A0084608093C3
:104720007A0080917A00826080937A0080917A008A
:10473000816080937A0080917A00806880937A000B
:104740001092C1001092E2021092E3021092E40271
:104750001092E5021092B0021092B1021092B202D1
:104760001092B30260ED77E080E090E00E94461581
:1047700081E893E09093E1028093E00260E072ECC4
:1047800081E090E00E949A1D0E9480150091B00285
:104790001091B1022091B2023091B302DC01CB0141
:1047A000801B910BA20BB30BC297A105B10538F486
:1047B00063E070E080E090E00E944615E5CF0E9443
:1047C00080156093B0027093B1028093B20290930F
:1047D000B3028091E0029091E102DC01ED91FC9145
:1047E0000280F381E02D41E150E069E871E0099534
:1047F0006AE070E080E090E00E94461502E312E07B
:10480000C0E0D2E0CE010E94D730F80181938F0141
:104810002196C132F2E0DF07A9F780914D02909115
:104820004E028433924109F45DC084E392E1909397
:104830004E0280934D0288EC90E09093500280935A
:104840004F0284E695E0909352028093510281E0FA
:10485000809332028093340288EB9BE0909336027F
:1048600080933502909338028093370290933A02F6
:10487000809339028FE090E0A0E0B0E080933B02AB
:1048800090933C02A0933D02B0933E0281E090E001
:10489000A0E0B0E080933F0290934002A0934102D9
:1048A000B09342028AE090E0A0E0B0E0809343023F
:1048B00090934402A0934502B093460284E190E0B5
:1048C000A0E0B0E08093470290934802A093490291
:1048D000B0934A0288E790E090934C0280934B0299
:1048E0000E94DE2210922F0260E088E00E94FF14F6
:1048F00088E0809366028091350290913602909311
:104900006802809367020E94801560936902709329
:104910006A0280936B0290936C0210926D02109267
:104920006E0260E086E00E94FF1486E080935402ED
:1049300080913702909138029093560280935502ED
:104940000E94801560935702709358028093590219
:1049500090935A0210925B0210925C0260E087E032
:104960000E94FF1487E080935D028091390290914C
:104970003A0290935F0280935E020E9480156093DA
:1049800060027093610280936202909363021092BE
:104990006402109265021092310210923002C1E05E
:1049A000C093F7021092F3021092F4021092F502F3
:1049B0001092F60210922202109223021092240208
:1049C000109225021092F8021092F9021092FA0247
:1049D0001092FB0210922B0210922C0210922D02C8
:1049E00010922E0261E082E00E94CF1464E670E033
:1049F00080E090E00E94461561E082E00E94FF1492
:104A0000109200051092FF0410920D0310922F03D4
:104A100010927603C09375031092700361E082E1F7
:104A20000E94CF1461E083E10E94CF148091B9000D
:104A30008E7F8093B9008091B9008D7F8093B900FB
:104A400088E48093B80085E48093BC0081E390E023
:104A50000E94442EFC018DE4808384E793E19283DD
:104A6000818314A613A615A616A617A610AAF0935E
:104A7000EE02E093ED0280E00E9450228093080352
:104A800081E00E9450228093090382E00E9450221C
:104A900080930A0383E00E94502280930B0380E0FE
:104AA0000E94241F81E00E94241F82E00E94241F94
:104AB00083E00E94241F60E080E00E940C1F60E001
:104AC00081E00E940C1F60E082E00E940C1F60E009
:104AD00083E00E940C1F109270026AE070E080E098
:104AE00090E00E9446150E94190B68EE73E080E08A
:104AF00090E00E944615C0937002C093210288EE98
:104B000093E0909372028093710281E090E0909321
:104B10007402809373028FE190E090937602809309
:104B2000750210929E0210929D0261E084E00E9444
:104B3000FF1460E084E00E94CF1482E00E940C1E0B
:104B400082E08093320260E080E00E94FF140CE279
:104B5000802E99249394A12CB12C10929E02109235
:104B60009D0210E0D0E081E893E00E941813892BA9
:104B7000E1F0112329F081E893E00E94F6120EC0C3
:104B800011E0D03809F010E081E893E00E94F612BD
:104B9000ED2FF0E0E256FE4F8083DF5F80917D03D2
:104BA00090917E030E943B15DECF1111E7C0D730F4
:104BB00008F4E1C080919E01882319F010929D01B4
:104BC00002C0C0939D0100918003801729F080915D
:104BD0009D01882309F4DBC0ED2EF12C8EEF8D0FA3
:104BE0000E94F71FA70142565E4FFA0132972081BB
:104BF00030E0322F222731964081242B82179307F1
:104C000009F0BCC090919F0190939C012091A0015C
:104C100030E0322F22278091A101282B6091A20140
:104C200070E0762F66278091A301682BAB01420FBD
:104C3000531F10919D0111113FC09330E9F58091F0
:104C4000790390917A032817390708F04BC084172D
:104C5000950780F1862F880F15E0180F00939E01AD
:104C60008093A00193E0E22FF0E0E417F507A0F4B1
:104C7000EE0FFF1FEF58FD4F30816181E92FF0E00B
:104C8000E256FE4F6083E1E0E90FF0E0E256FE4FAE
:104C900030839E5F2F5FE7CF8D5F0E94F71F212F2C
:104CA00030E022563E4FF90132979083319680834F
:104CB000812F31C083E05CC09630B1F0903109F0B3
:104CC00056C08091A40190E069E0E61AF1088E15C3
:104CD0009F0509F053C08091790390917A032817BA
:104CE0003907E0F082E044C08091790390917A0323
:104CF00028173907B8F7C901880F991FFC01EF5829
:104D0000FD4F7183608386E00E94F71F9093A4019A
:104D10008093A50188E00E94AB1C39C084179507D9
:104D200048F2822F97E0282F30E024173507A8F4A7
:104D3000692F70E0220F331FF901EF58FD4FDB019F
:104D4000A256BE4F11962C9111976C9130E0362BE4
:104D5000318320839E5F8F5FE6CF86E00E94F71F3E
:104D60009093A4018093A501111111C0D3CF81E0CC
:104D70000E9414200CC0D150D73048F480917703A2
:104D800090917803019690937803809377038091B4
:104D90009D0290919E02883C910549F482E08093A7
:104DA00070020E94190B60E082E00E94CF14109202
:104DB0006F0280916502D82FDD0F90915C02A4E014
:104DC0009A9FC00111248D2BD0916E02D82B86E6BC
:104DD00092E00E94C8218DE592E00E94C82184E5FE
:104DE00092E00E94C82180916502880F90915C0238
:104DF000B4E09B9F90011124822B90916E02892B2D
:104E000080935302D813D093FC02909134029130D6
:104E100039F5823018F4C093310220C0823039F461
:104E20008091FC028230B8F49093310214C0833038
:104E300029F48091FC02823088F4EDCF2CEF280F0A
:104E400010923102223028F41092300290932F02F7
:104E500007C0863019F49093300202C010923002DD
:104E6000109130021123B9F08091F8029091F9026B
:104E7000A091FA02B091FB02892B8A2B8B2B59F45B
:104E80000E9480156093F8027093F9028093FA02F1
:104E90009093FB022AC00E948015C090F802D09027
:104EA000F902E090FA02F090FB02DC01CB018C19D0
:104EB0009D09AE09BF0980932B0290932C02A09309
:104EC0002D02B0932E02111110C01092F802109210
:104ED000F9021092FA021092FB0210922B02109229
:104EE0002C0210922D0210922E0280913102882302
:104EF00009F48FC48091F7028823B1F00E948015D5
:104F00006093F3027093F4028093F5029093F6029B
:104F1000C0932A021092F702609326027093270230
:104F200080932802909329020E9480150091F30239
:104F30001091F4022091F5023091F602DC01CB01D0
:104F4000801B910BA20BB30B809322029093230240
:104F5000A0932402B09325020E9480152B013C01EE
:104F6000C0902602D0902702E0902802F0902902FB
:104F700020913B0230913C0240913D0250913E0213
:104F8000A8EEB3E00E940F31DC01CB018C0D9D1D1A
:104F9000AE1DBF1D481659066A067B0608F453C4A9
:104FA00010922A020E9480156B017C0120913F0221
:104FB000309140024091410250914202A0E6BAEE87
:104FC0000E940F312B013C0120913B0230913C02A9
:104FD00040913D0250913E02A8EEB3E00E940F3195
:104FE000461A570A680A790AC40CD51CE61CF71C35
:104FF000C0922602D0922702E0922802F092290263
:105000008091530284508230B8F1609122027091F5
:105010002302809124029091250220E63AEE40E09E
:1050200050E00E94ED308091430290914402A091A3
:105030004502B0914602281739074A075B07F8F482
:1050400060912B0270912C0280912D0290912E0282
:1050500028EE33E040E050E00E94ED3080914702BE
:1050600090914802A0914902B0914A028217930799
:10507000A407B50720F00FC0C0932F0203C082E041
:1050800080932F0260E080E00E940C1F60E082E0CD
:105090000E940C1F1CC010922F02809131028823A5
:1050A00011F061E001C060E080E00E940C1F80917F
:1050B0003002882311F061E001C060E082E00E94CC
:1050C0000C1F80912A02882311F061E001C060E08A
:1050D00081E00E940C1FC090EF02D090F002E0909F
:1050E000F102F090F202E5EFCE16E1E0DE06E10417
:1050F000F10408F489C00091ED021091EE027801EC
:10510000F3E0EF0EF11CC8018996F701228133818B
:1051100021933193E817F907C9F762E0D8018C9120
:105120000E94511E109200058093FF04882369F0AD
:105130008EE194E00E947A1F382E212C8EE194E0BB
:105140000E947A1F820D931D02C080E090E0F8015A
:1051500092A781A79801255D3F4F80E090E0D7019D
:105160004D915D917D01840F951FA217B307B9F78B
:1051700064E170E00E941C2D072E000C880B990B37
:105180000E94DE2F20E030EF4FE755E40E94A32D70
:105190006B017C01F80161817281072E000C880B84
:1051A000990B0E94DE2F9B01AC01C701B6010E9442
:1051B000193020E030E048E453E40E94A32D20E0C1
:1051C00030E040E85FE30E94362D9B01AC0160E0D7
:1051D00070E08AE794E40E94A32D9B01AC0160E09B
:1051E00074E284E799E40E94A32D0E94152E709327
:1051F0001F0260931E021092EF021092F0021092B2
:10520000F1021092F20210C00E948015DC01CB0165
:105210008C199D09AE09BF098093EF029093F002AB
:10522000A093F102B093F20280E480937C0080911D
:105230007A00806480937A0080917A0086FDFCCFAA
:10524000809178002091790090E0922B9093E80271
:105250008093E702A0E2B1E0E4E1F1E010E02D91FB
:105260003D918217930728F0208131812817390753
:1052700028F41F5F3296163091F710E08091E60215
:10528000882371F0181761F080936F020E948015D7
:105290006093E9027093EA028093EB029093EC0230
:1052A0001093E6020E9480150091E9021091EA0233
:1052B0002091EB023091EC02DC01CB01801B910BC1
:1052C000A20BB30B803C944DA140B10528F08AE0BD
:1052D00080937002C0932102D0916F02DD2309F404
:1052E00093C2809170028A3019F4C09370023CC05E
:1052F000813059F4D13009F087C280912102813088
:1053000009F082C2C09321023BC1833081F587E05E
:1053100090E00E940622D13009F076C280912102ED
:10532000843041F487E0809370028091330280934F
:1053300020021AC0833011F484E014C0873019F4BD
:10534000D093700211C0853011F488E00BC0863014
:1053500011F489E007C0823011F486E003C0813087
:1053600019F485E080937002C09321024DC287300A
:1053700009F05DC084E090E00E940622D130A9F4DB
:1053800080912102833009F4BDCF843009F03CC202
:1053900080912002809333020E94DE2280913302AA
:1053A0000E940C1ED0932102EBC0D33091F4809167
:1053B0002102823001F580913202833019F410927B
:1053C000320222C2813011F482E012C08430E0F750
:1053D0001BC2D23009F018C2809121028230C9F478
:1053E00080913202823009F40DC2811109C283E03A
:1053F0008093320209C2813009F006C280912002F6
:105400009FEF980F9D3F10F48F5F0EC0C093200256
:10541000FBC1813009F0F8C1809120029EEF980F06
:105420009D3F08F00EC2815080932002EDC1843070
:1054300009F0AAC085E090E00E9406228091210236
:10544000813039F5D23091F48091670290916802F1
:10545000883E23E0920718F0885E934002C080E007
:105460009DE79093680280936702CEC1D33009F024
:10547000CBC1809167029091680281304DE794071B
:1054800018F488519C4FEDCF109268021092670279
:10549000BBC1823039F5D23091F4809155029091A0
:1054A0005602883E63E0960718F0885E934002C07B
:1054B00080E09DE79093560280935502A5C1D330BA
:1054C00009F0A2C180915502909156028130ADE75A
:1054D0009A0718F488519C4FEDCF10925602109203
:1054E000550292C1833039F5D23091F480915E0239
:1054F00090915F02883EB3E09B0718F0885E93406E
:1055000002C080E09DE790935F0280935E027CC1C1
:10551000D33009F079C180915E0290915F028130B1
:10552000EDE79E0718F488519C4FEDCF10925F0273
:1055300010925E0269C1D13009F066C1843009F46D
:10554000E1CE853009F060C1C093210280916702ED
:1055500090916802909336028093350280915502B3
:1055600090915602909338028093370280915E02A8
:1055700090915F0290933A02809339020E94DE225A
:1055800083E08093700240C1853009F082C084E0DE
:1055900090E00E940622809121028130F1F5D23004
:1055A000D1F480913B0290913C02A0913D02B091D8
:1055B0003E0282309105A105B10520F00197A109B5
:1055C000B1091DC080923B0290923C02A0923D0224
:1055D000B0923E0219C1D33009F016C180913B024E
:1055E00090913C02A0913D02B0913E028D32F1E0DB
:1055F0009F07A105B10560F40196A11DB11D80931F
:105600003B0290933C02A0933D02B0933E02FCC04B
:1056100081E090E0A0E0B0E0F2CF823009F047C036
:10562000D230B1F480913F0290914002A0914102AA
:10563000B09142028F319105A105B10520F001978B
:10564000A109B1091DC080EF90E0A0E0B0E018C052
:10565000D33009F0D9C080913F0290914002A091CF
:105660004102B0914202813F9105A105B10520F4AC
:105670000196A11DB11D04C08EE190E0A0E0B0E054
:1056800080933F0290934002A0934102B093420264
:10569000BBC0863009F090C084E090E00E940622F2
:1056A00080912102813079F0823009F449C0D130F3
:1056B00009F0AAC0833009F425CE843009F0A4C0D3
:1056C000C09321025BCFD230A9F480914302909124
:1056D0004402A0914502B09146020097A105B10590
:1056E00021F00197A109B10919C080E09DE7A0E070
:1056F000B0E014C0D33009F087C08091430290918C
:105700004402A0914502B09146028130EDE79E0728
:10571000A105B10560F40196A11DB11D809343025E
:1057200090934402A0934502B09346026DC010923C
:10573000430210924402109245021092460264C045
:10574000D230A9F48091470290914802A091490279
:10575000B0914A020097A105B10521F00197A10976
:10576000B10918C088E790E0A0E0B0E013C0D330E2
:1057700009F04AC08091470290914802A0914902E5
:10578000B0914A0289379105A105B10560F40196EF
:10579000A11DB11D8093470290934802A093490236
:1057A000B0934A0231C01092470210924802109200
:1057B000490210924A0228C08830D9F484E090E06F
:1057C0000E9406228EEF8D0F823070F480912102AC
:1057D000813071F590913402911103C080933402AD
:1057E00013C01092340210C0D13071F480912102A4
:1057F00061CF893049F481E090E00E9406227ACDA1
:10580000843010F0C09332020E94190B0E94B8132A
:10581000A4C90E9480156093F3027093F4028093F0
:10582000F5029093F60210922A02C093F702E8CB99
:10583000823051F7809134028111D3CFC09334026A
:10584000E3CF8EEFF1CD0E9480156C157D058E059E
:105850009F0508F4D5CB20913B0230913C0240914A
:105860003D0250913E02A8EEB3E00E940F31C60EF9
:10587000D71EE81EF91E0E948015C616D706E80638
:10588000F90608F4BDCBC0932A02BACBEF92FF927F
:105890000F931F93CF93DF9310928403109283038F
:1058A00088EE93E0A0E0B0E08093850390938603B8
:1058B000A0938703B093880328E331E030938203F9
:1058C0002093810325EC30E030938E0320938D03E9
:1058D00024EC30E03093900320938F0320EC30E0F1
:1058E000309392032093910321EC30E030939403A2
:1058F0002093930322EC30E030939603209395039A
:1059000026EC30E0309398032093970310929A038B
:1059100010929B0310929C0310929D0310922104FD
:10592000109220048093220490932304A0932404D3
:10593000B093250488E491E090931F0480931E04A3
:1059400088E691E090932B0480932A048EE390E004
:105950000E94442EEC011B821A8288E591E0998313
:1059600088831BAE1CAE1DAE7E0124E0E20EF11C4E
:10597000198618861B861A861D8681E08C8782E22E
:105980008E871B8A1A8AFE01B796CE01C5962FEF25
:105990002193E817F907E1F781E08CA30FE214E106
:1059A0001A8F098F8B8F1C8E1D8E80E48E8F1F8E19
:1059B00080E194E19EAB8DAB88E091E09F838E8384
:1059C00082E18AABC7010E94BE1680E691E099830E
:1059D0008883D0932D04C0932C04888599858F5893
:1059E0009E4049F08FE89EE099878887C7010E9412
:1059F000A6171A8F098F80912C0490912D0421E015
:105A0000FC01238F04960E94A61780912C0490918C
:105A10002D0404960E940916E0912C04F0912D04A7
:105A20008BE294E1928F818FDF91CF911F910F9143
:105A3000FF90EF9008950895AA1BBB1B51E107C08A
:105A4000AA1FBB1FA617B70710F0A61BB70B881F0E
:105A5000991F5A95A9F780959095BC01CD0108959D
:105A6000EE0FFF1F0590F491E02D09945058BB27CD
:105A7000AA270E944E2D0C949D300E948F3038F042
:105A80000E94963020F039F49F3F19F426F40C94CC
:105A90008C300EF4E095E7FB0C948630E92F0E94E1
:105AA000AE3058F3BA17620773078407950720F0E2
:105AB00079F4A6F50C94D0300EF4E0950B2EBA2FA5
:105AC000A02D0B01B90190010C01CA01A001112404
:105AD000FF27591B99F0593F50F4503E68F11A16B0
