:100000000C945F050C9487050C9487050C94870568
:100010000C9487050C9487050C9487050C94870530
:100020000C9487050C94FC140C9487050C9487059C
:100030000C9487050C9487050C9487050C94870510
:100040000C94600E0C9487050C9448120C942212A8
:100050000C9487050C9487050C9487050C948705F0
:100060000C945E150C948705EE05FE0598079D0718
:100070003D08AD0AAD0AAD0A0909AD0AEE094C0A00
:1000800044494D4D000054696D650000534156458B
:10009000000061637469763A200000546865204965
:1000A00044206D75737420626520756E6971756585
:1000B00000004241434B000080008000841008088B
:1000C000C001E003F007F777F007E003C00108087C
:1000D000841080008000000000000000F00FFC3F52
:1000E0001E7887E1F3CF381C1818C003E0072004FE
:1000F00080018001000000000000007C00440044FA
:10010000007C00100010FFFFFFFF080008003E0009
:10011000220022003E0000004D6F646275730000F3
:100120006669726D7761726520000049443A00008B
:100130006D6172656C6162200000496E666F00003F
:10014000574C414E00005345545550000021212189
:100150005550444154494E472121210000000000E0
:100160000000000000F800007C000000000000001B
:100170000000F800007C000000000000000000F813
:1001800000007C00DFE303FF87FF813FF8F83F7C3E
:100190001FFFFFC3FF8FFFE3FFF8FE7FFC7FFFFF22
:1001A00007009FFFF3F1F900F8FC7F9FCF07FF9F47
:1001B000CFFBE0FBF8FFFCFC9FCF87FF9FCFFBFF4F
:1001C000FBFCFF7CF89FCFC7079F0FF8FFFB3EF8B3
:1001D0007CF89FCFC7879F0FF800F83EFCFCFC9F80
:1001E000CFC7FF9F0FF0F1FBFEFFFC7F9FCF87FF84
:1001F0009F0FE0FFF9FCFFFC7F9FCF073F9F0F8021
:100200007FF8F8F97C1F00000000000000000000EB
:1002100000000000000000000000000000000000DE
:100220000000000000E0FBBEEFFBA2EFFB000000BF
:100230000000208A822888A22808000000000020F0
:10024000FA8EE88BA22F380000000000200A8208F6
:100250008AA224080000000000E00BBEE8FBBEE814
:10026000FBFFE0FFD1AFFF32FFD0FFFEFFE0FFD189
:10027000AEFFD0FFFEFFE0FFD11000FFFEFFD0FF7A
:10028000E0FFC1FFD1AED580A83FD300408D142040
:1002900002A1C8DA1281CFD9F1DB402EA4A6AFFFAC
:1002A000D0FFFE00000000240027002A000000000C
:1002B00000250028002B00000000080002010000BB
:1002C00003040700000000000000003E3F405B5CAC
:1002D0005D5E607B7C7D7E20204B45593100212274
:1002E0002324252628292A2B2C2D2E2F3A3B3C3D32
:1002F00000737475767778797A2040232426254E0A
:10030000455854006162636465666768696A6B6C2E
:100310006D6E6F70797200535455565758595A3054
:10032000313233343536373839004142434445465B
:100330004748494A4B4C4D4E4F5051520000000027
:100340000023002600290004040404040404040219
:100350000202020202030303030303010204081062
:10036000204080010204081020010204081020012E
:10037000060A00FE070136026820FFFE08FE07FE9F
:100380000A006022176780808080800080163363B7
:10039000A0A0A00257675050F850F850500257677D
:1003A0002070A07028702002576748A8502050A8DD
:1003B0009002576740A0A040A890682613638080F1
:1003C000801237672040808080402012376780404D
:1003D00020202040800355658850F85088035565DB
:1003E0002020F82020113363604080055161F8110E
:1003F000336340E0400257670808102040808002C5
:100400005767205088888850200257672060A020B6
:100410002020F8025767708808304080F80257673C
:10042000F808103008887002576710305090F810A4
:1004300010025767F880B0C80888700257673040CC
:1004400080B0C88870025767F8081010204040023A
:1004500057677088887088887002576770889868B6
:1004600008106011376740E0400040E040113767F6
:1004700040E04000604080124767102040804020EC
:1004800010045363F800F8124767804020102040A2
:1004900080025767708810202000200257677088FC
:1004A00098A8B0807002576720508888F888880222
:1004B0005767F04848704848F00257677088808056
:1004C000808870025767F04848484848F0025767EC
:1004D000F88080F08080F8025767F88080F0808094
:1004E0008002576770888080988870025767888874
:1004F00088F8888888123767E04040404040E00232
:100500005767381010101090600257678890A0C08D
:10051000A09088025767808080808080F8025767AB
:100520008888D8A88888880257678888C8A8988843
:100530008802576770888888888870025767F088B3
:1005400088F08080800158687088888888A8700842
:10055000025767F08888F0A09088025767708880FB
:1005600070088870025767F820202020202002574A
:10057000678888888888887002576788888850507C
:100580005020025767888888A8A8D88802576788AB
:100590008850205088880257678888502020202063
:1005A000025767F80810204080F8123767E0808013
:1005B000808080E002576780804020100808123752
:1005C00067E02020202020E006536320508801515E
:1005D00061F82822628040025565700878887802A8
:1005E00057678080B0C888C8B00255657088808819
:1005F000700257670808689888986802556570887F
:10060000F88070025767304840F04040400057671C
:10061000788888780888700257678080B0C8888892
:10062000881237674000C0404040E0104969100020
:100630003010101090906002576780808890E09092
:1006400088123767C04040404040E0025565D0A85E
:10065000A8A888025565B0C8888888025565708842
:10066000888870005767B0C888C8B0808000576716
:1006700068988898680808025565B0C8808080022C
:10068000556570807008F00257674040F040404860
:10069000300255658888889868025565888850506A
:1006A000200255658888A8A85002556588502050BA
:1006B0008800576788889868088870025565F81020
:1006C0002040F8124767304020C020403022176792
:1006D00080808080808080124767C020403040202A
:1006E000C006536348A890FFFFFFFFFFFFFFFFFF17
:1006F000FFFFFFFFFFFFFFFFFFFFFFFFFFFFFFFF0A
:10070000FFFFFFFFFFFFFFFF0A0060221767800067
:1007100080808080800157672078A0A0A078200288
:100720005767304840E04048B002556588705070C7
:100730008801586888885020F82020202217678078
:100740008080008080800158687080E09048380880
:1007500070193161A00257677088A8C8A888701303
:1007600046667090B05000F00265652448904824B9
:10077000144262F010154161F00257677088E8C8B2
:10078000C88870095161F816336340A0400256666C
:100790002020F82020F815456560902040F0154590
:1007A00065E0106010E0282262408001566688886B
:1007B00088C8B08002576778E8E86828282825119B
:1007C0006180202262408015356540C04040E013C2
:1007D00046666090906000F00265659048244890FD
:1007E00001696940C04040E40C143C04016969405F
:1007F000C04040E81404081C015969C0204020C8CA
:100800001828780802576720002020408870025876
:10081000684020708888F88888025868102070889E
:1008200088F888880258682050708888F88888027C
:10083000586848B0708888F88888025868500070F6
:100840008888F888880258682050708888F88888D6
:100850000267673C50909CF0909C005969708880BA
:1008600080808870204002586840F88080F0808046
:10087000F802586810F88080F08080F802586820EC
:10088000F88080F08080F802586850F88080F0800E
:1008900080F81238688040E040404040E0123868FC
:1008A0002040E040404040E012386840A0E0404036
:1008B0004040E0123868A000E040404040E002576D
:1008C00067F04848E84848F0025868285088C8A8A7
:1008D00098888802586840207088888888700258F4
:1008E0006810207088888888700258682050708846
:1008F00088888870025868285070888888887002B4
:100900005868500070888888887002556588502023
:100910005088025767709898A8C8C87002586840F5
:10092000208888888888700258681020888888887D
:10093000887002586820500088888888700258683B
:1009400050008888888888700258681020888850ED
:1009500020202002576780F088F08080800257674F
:10096000708890A09088B002586840200070087885
:1009700088780258681020007008788878025868D3
:100980002050007008788878025868285000700855
:10099000788878025767500070087888780258681D
:1009A000205020700878887802656578147C907CE7
:1009B0000057677088808870204002586840200087
:1009C0007088F880700258681020007088F8807075
:1009D0000258682050007088F880700257675000F5
:1009E0007088F88070123868804000C0404040E055
:1009F000123868408000C0404040E012386840A093
:100A000000C0404040E0123767A000C0404040E0D6
:100A1000025767C030708888887002586828500074
:100A2000B0C888888802586840200070888888701C
:100A3000025868102000708888887002586820501A
:100A400000708888887002586828500070888888EC
:100A500070025767500070888888700355652000C1
:100A6000F800200255657898A8C8F0025868402020
:100A700000888888986802586810200088888898BC
:100A80006802586820500088888898680257675024
:100A900000888888986800596910208888986808B4
:100AA000887000586880F0888888F08080005969D4
:100AB00050008888986808887000D01FCA1F1124C9
:100AC0001FBECFEFD8E0DEBFCDBF11E0A0E0B1E0A8
:100AD000E4EBF7E402C005900D92AE3DB107D9F703
:100AE00024E0AEEDB1E001C01D92AC3EB207E1F7EB
:100AF00015E0CEE5D5E004C02197FE010E94082153
:100B0000CD35D107C9F70E9478190C94CD230C94E8
:100B100000004F925F926F927F929F92AF92BF922E
:100B2000CF92DF92EF92FF920F931F93CF93DF93B9
:100B3000CDB7DEB72F970FB6F894DEBF0FBECDBF8F
:100B400000915A0410915B04D801DD968C91DD97D9
:100B5000F80134967F01811106C081E0DD968C9307
:100B6000CF010E944C0FF801C680D78005A8F6A9D6
:100B7000E02D82E00995D801D596ED91FC91D697AC
:100B800081E0099520E030E044E1B601C7010E9410
:100B9000AA0E9801295C3F4F47E1B601C7010E94A8
:100BA000AA0ED801D596ED91FC91D69780E00995D3
:100BB000FE0131966F0108EE402E03E0502E612CAD
:100BC000712CE09115028E2F90E08C30910508F089
:100BD000C4C4FC01EC5CFF4F0C94082180915A04C2
:100BE00090915B041DE5E12E11E0F12E04E128E671
:100BF00044E16AE004960E946614AFC48091EC015F
:100C000081111BC080915A0490915B04A8EFEA2ED9
:100C1000A0E0FA2E00E120E140E060E704960E94A7
:100C2000661480915A0490915B04B8EDEB2EB0E00D
:100C3000FB2E20E140E06FE524C0813049F4809133
:100C40005A0490915B04F8EBEF2EF0E0FF2E15C0F4
:100C5000823049F480915A0490915B04E8EFEE2EC3
:100C6000E0E0FE2E0AC0833079F480915A0490911E
:100C70005B0478EDE72E70E0F72E00E120E140E024
:100C800060E704960E94661480911D024AE0B60156
:100C900090E00E941A23960148E26CE380915A0486
:100CA00090915B040E941E1924E631E048E261E065
:100CB00080915A0490915B040E941E198091E80172
:100CC000813051F42AE631E045E061E080915A0438
:100CD00090915B040E941E1930913D0280915A044C
:100CE00090915B0420913E02332329F0222341F0AE
:100CF0002FE631E007C0222319F023E731E002C0DC
:100D000027E731E048E361E00E941E19309132028A
:100D100080915A0490915B0420913302332329F08F
:100D2000222341F02BE731E007C0222319F02FE7FF
:100D300031E002C023E831E048E36EE10E941E1971
:100D40003091270280915A0490915B0420912802EF
:100D5000332329F0222341F027E831E007C0222382
:100D600019F02BE831E002C02FE831E048E36CE3F2
:100D70000E941E199091E801913009F040C08091C5
:100D80001D02811104C081E080931B0212C08130DA
:100D900029F480931B028093E7012DC0823061F417
:100DA00080911C02823039F18650823060F71092B7
:100DB0001B021092E7011FC0833029F480911C02AE
:100DC000833091F718C02CEF280F223058F423E914
:100DD00031E042E161E080915A0490915B040E940D
:100DE0001E19E5CF863029F410921B029093E7017B
:100DF00002C08730E1F280911D0280931C02209195
:100E00001B0280915A0490915B04222319F020EA7E
:100E100031E002C02AEA31E042E161E00E941E199D
:100E20002091E70180915A0490915B04222319F0EC
:100E300025EB31E002C02DEB31E042E161E40E949C
:100E40001E196091160270911702809118029091FC
:100E50001902A30192010E94E620CA01B901882764
:100E600099272AE0A6010E94252326EC31E04BE1D8
:100E700061E080915A0490915B040E941E199601D2
:100E80004BE164E180915A0490915B040E941E1929
:100E900030911A0280915A0490915B0420911B02B8
:100EA000332329F0222341F029EC31E007C022232B
:100EB00019F02FEC31E002C026ED31E04BE16CE39C
:100EC0000E941E1980915A0490915B0400E120E871
:100ED00040E160E004960E94B60F80915A04909120
:100EE0005B0406E320E846E360E004960E94B60F48
:100EF0000E94540EA30192010E94E620CA01B9018A
:100F00002AE0A6010E94252327EC31E048E266E4AE
:100F100080915A0490915B040E941E19960148E248
:100F20006BE480915A0490915B040E941E1915C3D2
:100F30002DE431E04EE163E24AC226E431E045E0CF
:100F400060E080915A0490915B040E94F0188091B7
:100F50005A0490915B040EE020E84EE060E00496B5
:100F60000E94B60F809114024AE0B60190E00E9400
:100F70001A23960145E065E580915A0490915B043F
:100F80000E941E1980911402813041F421E048E151
:100F900051E064E188E00E94AD170AC028E131E029
:100FA00044E168E080915A0490915B040E94F0183B
:100FB00080911402823041F421E046E850E06EE175
:100FC00088E00E94AD170AC026E830E04EE168E0F4
:100FD00080915A0490915B040E94F0188091140251
:100FE000833041F421E040E451E068E288E00E946F
:100FF000AD170AC020E431E048E268E080915A046D
:1010000090915B040E94F01880911402843041F4A6
:1010100021E040E850E064E18CE30E94AD170AC093
:1010200020E830E044E16CE380915A0490915B0445
:101030000E94F01880911402853041F421E04AE3C7
:1010400051E06EE18CE30E94AD170AC02AE331E063
:101050004EE16CE380915A0490915B040E94F01879
:1010600080911402863029F421E042EB50E062E3E3
:10107000A8C122EB30E042E3A9C126E431E045E01B
:1010800060E080915A0490915B040E94F01828E17E
:1010900031E045E062E380915A0490915B040E9444
:1010A000F01880915A0490915B040EE020E84EE025
:1010B00060E004960E94B60F2BE930E044E160E066
:1010C00080915A0490915B040E94F0182BE231E069
:1010D00043E268E080915A0490915B040E94F0180A
:1010E0008091EB014AE0B60190E00E941A23109132
:1010F000140280915A0490915B04113021F5F6019D
:1011000001900020E9F73197EC19FD092E2F220FED
:101110002E0F220F2F5F0BE042E26BE104960E943C
:101120002F0F80915A0490915B04DC0194961C92DD
:10113000960143E26CE10E941E19E0915A04F0917D
:101140005B0414A305C0960143E26EE10E941E19E0
:101150009091EC019D7F20915A0430915B04911194
:1011600010C0C90104960E94011880915A04909100
:101170005B0406E026E045E266E604960E942F0F37
:1011800004C0C90104960E940118809114028230A3
:1011900041F421E042E950E063E284E30E94AD17AC
:1011A00011C022E930E043E264E380915A04909157
:1011B0005B040E94F01880915A0490915B0404969D
:1011C0000E94011880911402833041F421E042EB27
:1011D00050E062E388E00E94AD170AC022EB30E0E5
:1011E00042E368E080915A0490915B040E94F018F9
:1011F00080911402843041F421E04CE850E062E335
:1012000084E60E94AD17A9C12CE830E042E364E611
:10121000DEC026E431E045E060E080915A04909120
:101220005B040E94F0182AE331E045E062E380911C
:101230005A0490915B040E94F01880915A04909196
:101240005B040EE020E84EE060E004960E94B60FDA
:1012500020E331E044E168E080915A0490915B041E
:101260000E94F0182BE231E044E162E380915A04DD
:1012700090915B040E94F0184AE0B6018091400210
:10128000909141020E941A23960144E160E5809109
:101290005A0490915B040E941E1920E231E04EE155
:1012A00068E080915A0490915B040E94F0182BE250
:1012B00031E04EE16AE380915A0490915B040E9410
:1012C000F0184AE0B60180E090E00E941A239601EF
:1012D0004EE160E580915A0490915B040E941E19D2
:1012E00028E131E048E268E080915A0490915B0483
:1012F0000E94F0182BE231E048E260E380915A044A
:1013000090915B040E94F0188091ED014AE0B601D3
:1013100090E00E941A23960148E260E580915A0409
:1013200090915B040E941E198091EC0181111AC0FA
:1013300080915A0490915B0458EFE52E50E0F52E11
:1013400000E120E144E16CE604960E94661480917D
:101350005A0490915B0468EDE62E60E0F62E20E1E1
:1013600048E223C0813049F480915A0490915B0493
:1013700048EBE42E40E0F42E15C0823049F4809111
:101380005A0490915B0438EFE32E30E0F32E0AC04C
:10139000833079F480915A0490915B0428EDE22E19
:1013A00020E0F22E00E120E144E16CE604960E9488
:1013B000661480911402813031F421E042EB50E058
:1013C00065E388E01ECF22EB30E045E368E08091E2
:1013D0005A0490915B040E94F018BFC026E431E0EB
:1013E00045E060E080915A0490915B040E94F018FF
:1013F00020E431E045E062E380915A0490915B047F
:101400000E94F01880915A0490915B040EE020E84D
:101410004EE060E004960E94B60F2AE233E044E119
:1014200060E080915A0490915B040E94F01827E1DB
:1014300033E04EE160E080915A0490915B040E9499
:10144000F01824E033E048E260E080915A04909183
:101450005B040E94F01821EF32E042E360E08091EB
:101460005A0490915B040E94F0181091EA01812FB8
:10147000880F180F110FE090E901EE0C4E2D440F6C
:10148000440FE40EF12CA7014C5E5F4FA12EB12C4E
:10149000B6E0AB0EB11C4AC026E431E045E060E0A6
:1014A00080915A0490915B040E94F01820E431E08E
:1014B00045E062E380915A0490915B040E94F01829
:1014C00080915A0490915B040EE020E84EE060E0C9
:1014D00004960E94B60F2EED32E044E160E0809168
:1014E0005A0490915B040E94F0182BEC32E04EE11C
:1014F00060E080915A0490915B040E94F018809102
:10150000EA01982F990F890F182F110FE090E90128
:10151000EE0C4E2D440F440FE40EF12CA7014C5E4F
:101520005F4FA12EB12CE6E0AE0EB11C80915A04A3
:1015300090915B04042F2A2D612F04960E94B60F10
:10154000A701435E5F4F80915A0490915B04042F82
:101550002A2D612F04960E94B60F00915A04109113
:101560005B047801F4E0EF0EF11CD8015296ED9186
:10157000FC915397309711F0C7010995F801A680A7
:10158000B78005A8F6A9E02D82E00995D801D59687
:10159000ED91FC91D69781E0099520E030E045E19E
:1015A000B501C7010E94AA0E982E882341F0980128
:1015B000295C3F4F47E1B501C7010E94AA0ED8013F
:1015C000D596ED91FC91D69780E009959110F9CAD6
:1015D0002F960FB6F894DEBF0FBECDBFDF91CF912F
:1015E0001F910F91FF90EF90DF90CF90BF90AF9041
:1015F0009F907F906F905F904F900895FC01918D28
:10160000828D981761F0828DDF01A80FB11D5D9664
:101610008C91928D9F5F9F73928F90E008958FEFD2
:101620009FEF0895FC01918D828D981731F0828D86
:10163000E80FF11D858D90E008958FEF9FEF0895DD
:10164000FC01918D228D892F90E0805C9F4F821B41
:1016500091098F739927089580E090E0892B29F0F4
:101660000E94D11181110C9400000895833081F003
:1016700028F4813099F08230A1F008958730A9F0E4
:101680008830B9F08430D1F4809180008F7D03C020
:10169000809180008F7780938000089584B58F7744
:1016A00002C084B58F7D84BD08958091B0008F778E
:1016B00003C08091B0008F7D8093B00008953FB744
:1016C000F8948091E3019091E401A091E501B0913B
:1016D000E60126B5A89B05C02F3F19F00196A11D74
:1016E000B11D3FBFBA2FA92F982F8827820F911DB8
:1016F000A11DB11DBC01CD0142E0660F771F881FFF
:10170000991F4A95D1F708950895DC011696ED9139
:10171000FC91179712968C91481B477081E090E0DE
:1017200001C0880F4A95EAF7E60FF11D30812223A8
:1017300011F0832B02C08095832380830895FB01E1
:101740004181DC0112962C911297421768F0139692
:101750002C911397241740F0608115962C916217F5
:1017600018F424810C94850B0895FC0180819281EA
:10177000980F92832181921760F494819F5F9483E4
:101780009381890F821710F08FEF820F838381E09E
:10179000089580E00895FC01128280818150838346
:1017A00014820895FC01808D8F5F089580E0089574
:1017B0000B96FC01849108950A96FC01849108958A
:1017C000FC01849108950E94E00B882321F082306F
:1017D00011F083E0089586E00895FC01E60FF11D05
:1017E000849190E0982F88273196E4918E0F911D77
:1017F000089568E00C94ED0B66E00C94ED0B0E94EC
:1018000005238F929F92AF92BF92CF92DF92FF9269
:101810000F931F93CF93DF9300D0CDB7DEB76C014A
:101820008B01F42E490120E1421709F456C0241718
:10183000A0F03AE043135BC0DB011496ED91FC91FC
:10184000159720E030E042E061E009954DE752E075
:10185000B801C6010E94C9134AC081E1481709F4C2
:101860003FC0A5E14A1343C0FB01A280B38045E716
:1018700052E0C6010E94C913D50114964C91406BE9
:10188000B801C6010E94C013D8011496ED91FC91D5
:10189000159720E030E041E062E0C6010995F501CE
:1018A00026813781D8011496ED91FC911597D501C9
:1018B00015964C9166E0C6010995811102C080E041
:1018C000D3C0D8011496ED91FC91159720E030E03B
:1018D00040E063E0C60109950AC04CE652E002C050
:1018E00041E652E0B801C6010E94C913BCC0F8012C
:1018F00002811381F2E3FF1609F479C0FF15B8F0F5
:1019000025E1F21609F480C037E1F31609F492C01C
:1019100084E1F812A8C0D8011696ED91FC911797B2
:1019200015968C919F01280F311DC90165C0A6E451
:10193000FA1609F48FC0B7E4FB1609F48FC0EBE385
:10194000FE1291C0D40111968C91119713969C911F
:10195000913029F0933031F4482F885004C048E08A
:10196000480F01C0482F21E0F8013381381708F4EF
:1019700020E031E0D80112965C91451708F430E080
:1019800051E0481708F050E0822F852B382319F4D6
:10199000252309F468C0F401F280913051F030F051
:1019A000923049F0933051F42FEF09C020E031E03C
:1019B00007C021E004C020E03FEF02C020E030E09B
:1019C000F7FE08C0B401C8012A8339830E949F0B27
:1019D00039812A81D4018C91830F8C9311968C913B
:1019E0001197820F11968C93FF0C51F73CC0B401F4
:1019F000C8010E949F0B37C01192E817F907E1F761
:101A0000C8010E94CB0B2FC0C8010E94B50B8823D0
:101A100009F455CFD8011696ED91FC9117971596BC
:101A20008C919F01280F311DC9011192E817F90708
:101A3000E1F719C0D4011C92F801828111968C93B0
:101A400011978581815012968C93129783811396FA
:101A50008C9309C0D80115968C9103C0D8011196BA
:101A60008C91F401808381E00F900F90DF91CF91F2
:101A70001F910F91FF90DF90CF90BF90AF909F90FC
:101A80008F900895FC01848DDF01A80FB11DA35A2A
:101A9000BF4F2C91848D90E001968F739927848F8E
:101AA000A689B7892C93A089B1898C9180648C9385
:101AB000938D848D981306C00288F389E02D808170
:101AC0008F7D80830895CF93DF93EC01888D8823E9
:101AD000C9F0EA89FB89808185FD05C0A889B9899B
:101AE0008C9186FD0FC00FB607FCF5CF808185FF76
:101AF000F2CFA889B9898C9185FFEDCFCE010E94E4
:101B0000420DE7CFDF91CF910895CF93DF93282F38
:101B100030E0F901E954FD4F8491F901E55AFC4F99
:101B2000D491F901E95BFC4FC491CC2391F0811170
:101B30000E94360BEC2FF0E0EE0FFF1FE35CFC4F32
:101B4000A591B491EC91ED2381E090E021F480E047
:101B500002C080E090E0DF91CF9108951F93CF9372
:101B6000DF93282F30E0F901E954FD4F8491F9010A
:101B7000E55AFC4FD491F901E95BFC4FC491CC23A9
:101B8000C9F0162F81110E94360BEC2FF0E0EE0FFA
:101B9000FF1FE355FD4FA591B4918FB7F894111134
:101BA00005C09C91ED2FE095E92302C0EC91ED2B4F
:101BB000EC938FBFDF91CF911F910895CF93DF9367
:101BC00090E0FC01E55AFC4F2491FC01E95BFC4FDD
:101BD0008491882361F190E0880F991FFC01ED55F5
:101BE000FD4FC591D491FC01E355FD4FA591B491F2
:101BF000611109C09FB7F89488812095822388835A
:101C0000EC912E230BC0623061F49FB7F8943881B9
:101C1000822F809583238883EC912E2B2C939FBF5A
:101C200006C08FB7F894E8812E2B28838FBFDF91F1
:101C3000CF9108958F929F92AF92BF92CF92DF92F1
:101C4000EF92FF926B017C010E945F0B4B015C01E4
:101C5000C114D104E104F104F1F00E945F0BDC0136
:101C6000CB0188199909AA09BB09883E9340A105AF
:101C7000B10570F321E0C21AD108E108F10888EE3D
:101C8000880E83E0981EA11CB11CC114D104E1048C
:101C9000F10419F7DDCFFF90EF90DF90CF90BF9068
:101CA000AF909F908F9008952FB7F8946091DF01C7
:101CB0007091E0018091E1019091E2012FBF0895C0
:101CC0001F920F920FB60F9211242F933F938F9371
:101CD0009F93AF93BF938091DF019091E001A0911A
:101CE000E101B091E2013091DE0123E0230F2D37B5
:101CF00020F40196A11DB11D05C026E8230F029610
:101D0000A11DB11D2093DE018093DF019093E001BE
:101D1000A093E101B093E2018091E3019091E4018D
:101D2000A091E501B091E6010196A11DB11D80933E
:101D3000E3019093E401A093E501B093E601BF9124
:101D4000AF919F918F913F912F910F900FBE0F9068
:101D50001F901895DB01ED91FC9109948F929F9251
:101D6000BF92CF92DF92EF92FF920F931F93CF9388
:101D7000DF931F92CDB7DEB74C01062FF42E122F42
:101D8000522FE62EE20EBB24BA946C018CE1C80EF1
:101D9000D11C8E2D851B583080F0F4016281738137
:101DA000848FF58E178EB68E96014BE3C40159834E
:101DB0000E94AA0E59815850ECCF812F887F080FBE
:101DC000212F277021F187E02827F4016281738198
:101DD000048FF58E178E2F5F27708FEF90E001C074
:101DE000880F2A95EAF7868F9401245E3F4F4BE3D4
:101DF000C4010F90DF91CF911F910F91FF90EF9051
:101E0000DF90CF90BF909F908F900C94AA0E0F9070
:101E1000DF91CF911F910F91FF90EF90DF90CF90C6
:101E2000BF909F908F900895EF92FF920F931F9312
:101E3000CF93DF937C01D62F122FC42F040F212FB5
:101E40004C2F6D2FC7010E94AE0ECF5F0C13F7CF42
:101E5000DF91CF911F910F91FF90EF900895DF9246
:101E6000EF92FF920F931F93CF93DF93EC01162F06
:101E7000F42EE22E0E944414882331F02E2D4F2D93
:101E8000612FCE010E94140FDF91CF911F910F910E
:101E9000FF90EF90DF900895EF92FF920F931F93C2
:101EA000CF93DF931F92CDB7DEB78C01DC01129682
:101EB000ED90FC901397D196ED91FC91D29782E032
:101EC000099520E030E04AE0B701C8010E94AA0E5F
:101ED000F82ED801D196ED91FC91D29783E0099527
:101EE000D801D196ED91FC91D29780E00995FF2021
:101EF000A1F1F801628173819E012F5F3F4F46E49B
:101F0000C8010E94AA0E8981D8018C9312966D9106
:101F10007C9113979E012F5F3F4F47E4C8010E94B9
:101F2000AA0E8981F80181836281738120E030E00B
:101F300048E4C8010E94AA0ED8011B968C931B97F7
:101F400098012D5C3F4F12966D917C91139747E15C
:101F5000C8010E94AA0E81E001C080E00F90DF91CD
:101F6000CF911F910F91FF90EF9008958F929F92C4
:101F7000AF92BF92CF92DF92EF92FF920F931F9397
:101F8000CF93DF936C01C62F142FD22F261718F48E
:101F9000F62EF21A02C0F22EF61A011770F4E12E94
:101FA000E01AFE14F0F48F2DFE2CE82E812F1D2F49
:101FB000D82F8C2FC02F082F0DC0E02EE11AFE1451
:101FC000C8F58F2DFE2CE82E8D2FD02F082F8C2FAB
:101FD000C12F182FAA24A394BF2CB694101750F029
:101FE00032C0DC1790F5BF2CB694102F8C2FCD2F5C
:101FF000D82FA12C01E0DF3F09F4DEEFC6014C969B
:102000004C01DC1720F1F60162817381A11003C03D
:10201000C48F158F03C0F601148FC58F940142E35E
:10202000C6010E94AA0EBE18B7FE02C0100FBF0C58
:10203000CF5FE7CFDC1748F4BF2CB694102F8C2F5E
:10204000CD2FD82FA12C0FEFD6CFA12CC5CFDF914C
:10205000CF911F910F91FF90EF90DF90CF90BF90A5
:10206000AF909F908F900895DC0114962D913C9134
:1020700015972115310509F43FC057968C91579754
:10208000F901811108C03596E4915896EC93589760
:10209000F9013C9611C0813041F43F96E491589685
:1020A000EC935897F901709607C03D96E4915896C5
:1020B000EC935897F9013E96E4915996EC93599711
:1020C00058968C915897082E000C990B59962C9184
:1020D0005997821B910927FD93955A962C915A97EF
:1020E000203441F0829FC001112426E09695879507
:1020F0002A95E1F75B968C9308952F923F925F9219
:102100006F927F928F929F92AF92BF92CF92DF9207
:10211000EF92FF920F931F93CF93DF931F92CDB750
:10212000DEB71C01C62E142FD22EDC011496ED90C2
:10213000FC901597C7010E94E00B082FF1018481E4
:1021400095810E94E30B982E013019F48FE0A82EA0
:1021500002C0AA24AA94D10114968D919C9115973E
:102160000E94DC0B082FF101848195810E94D80B1D
:10217000B82ED10114968D919C9115970E94F90B60
:10218000B0E6BD1530F4009721F0E80EF91E01E627
:1021900011C0F101848195810E94FC0BF0E4FD15D2
:1021A00030F4009721F0E80EF91E01E403C021E1AC
:1021B000E20EF11CBD1480F4D10150961C92509790
:1021C00053961C92539754961C92549751961C9276
:1021D000519752961C92C7C0B01670F3892D90E0AB
:1021E000F70124912F3F21F4FFEFEF1AFF0A5AC0A5
:1021F0000D114FC0D10114968D919C9115970E949D
:10220000E00B97012F5F3F4FF701882311F08230D9
:10221000E1F48491D10153968C935397F901249161
:1022200054962C935497F7013396E4915096EC937F
:102230005097F7013496E4915196EC935197F7013A
:102240003596E4915296EC9320C08491982F9F701C
:102250009250D10152969C93529782958F705196CD
:102260008C935197F9012491822F8F7054968C93FF
:10227000549722952F7053962C935397F7013296CB
:10228000E491E295EF705096EC93E114F10479F447
:102290006AC0F7013296E491EA219C012E0F311DAC
:1022A000E20EF31E0B1509F487CF0F5F99CFF101F2
:1022B000848195810E94E30BB82ED10153969C90A6
:1022C00053975496DC90549751968C915197C80E21
:1022D00052969C919D0D512E591A0D2D292D452D4B
:1022E0006C2DC1010E9444148823D1F1C7018B0DCC
:1022F000911D5C0187E0890DF82EF694F694F69412
:10230000D50C41019CE1890E911C6F2C712C5D1440
:1023100039F15C2D8501802F8A198F15E8F4F801B9
:102320008491D10112966D917C9113975C965C9388
:102330005C975D965C925D975F961C925F975E9648
:102340008C9394014BE3C10159830E94AA0E0F5F45
:102350001F4F5981585FDFCFA60CB71C5394D7CFBE
:10236000F101808901C080E00F90DF91CF911F9132
:102370000F91FF90EF90DF90CF90BF90AF909F9024
:102380008F907F906F905F903F902F9008952EE9EF
:102390003FE0009729F0F9013197F1F70197F9CF64
:1023A000089587EA93E00E94200B21E0892B09F42D
:1023B00020E0822F0895EF92FF920F931F93CF9307
:1023C000DF93EC0181E0888F9B8D8C8D981305C085
:1023D000E889F989808185FD24C0F62E0B8D10E0F7
:1023E0000F5F1F4F0F731127E02E8C8DE8120CC06A
:1023F0000FB607FCFACFE889F989808185FFF5CF10
:10240000CE010E94420DF1CF8B8DFE01E80FF11D30
:10241000E35AFF4FF0820B8FEA89FB89808180624B
:1024200007C0EE89FF896083E889F989808180642B
:10243000808381E090E0DF91CF911F910F91FF9019
:10244000EF9008951F920F920FB60F9211242F93C1
:102450003F934F935F936F937F938F939F93AF932C
:10246000BF93EF93FF9387EA93E00E94420DFF91A1
:10247000EF91BF91AF919F918F917F916F915F91FC
:102480004F913F912F910F900FBE0F901F90189575
:102490001F920F920FB60F9211242F938F939F9339
:1024A000EF93FF93E091B703F091B8038081E0913F
:1024B000BD03F091BE0382FD12C090818091C003E4
:1024C0008F5F8F732091C103821751F0E091C00399
:1024D000F0E0E955FC4F958F8093C00301C08081E7
:1024E000FF91EF919F918F912F910F900FBE0F90C1
:1024F0001F9018951092A5031092A403089580933D
:10250000A6031092B90084FF02C08CE001C088E4E9
:102510008093B8000C947A1285ED8093BC00809172
:10252000BC0084FDFCCF10927503089540914F03C9
:10253000262F30E0240F311D21323105DCF42091AB
:1025400075032430C9F4FC0180E090E0861758F44C
:1025500030914F032191DC01A35DBC4FA30FB11D4E
:102560002C930196F3CF80914F03680F60934F0334
:1025700080E0089581E0089582E0089508958FEF46
:102580009FEF08958FEF9FEF089580912C0390E0C7
:102590009195819591090895CF93DF9300D0CDB7A0
:1025A000DEB7CB01642F49835A830E94961249817A
:1025B000842F5A81952F0F900F90DF91CF9108951E
:1025C000CF93DF931F92CDB7DEB7698361E0CE0171
:1025D00001960E94961281E090E00F90DF91CF91DA
:1025E00008950C94A3219091A503911104C08093A8
:1025F000A5036093A40308951F93CF93DF9300D0A6
:10260000CDB7DEB720ED37E03A8329839091BC0047
:10261000982399F429813A81232B51F48091A603C0
:10262000182F127081FD09C081E00E94F31206C0CC
:1026300029813A8121503109E7CF11E0812F0F9094
:102640000F90DF91CF911F91089584E98093BC0092
:1026500064E080E10C94FC12CF938093BB0084E88B
:102660008093BC0063E080E80E94FC12C82F88239E
:1026700089F08091A603C82FC27081FD0AC08091A5
:10268000B900887F883229F063E082E00E94F3126B
:1026900001C0C1E08C2FCF910895CF93DF93FC014F
:1026A00023A5222379F0EC010E942818811102C091
:1026B00080E009C08EA1811180E40E942C13882340
:1026C000B9F31BA681E0DF91CF9108950F931F937B
:1026D000CF93C42F89016330C1F050F4613081F091
:1026E000623009F048C0FC0146A321E023A743C0A3
:1026F000663011F1673079F1653009F03CC00EC0E9
:10270000FC0186A50E947F1236C0FC0116A221E0C2
:1027100023A7411130C00E9425132DC00E944D13E4
:10272000811104C00E94251380E026C08C2F0E94D6
:102730002C13811120C0F6CF0E944D13882391F3F2
:10274000CC23C9F0F80181918F010E942C138823BA
:1027500049F3C150F5CF0E944D13882319F3CC23C0
:1027600051F0F80184910E942C13882329F00F5F07
:102770001F4FC150F4CF81E0CF911F910F91089569
:10278000DB011496ED91FC91159720E030E065E0B7
:102790000994CF92DF92EF92FF920F931F93CF9302
:1027A000DF938C017B016A0180E0F601C491811105
:1027B0000BC0CF3F09F457C04C2FB701C8010E948E
:1027C000C01381114EC054C0CF3F11F44FEFF5CF6D
:1027D000CE3F09F44FC0C03F08F043C0C03E58F0A0
:1027E0004C2F4F70D7011496ED91FC91159720E076
:1027F00030E062E00CC0C03D68F04C2F4F70D70154
:102800001496ED91FC91159720E030E063E0C8014B
:10281000099527C0C03CF8F0D7011496ED91FC91C2
:10282000159720E030E040E064E0C8010995C295CA
:10283000C07FCE5FD0E0CE010E94C711D7011496B1
:10284000ED91FC91159720E030E041E064E0C80193
:102850000995CE0104C0C7FD04C08C2F90E00E94F2
:10286000C71180E001C081E0BFEFCB1ADB0A9DCF2A
:1028700080E001C081E0DF91CF911F910F91FF9027
:10288000EF90DF90CF9008950F93FC010150040F5B
:1028900084A996A9941718F0081728F402C00817FD
:1028A00050F0041740F42150260F83A995A99617DC
:1028B00020F4281720F480E007C0281720F481E0D6
:1028C000261710F0F8CF81E00F9108952F923F92D4
:1028D0004F925F926F927F928F929F92AF92BF9230
:1028E000CF92DF92EF92FF920F931F93CF93DF93DC
:1028F00000D01F92CDB7DEB79B838A83B62E542EAD
:10290000122FA02E0E944414882309F45FC087E090
:10291000810FC82EC694C694C694D12C252C2A0C9F
:1029200087E0482E4B0C812F869586958695682EDC
:10293000712C0B2D98E0899F000D1124342C310E41
:102940008A809B80ECE18E0E911C1770521409F462
:102950003DC05701542D832D851B8830B8F0F501FB
:102960008491EA81FB8162817381548F558E92E05C
:10297000978F868F94014BE3CF0159830E94AA0E53
:10298000EFEFAE1ABE0A5981585FE5CFF701E60DA9
:10299000F71DA12E1123B1F0B490502FB0FE0DC041
:1029A000EA81FB8162817381548F558E940142E3E9
:1029B000CF0159830E94AA0E59815F5FAA94B694F1
:1029C000A110ECCFEC0CFD1C5394C0CF0F900F90D6
:1029D0000F90DF91CF911F910F91FF90EF90DF90BB
:1029E000CF90BF90AF909F908F907F906F905F90AF
:1029F0004F903F902F9008951F920F920FB60F9215
:102A000011242F933F934F935F936F937F938F93F3
:102A10009F93AF93BF93EF93FF938091A203909105
:102A2000A3038093B20080919E0390919F03A09195
:102A3000A003B091A1030196A11DB11D80939E0337
:102A400090939F03A093A003B093A10380919E0352
:102A500090919F03A091A003B091A10380919D0349
:102A600081111AC081E080939D0380919E03909113
:102A70009F03A091A003B091A10380939E03909324
:102A80009F03A093A003B093A103E0919B03F09157
:102A90009C03099510929D03FF91EF91BF91AF9117
:102AA0009F918F917F916F915F914F913F912F9166
:102AB0000F900FBE0F901F90189508951F920F92C0
:102AC0000FB60F9211242F933F934F935F936F9301
:102AD0007F938F939F93AF93BF93EF93FF938091D7
:102AE000B900887F803609F49CC068F5883209F403
:102AF0005BC090F4803109F454C038F4882309F4A1
:102B0000F6C0883009F44DC0F6C0883109F44CC0D5
:102B1000803209F45DC0EFC0803409F468C048F425
:102B2000803309F455C0883309F0E5C080937403FD
:102B3000D8C0803509F44FC0883509F45DC08834A9
:102B400009F0D9C0D6C0883909F4C7C0A8F48837BD
:102B500009F467C038F4883609F463C0803709F493
:102B600060C0C9C0883809F4B8C0803909F45FC0B2
:102B7000803809F0C0C05BC0803B09F486C038F4DF
:102B8000803A09F466C0883A09F47FC0B4C0803C3A
:102B900009F4A7C0883C09F4A4C0883B09F48AC0A2
:102BA000AAC080919A0310C09091990380919803D4
:102BB000981770F5E091990381E08E0F8093990347
:102BC000F0E0E858FC4F80818093BB0085EC86C024
:102BD000809374038EC0E091990381E08E0F8093FF
:102BE00099038091BB00F0E0E858FC4F80839091FE
:102BF0009903809198036EC0E091990381E08E0F54
:102C0000809399038091BB00F0E0E858FC4F8083EB
:102C10008091770381116DC081E08093760384EA0F
:102C200061C083E08093750310927303CFCF8091CE
:102C30007303803208F051C0E091730381E08E0F7E
:102C4000809373038091BB00F0E0ED5AFC4F8083CA
:102C5000BDCF85EC8093BC00109275038091730307
:102C6000803230F4E0917303F0E0ED5AFC4F1082B3
:102C70006091730370E0E0915103F091520383E59A
:102C800093E009951092730336C084E08093750336
:102C90001092500310924F03E0914D03F0914E03B8
:102CA000099580914F03811105C081E080934F0306
:102CB00010922D03E091500381E08E0F809350031A
:102CC000F0E0E35DFC4F80818093BB009091500366
:102CD00080914F03981708F479CF85E88093BC0062
:102CE0000AC085EC8093BC001092750304C010925A
:102CF00074030E948C12FF91EF91BF91AF919F914D
:102D00008F917F916F915F914F913F912F910F9094
:102D10000FBE0F901F901895EF92FF920F931F9385
:102D2000CF93DF938B01045F1F4FEB017C01E61A09
:102D3000F70AC7018C0F9D1F0E9480238993C0173B
:102D4000D107B9F78CE090E0DF91CF911F910F91FF
:102D5000FF90EF9008950F931F93CF93DF93EC01B3
:102D600088810E94850D298530E08217930779F0CC
:102D70000E94540E6D837E838F83988788810E9482
:102D8000850D21E0892B09F420E029871A860E940D
:102D9000540E0D811E812F813885DC01CB01801BF3
:102DA000910BA20BB30B09811A812B813C818017F7
:102DB0009107A207B30710F081E08A87DF91CF91D6
:102DC0001F910F910895CF92DF92EF92FF920F9390
:102DD0001F93CF93DF936C017A018B01C0E0D0E0A9
:102DE000CE15DF0589F0D8016D918D01D601ED91E9
:102DF000FC910190F081E02DC6010995892B11F419
:102E00007E0102C02196ECCFC701DF91CF911F91C7
:102E10000F91FF90EF90DF90CF900895EF92FF9287
:102E20000F931F93CF93DF93EC01E62E6A817B8192
:102E30008C01045E1F4FEC8E83E28D8FFF24F39490
:102E4000FF8E8FEF8E8F98014BE3CE010E94AA0E6A
:102E50006A817B81EC8E8BE28D8FFF8E80EC8E8F72
:102E600098014BE3CE01DF91CF911F910F91FF901D
:102E7000EF900C94AA0ECF92DF92EF92FF926B012B
:102E80007C01E091B703F091B80382E08083C11424
:102E900081EED806E104F104B1F060E079E08DE361
:102EA00090E0A70196010E94E620DA01C90101978E
:102EB000A109B109B695A795979587959C0121150C
:102EC00080E13807B8F0E091B703F091B8031082C1
:102ED00060E874E88EE190E0A70196010E94E62088
:102EE000DA01C9010197A109B109B695A79597958E
:102EF00087959C01E091B303F091B4033083E09196
:102F0000B503F091B60320831092BF03E091BB0399
:102F1000F091BC0386E08083E091B903F091BA039D
:102F2000808180618083E091B903F091BA03808150
:102F300088608083E091B903F091BA038081806852
:102F40008083E091B903F091BA0380818F7D808303
:102F5000FF90EF90DF90CF900895EF92FF920F9344
:102F6000CF93DF93352F222309F43DC0E42FF52FB3
:102F70009E2F941B2491222311F03196F9CF7F01CB
:102F8000E91AF108823018F0CEEFC80F01C0C0E096
:102F9000D62F292F220F920F990F21E0290F4FEFE3
:102FA000460F6FEF6C0FE0915A04F0915B040BE059
:102FB000CF0104960E942F0F80915A0490915B04D8
:102FC000FC0114A297014D2F6C2F0E94F018E09184
:102FD0005A04F0915B0481E084A3DF91CF910F91BB
:102FE000FF90EF900895242F462F682F80915A0468
:102FF00090915B04DF91CF910F91FF90EF900C9433
:10300000F0180F93CF93DF93EC010AE02AE043E23C
:1030100064E60E9444148823B9F02AE043E264E69F
:10302000CE010E94AE0E64E6CE010E940E176DE640
:10303000CE010E940E172AE04CE264E6CE01DF9139
:10304000CF910F910C94AE0EDF91CF910F91089517
:10305000CF9384EA8093BC0061E080E80E94FC1278
:10306000882359F08091B900887F883041F0803101
:1030700031F061E082E00E94F312C0E01DC088E7F9
:103080008093BB0084E88093BC0062E080E80E94EB
:10309000FC12882391F38091A603C82FC27081FD92
:1030A0000AC08091B900887F883129F062E082E00F
:1030B0000E94F31201C0C1E08C2FCF910895EF92CE
:1030C000FF920F931F93CF93DF93EC017B018A0153
:1030D00088819981009729F02A813B81241735073F
:1030E000F8F4B8016F5F7F4F0E943B22009759F0C0
:1030F000998388831B830A832C813D81232B81F450
:10310000FC0110820DC088819981009711F00E9406
:10311000A321198218821D821C821B821A8207C079
:103120001D830C83B701888199810E941323CE01EE
:10313000DF91CF911F910F91FF90EF900895CF9263
:10314000DF92EF92FF920F931F93CF93DF931F9223
:10315000CDB7DEB76C01DC01DC961C91DC97DB9609
:103160000C917C01B4E0EB0EF11CDC015996ED9161
:10317000FC915A97C70169830995482F410F29810E
:10318000602FC7010E947D10F60123AD082E000CB0
:10319000990B820F911D83AF81E090E00F90DF913A
:1031A000CF911F910F91FF90EF90DF90CF900895F6
:1031B0000F931F93CF93DF930CEE11E0C0E0D2E0AA
:1031C000F80161918F01CE010E9488232196C832B7
:1031D000F2E0DF07A9F7DF91CF911F910F910895DA
:1031E000CF92DF92FF920F931F93CF93DF93D62F4F
:1031F000F42E89016C0124E0C20ED11CDC01599629
:10320000ED91FC915A97C6010995F80EC0E0F801BE
:103210002491222351F04F2D6D2FC6010E947D1065
:10322000D80FC80F0F5F1F4FF2CF8C2FDF91CF91B8
:103230001F910F91FF90DF90CF900895AF92BF92B2
:10324000CF92DF92FF920F931F93CF93DF9300D023
:10325000CDB7DEB7F62E042F6C0144E0C40ED11CAE
:10326000DC015996ED91FC915A97C60129833A8366
:103270000995080F2981A22E3A81B32E10E0F5019D
:1032800021915F01222341F0402F6F2DC6010E9442
:103290007D10F80E180FF3CF812F0F900F90DF9154
:1032A000CF911F910F91FF90DF90CF90BF90AF9083
:1032B00008959C0180913F02853069F49091140239
:1032C000492F50E04217530714F49F5F0BC081E071
:1032D000809314020895843051F490911402923036
:1032E00020F09150909314020895209314020895B1
:1032F000CF93DF93CDB7DEB72C970FB6F894DEBF30
:103300000FBECDBF789484B5826084BD84B58160E2
:1033100084BD85B5826085BD85B5816085BD8091A0
:103320006E00816080936E00109281008091810018
:103330008260809381008091810081608093810010
:10334000809180008160809380008091B1008460D2
:103350008093B1008091B00081608093B000809133
:103360007A00846080937A0080917A0082608093F2
:103370007A0080917A00816080937A0080917A004F
:10338000806880937A001092C10061E083E00E941F
:10339000DE0D60E088E00E94DE0D88E0809334025C
:1033A00080EA9FE0A0E0B0E080933502909336027F
:1033B000A0933702B09338021092390210923A0269
:1033C00010923B0210923C0288E00E94850D21E0A1
:1033D000892B09F420E020933D0210923E0260E028
:1033E00086E00E94DE0D86E080931E0280EA9FE068
:1033F000A0E0B0E080931F0290932002A0932102EE
:10340000B0932202109223021092240210922502FD
:103410001092260286E00E94850D21E0892B09F496
:1034200020E0209327021092280260E087E00E94AB
:10343000DE0D87E08093290280EA9FE0A0E0B0E003
:1034400080932A0290932B02A0932C02B0932D021A
:1034500010922E0210922F0210923002109231021E
:1034600087E00E94850D21E0892B09F420E020935C
:1034700032021092330280E69AEEA0E0B0E0809330
:10348000230390932403A0932503B093260380EC99
:1034900094EDA1E0B0E080931F0390932003A093EC
:1034A0002103B093220381E08093E80110921B0274
:1034B00080932B0310922703109228031092290364
:1034C00010922A03109216021092170210921802FC
:1034D000109219021092E70110927E0210927F0260
:1034E000109280021092810261E082E00E94AE0D93
:1034F00064E670E080E090E00E941A0E61E082E0F5
:103500000E94DE0D6CEEE62E61E0F62E00E012E089
:10351000C8010E948023F70181937F010F5F1F4F35
:103520000832F2E01F07A1F78091EC0190E0909340
:103530007D0280937C0210929B026FE872E080E033
:1035400090E00E948C16109215026AE070E080E014
:1035500090E00E941A0E0E94890568EE73E080E0F8
:1035600090E00E941A0E81E080931502809314026D
:1035700081E090E0909341028093400282E090E0ED
:1035800090934302809342028FE190E09093450232
:103590008093440284E690E0909347028093460231
:1035A00088EC90E090934902809348028CE291E08D
:1035B00090934B0280934A0280E991E090934D02F0
:1035C00080934C0224EF31E030934F0220934E025F
:1035D00048E552E050935102409350026CEB72E088
:1035E0007093530260935202E0E2F3E0F0935502CD
:1035F000E0935402A4E8B3E0B0935702A0935602BC
:1036000008EE13E01093590200935802B0935B0246
:10361000A0935A02F0935D02E0935C0270935F0204
:1036200060935E02509361024093600230936302A4
:1036300020936202909365028093640280E390E09D
:10364000909367028093660210926902109268025A
:1036500010926B0210926A0210926D0210926C022C
:10366000BE016F5F7F4F80E090E00E948C168981E1
:103670009A8190936F0280936E028B819C819093CC
:103680007102809370028D819E819093730280936A
:1036900072028F8198859093750280937402898558
:1036A0009A8590937702809376028B859C85909380
:1036B00079028093780210927B0210927A0260E085
:1036C0007BE480E090E00E943B1761E084E00E9490
:1036D000DE0D60E084E00E94AE0D61E083E00E94B8
:1036E000DE0D60E080E00E94DE0D8091B8008CE08D
:1036F0008093B80094E6E92EF12C2EEE222E22E0E3
:10370000322E36EDA32E36E0B32E4FE1842E912CCF
:103710005DE9C52E52E0D52E10926D0210926C021A
:1037200020E420937C0080917A00806480937A006A
:1037300080917A0086FDFCCF8091780020917900FD
:1037400090E0922B9093840280938302A0E2B1E0F8
:10375000E4E1F1E040E02D913D918217930728F0DC
:10376000208131812817390728F44F5F329646307F
:1037700091F740E080918202882319F048138093EA
:103780003F024093820210913F02112309F4CFC2FD
:1037900080911502893021F481E0809315023AC0AE
:1037A000813061F4113009F0C2C28091140281307D
:1037B00009F0BDC281E08093140291C0833069F5A5
:1037C00086E090E00E945919113009F0B0C2809152
:1037D0001402813041F484E0809315028091ED0160
:1037E0008093EB0116C0823011F485E010C0833065
:1037F00011F486E00CC0863019F41093150209C04C
:10380000843011F487E003C0853019F488E0809398
:10381000150281E0809314028AC2843009F09AC0B4
:1038200084E090E00E945919113009F05AC00091CB
:103830001402033009F4BECF043009F078C280913D
:10384000EB018093ED010E94D8188091ED018093E7
:103850008E0287EA93E00E94630DE091B903F09134
:10386000BA0380818F7E8083E091B903F091BA031F
:103870008081877F8083E091B903F091BA038081D2
:103880008F778083E091B903F091BA0380818F7DB7
:1038900080838091C1038093C00360E072EC81E07B
:1038A00090E00E943B1700938D0261E084E00E944B
:1038B000DE0D60E084E00E94AE0D30928C0220921A
:1038C0008B02B0928A02A092890290928802809222
:1038D000870210928602109285021093140283E0F0
:1038E000EEC0133009F580911402823081F480918A
:1038F000EC01833019F41092EC0119C2813021F4EB
:1039000032E03093EC0113C28430D0F710C2813022
:1039100009F00DC28091EB019FEF980F9D3F10F4CD
:103920008F5F15C081E013C0123009F000C2809192
:103930001402823009F40CC3813009F0F8C180917F
:10394000EB019EEF980F9D3F08F00AC381508093D2
:10395000EB01EDC1853071F485E090E00E945919CA
:10396000113009F0E4C1809114028450823008F0D3
:10397000DEC120CF863009F054C0153039F4809173
:103980001402882309F4D3C18F5F44CF143041F46B
:1039900080911402823010F485E03CCF81503ACF00
:1039A000133081F480911402813061F58091EC0133
:1039B000813021F483E08093EC01B9C1823009F0B9
:1039C000B6C199CF123009F0AFC180911402813095
:1039D00029F08250823008F0AAC10CC08091EC011D
:1039E000833011F481E0E7CF882309F489CF843054
:1039F000C8F79DC180919C02811102C082E10BC079
:103A0000815009C08250823008F091C180919C029F
:103A1000823120F48F5F80939C0289C110929C02B6
:103A200086C18A3009F079C0153009F47BC01430A2
:103A300009F483C0123009F48CC0133009F493C028
:103A4000113009F074C18091E901833061F49091E3
:103A5000EA019E3040F08BE0809315021092E9015C
:103A60001092EA0164C190911402923059F58111CB
:103A700006C0E091EA01F0E0E65DFC4F17C081303E
:103A800031F4E091EA01F0E0E95EFC4F0FC08230D2
:103A900031F4E091EA01F0E0EC5FFC4F07C08330C5
:103AA00069F4E091EA01F0E0EF50FD4FE491A0915C
:103AB0009C02B0E0A451BE4F1296EC9386E0809336
:103AC000150235C1933009F032C1811106C0E09171
:103AD000EA01F0E0E65DFC4F17C0813031F4E0917F
:103AE000EA01F0E0E95EFC4F0FC0823031F4E09172
:103AF000EA01F0E0EC5FFC4F07C08330F9F6E0919B
:103B0000EA01F0E0EF50FD4FE491A0919C02B0E09B
:103B1000A451BE4F5596EC93D1CF8B3009F053C0D2
:103B2000153049F48091E901833018F01092E901D1
:103B3000FEC08F5F09C0143051F48091E9018111FA
:103B400002C083E001C081508093E901F0C01230CF
:103B500041F48091EA01811102C081E10AC08150E3
:103B600008C0133049F48091EA01803108F078CF21
:103B70008F5F8093EA01DBC0113009F0D8C08091DB
:103B8000E901813009F0FEC1E091EA01EE3030F048
:103B90008AE0809315021092EA01C8CFF0E0E55365
:103BA000FD4FE491A0919C02B0E0A451BE4F12964B
:103BB000EC93809114028250823108F47FCF82E02E
:103BC000809314027BCF873009F0A7C08DE090E08E
:103BD0000E94591980911402813071F51230A1F4BC
:103BE00080919B02882321F0815080939B0203C027
:103BF000EFE0E0939B0280919B026FE872E0FCE0B3
:103C00008F9FC001112415C0133009F090C080911E
:103C10009B028F3020F48F5F80939B0202C0109232
:103C20009B0280919B026FE872E02CE0829FC001B2
:103C300011240E948C167BC0863021F5123069F465
:103C40008091930290919402009711F0019710C017
:103C5000F0929402E09293026AC0133009F067C0B8
:103C600080919302909194028436910530F40196EC
:103C700090939402809393025AC0109294021092EF
:103C8000930255C08B3021F5123069F48091970270
:103C900090919802009711F0019710C0F09298024D
:103CA000E092970244C0133009F041C0809197021E
:103CB000909198028436910530F401969093980281
:103CC0008093970234C010929802109297022FC0EE
:103CD000113069F58C3009F46DCD8D3041F51093BC
:103CE000140200919B023CE0039F800111248FE8A5
:103CF000682E82E0782E412C512CF30161913F0116
:103D0000C201800F911F0E948823FFEF4F1A5F0AA4
:103D10002CE04216510489F70AC0883041F481E052
:103D200090E00E9459193ECD113009F41BC10E9448
:103D3000890510923F0284E392E00E94AB1689E26B
:103D400092E00E94AB168EE192E00E94AB161092B8
:103D50001D0280913E02882329F060913D0283E09C
:103D60000E94AE0D80913E028823B9F0809133020B
:103D7000882399F080912802882379F0809132027B
:103D8000282F220F9091270234E0939FC001112425
:103D9000822B90913D02892B02C080911C0280935E
:103DA0001D0210911B02112309F4C2C080912B0344
:103DB000882379F00E94540E6093270370932803A0
:103DC0008093290390932A0381E080931A02109232
:103DD0002B030E94540E40902703509028036090BC
:103DE000290370902A03DC01CB0184199509A609E7
:103DF000B7098093160290931702A0931802B0930C
:103E00001902409023035090240360902503709082
:103E1000260384159505A605B70510F010921A0221
:103E200080911A02811135C0112399F14091160237
:103E300050911702609118027091190280911F032E
:103E400090912003A0912103B091220348175907B4
:103E50006A077B07F0F081E080931A0280932B03BE
:103E600018C087EA93E00E94FE0A80931E03E09147
:103E70001D03AE2FB0E0A356BD4F8C93EF5FE093D0
:103E80001D03F0E0E356FD4F10828D3049F08A307B
:103E900039F087EA93E00E94200B892B11F745C087
:103EA0001A8219821C821B821E821D82F6010190D9
:103EB0000020E9F73197AF014D5952406DE972E0AA
:103EC000CE0101960E945F1861E084E00E94AE0D71
:103ED0006AE070E080E090E00E941A0EF601019026
:103EE0000020E9F73197AF014D5952406DE972E07A
:103EF00087EA93E00E94E31642E050E06BED71E048
:103F000087EA93E00E94E3166AE070E080E090E0C8
:103F10000E941A0E60E084E00E94AE0D10921D0314
:103F200089819A810E94A321B4CF0E942C0BF4CBEB
:103F30000E94540E609327037093280380932903F3
:103F400090932A0310921A0281E080932B0368CF8A
:103F50008091EC01823009F445CD811148CD2ACD04
:103F60008EEFF5CC809114029EEF980F923008F4FA
:103F70000FCE843009F41ECC853009F0D8CE0E94D3
:103F8000D818ABCC811115CEE091EA01F0E0E252F5
:103F9000FD4F07CE80914404909145040C94A321D9
:103FA000EF92FF920F931F93CF93DF931092AA0388
:103FB0001092A90388EE93E0A0E0B0E08093AB03F9
:103FC0009093AC03A093AD03B093AE0320E331E034
:103FD0003093A8032093A70325EC30E03093B4037B
:103FE0002093B30324EC30E03093B6032093B50361
:103FF00020EC30E03093B8032093B70321EC30E09D
:104000003093BA032093B90322EC30E03093BC0321
:104010002093BB0326EC30E03093BE032093BD0316
:104020001092C0031092C1031092C2031092C303F6
:104030001092DF041092DE048093E0049093E10478
:10404000A093E204B093E30480E491E09093DD0454
:104050008093DC0480E691E09093590480935804A7
:104060008EE390E00E940E21EC011B821A8280E513
:1040700091E0998388831BAE1CAE1DAE7E0124E0C7
:10408000E20EF11C198618861B861A861D8681E0B1
:104090008C8782E28E871B8A1A8AFE01B796CE0130
:1040A000C5962FEF2193E817F907E1F781E08CA37C
:1040B00006ED1BE01A8F098F8B8F1C8E1D8E80E4FE
:1040C0008E8F1F8E84E89BE09EAB8DAB88E091E0E5
:1040D0009F838E8382E18AABC7010E944C0F88E5E3
:1040E00091E099838883D0935B04C0935A048885B8
:1040F00099858F56934049F08FE693E0998788879A
:10410000C7010E9434101A8F098F80915A04909130
:104110005B0421E0FC01238F04960E943410E0919F
:104120005A04F0915B048785803321F48FEF84A3D8
:1041300085A30AC0883221F0823021F081E003C0DB
:104140008FEF01C083E084A382ED9BE0928F818F8B
:1041500060E08AE00E94DE0DE5E6F3E0E491E093A2
:104160004A04E1E5F3E0E491F0E0EE0FFF1FE35CC9
:10417000FC4F8591949190934C0480934B04109242
:1041800055041092570410925604E5E5F4E012929B
:1041900024E0ED34F207D9F710924504109244045C
:1041A0001092470410924604109249041092480459
:1041B00040E050E06DED71E084E494E0DF91CF9158
:1041C0001F910F91FF90EF900C945F18A1E21A2EAF
:1041D000AA1BBB1BFD010DC0AA1FBB1FEE1FFF1FAB
:1041E000A217B307E407F50720F0A21BB30BE40BFB
:1041F000F50B661F771F881F991F1A9469F7609542
:104200007095809590959B01AC01BD01CF010895FB
:10421000EE0FFF1F0590F491E02D0994CF93DF93EB
:104220008230910510F482E090E0E091EA04F09190
:10423000EB0420E030E0C0E0D0E0309711F14081A5
:10424000518148175907C0F04817590761F4828116
:104250009381209719F09B838A832BC09093EB0462
:104260008093EA0426C02115310519F0421753073F
:1042700018F49A01BE01DF01EF010280F381E02D05
:10428000DCCF2115310509F1281B390B243031050C
:1042900090F412968D919C9113976115710521F000
:1042A000FB019383828304C09093EB048093EA0420
:1042B000FD01329644C0FD01E20FF31F81939193FB
:1042C000225031092D933C933AC02091E80430915B
:1042D000E904232B41F42091100130911101309316
:1042E000E9042093E80420910E0130910F0121157B
:1042F000310541F42DB73EB74091120150911301A1
:10430000241B350BE091E804F091E904E217F30770
:10431000A0F42E1B3F0B2817390778F0AC014E5F35
:104320005F4F2417350748F04E0F5F1F5093E90485
:104330004093E8048193919302C0E0E0F0E0CF0164
:10434000DF91CF9108950F931F93CF93DF93009741
:1043500009F48CC0FC013297138212820091EA04A6
:104360001091EB040115110581F420813181820F38
:10437000931F2091E8043091E9042817390779F553
:10438000F093E904E093E80471C0D80140E050E004
:10439000AE17BF0750F412962D913C911397AD01C3
:1043A0002115310509F1D901F3CF9D01DA013383DC
:1043B000228360817181860F971F8217930769F4AA
:1043C000EC0128813981260F371F2E5F3F4F318343
:1043D00020838A819B8193838283452B29F4F093E8
:1043E000EB04E093EA0442C01396FC93EE93129719
:1043F000ED01499159919E01240F351FE217F307F2
:1044000071F480819181840F951F029611969C937F
:104410008E938281938113969C938E931297E0E002
:10442000F0E0D80112968D919C911397009719F0A6
:10443000F8018C01F6CF8D919C9198012E5F3F4F32
:10444000820F931F2091E8043091E904281739075F
:1044500069F4309729F41092EB041092EA0402C038
:10446000138212821093E9040093E804DF91CF9144
:104470001F910F910895A0E0B0E0E1E4F2E20C9406
:104480009A23EC01009721F4CB010E940E21B8C0C1
:10449000FC01E60FF71F9C0122503109E217F307D8
:1044A00008F4ACC0D9010D911C911197061717079C
:1044B000B0F00530110508F49FC0C80104978617B5
:1044C000970708F499C002501109061B170B0193B6
:1044D00011936D937C93CF010E94A3218DC05B014A
:1044E000A01AB10A4C01800E911EA091EA04B0916D
:1044F000EB0440E050E0E12CF12C109709F44AC0A5
:10450000A815B905D1F56D907C901197630182E0F3
:10451000C80ED11CCA14DB0480F1A3014A195B093F
:104520006A0182E0C80ED11C1296BC9012971396B5
:10453000AC91B5E0CB16D10440F0B282A383518395
:104540004083D9016D937C930AC00E5F1F4FC30156
:10455000800F911FF90191838083EB2DFA2FE114D5
:10456000F10431F0D7011396FC93EE93129744C0F7
:10457000F093EB04E093EA043FC08D919C91119776
:104580004817590708F4AC017D0112960D90BC91B3
:10459000A02DB3CF8091E8049091E9048815990586
:1045A000E1F446175707C8F480910E0190910F016E
:1045B000009741F48DB79EB74091120150911301BD
:1045C000841B950BE817F907C8F4F093E904E0930E
:1045D000E804F901718360830FC0CB010E940E21B2
:1045E0007C01009759F0A801BE010E940A23CE0168
:1045F0000E94A321C70104C0CE0102C080E090E068
:10460000CDB7DEB7EEE00C94B62381E090E0F894ED
:104610000C94CD23FB01DC0102C001900D924150AE
:104620005040D8F70895FB01DC0101900D92002065
:10463000E1F70895BB274A3031F4992322F4BDE213
:10464000909581959F4F0C945723BB272A3051F4A6
:10465000992342F4BDE290958095709561957F4FC6
:104660008F4F9F4F0C943523BB27FA01A62F62175B
:10467000710581059105330B30FB66F0AA27660FA3
:10468000771F881F991FAA1FA21710F0A21B6395FE
:104690003850A9F7A05DAA3308F0A95DA19336F7B9
:1046A000B111B1931082CA010C947023BB27FB0196
:1046B0005527AA27880F991FAA1FA41710F0A41B1B
:1046C00083955051B9F7A05DAA3308F0A95DA19375
:1046D000009779F7B111B1931192CB010C9470232B
:1046E000DC01FC01672F71917723E1F7329704C059
:1046F0007C916D9370836291AE17BF07C8F30895E4
:10470000F999FECF92BD81BDF89A992780B5089599
:10471000262FF999FECF1FBA92BD81BD20BD0FB6DD
:10472000F894FA9AF99A0FBE019608952F923F9243
:104730004F925F926F927F928F929F92AF92BF92B1
:10474000CF92DF92EF92FF920F931F93CF93DF935D
:10475000CDB7DEB7CA1BDB0B0FB6F894DEBF0FBEBA
:10476000CDBF09942A88398848885F846E847D8407
:104770008C849B84AA84B984C884DF80EE80FD8009
:104780000C811B81AA81B981CE0FD11D0FB6F8947F
:10479000DEBF0FBECDBFED01089515E0CEE5D5E03B
:1047A00004C0FE010E9408212196CF35D107C9F728
:0447B000F894FFCFAB
:1047B4000840000000805C04010C00016613000046
:1047C400EC04800064000004B6036603D0027602A1
:1047D4000000E803840320038A023A020000000078
:1047E400DB11E316200BFE0A120B630D0000000020
:1047F400E012CC12C512C212BF12BE120000000099
:104804009F18E316000000009F18E3160000000044
:104814005D15F1125374617465004155544F0041A4
:104824002D3100412D3000412D3F00422D310042F9
:104834002D3000422D3F00542D3100542D300054B2
:104844002D3F004552524F522053656E736F7200D4
:104854004F736D6F73652D4F6E004F736D6F73657E
:104864002D4F66660050756D702D4F6E0050756D3E
:10487400702D4F6666004F5300434C45414E004F28
:0E488400534D4F53450049444C45000D0A006A
:00000001FF
